{
	"contracts/nft-market.sol": {
		"NFTMarket": {
			"abi": [
				{
					"inputs": [
						{
							"internalType": "address",
							"name": "_erc20",
							"type": "address"
						},
						{
							"internalType": "address",
							"name": "_erc721",
							"type": "address"
						}
					],
					"stateMutability": "nonpayable",
					"type": "constructor"
				},
				{
					"anonymous": false,
					"inputs": [
						{
							"indexed": true,
							"internalType": "address",
							"name": "seller",
							"type": "address"
						},
						{
							"indexed": true,
							"internalType": "uint256",
							"name": "tokenId",
							"type": "uint256"
						}
					],
					"name": "CancelOrder",
					"type": "event"
				},
				{
					"anonymous": false,
					"inputs": [
						{
							"indexed": true,
							"internalType": "address",
							"name": "seller",
							"type": "address"
						},
						{
							"indexed": true,
							"internalType": "uint256",
							"name": "tokenId",
							"type": "uint256"
						},
						{
							"indexed": false,
							"internalType": "uint256",
							"name": "price",
							"type": "uint256"
						}
					],
					"name": "NewOrder",
					"type": "event"
				},
				{
					"anonymous": false,
					"inputs": [
						{
							"indexed": true,
							"internalType": "address",
							"name": "buyer",
							"type": "address"
						},
						{
							"indexed": true,
							"internalType": "address",
							"name": "seller",
							"type": "address"
						},
						{
							"indexed": true,
							"internalType": "uint256",
							"name": "tokenId",
							"type": "uint256"
						},
						{
							"indexed": false,
							"internalType": "uint256",
							"name": "price",
							"type": "uint256"
						}
					],
					"name": "OrderDeal",
					"type": "event"
				},
				{
					"anonymous": false,
					"inputs": [
						{
							"indexed": true,
							"internalType": "address",
							"name": "seller",
							"type": "address"
						},
						{
							"indexed": true,
							"internalType": "uint256",
							"name": "tokenId",
							"type": "uint256"
						},
						{
							"indexed": false,
							"internalType": "uint256",
							"name": "oldPrice",
							"type": "uint256"
						},
						{
							"indexed": false,
							"internalType": "uint256",
							"name": "newPrice",
							"type": "uint256"
						}
					],
					"name": "UpdateOrderPrice",
					"type": "event"
				},
				{
					"inputs": [
						{
							"internalType": "uint256",
							"name": "tokenId",
							"type": "uint256"
						}
					],
					"name": "buy",
					"outputs": [],
					"stateMutability": "nonpayable",
					"type": "function"
				},
				{
					"inputs": [
						{
							"internalType": "uint256",
							"name": "tokenId",
							"type": "uint256"
						}
					],
					"name": "cancel",
					"outputs": [],
					"stateMutability": "nonpayable",
					"type": "function"
				},
				{
					"inputs": [],
					"name": "erc20",
					"outputs": [
						{
							"internalType": "contract IERC20",
							"name": "",
							"type": "address"
						}
					],
					"stateMutability": "view",
					"type": "function"
				},
				{
					"inputs": [],
					"name": "erc721",
					"outputs": [
						{
							"internalType": "contract IERC721",
							"name": "",
							"type": "address"
						}
					],
					"stateMutability": "view",
					"type": "function"
				},
				{
					"inputs": [],
					"name": "getAllNFTs",
					"outputs": [
						{
							"components": [
								{
									"internalType": "address",
									"name": "seller",
									"type": "address"
								},
								{
									"internalType": "uint256",
									"name": "tokenId",
									"type": "uint256"
								},
								{
									"internalType": "uint256",
									"name": "price",
									"type": "uint256"
								}
							],
							"internalType": "struct NFTMarket.Order[]",
							"name": "",
							"type": "tuple[]"
						}
					],
					"stateMutability": "view",
					"type": "function"
				},
				{
					"inputs": [],
					"name": "getMyNFTs",
					"outputs": [
						{
							"components": [
								{
									"internalType": "address",
									"name": "seller",
									"type": "address"
								},
								{
									"internalType": "uint256",
									"name": "tokenId",
									"type": "uint256"
								},
								{
									"internalType": "uint256",
									"name": "price",
									"type": "uint256"
								}
							],
							"internalType": "struct NFTMarket.Order[]",
							"name": "",
							"type": "tuple[]"
						}
					],
					"stateMutability": "view",
					"type": "function"
				},
				{
					"inputs": [
						{
							"internalType": "uint256",
							"name": "tokenId",
							"type": "uint256"
						}
					],
					"name": "getOrderByTokenId",
					"outputs": [
						{
							"components": [
								{
									"internalType": "address",
									"name": "seller",
									"type": "address"
								},
								{
									"internalType": "uint256",
									"name": "tokenId",
									"type": "uint256"
								},
								{
									"internalType": "uint256",
									"name": "price",
									"type": "uint256"
								}
							],
							"internalType": "struct NFTMarket.Order",
							"name": "",
							"type": "tuple"
						}
					],
					"stateMutability": "view",
					"type": "function"
				},
				{
					"inputs": [],
					"name": "getOrderLength",
					"outputs": [
						{
							"internalType": "uint256",
							"name": "",
							"type": "uint256"
						}
					],
					"stateMutability": "view",
					"type": "function"
				},
				{
					"inputs": [
						{
							"internalType": "uint256",
							"name": "_tokenId",
							"type": "uint256"
						}
					],
					"name": "isListed",
					"outputs": [
						{
							"internalType": "bool",
							"name": "",
							"type": "bool"
						}
					],
					"stateMutability": "view",
					"type": "function"
				},
				{
					"inputs": [
						{
							"internalType": "address",
							"name": "operator",
							"type": "address"
						},
						{
							"internalType": "address",
							"name": "from",
							"type": "address"
						},
						{
							"internalType": "uint256",
							"name": "tokenId",
							"type": "uint256"
						},
						{
							"internalType": "bytes",
							"name": "data",
							"type": "bytes"
						}
					],
					"name": "onERC721Received",
					"outputs": [
						{
							"internalType": "bytes4",
							"name": "",
							"type": "bytes4"
						}
					],
					"stateMutability": "nonpayable",
					"type": "function"
				},
				{
					"inputs": [
						{
							"internalType": "uint256",
							"name": "",
							"type": "uint256"
						}
					],
					"name": "orderIndexOfTokenId",
					"outputs": [
						{
							"internalType": "uint256",
							"name": "",
							"type": "uint256"
						}
					],
					"stateMutability": "view",
					"type": "function"
				},
				{
					"inputs": [
						{
							"internalType": "uint256",
							"name": "",
							"type": "uint256"
						}
					],
					"name": "orderOfTokenId",
					"outputs": [
						{
							"internalType": "address",
							"name": "seller",
							"type": "address"
						},
						{
							"internalType": "uint256",
							"name": "tokenId",
							"type": "uint256"
						},
						{
							"internalType": "uint256",
							"name": "price",
							"type": "uint256"
						}
					],
					"stateMutability": "view",
					"type": "function"
				},
				{
					"inputs": [
						{
							"internalType": "uint256",
							"name": "",
							"type": "uint256"
						}
					],
					"name": "orders",
					"outputs": [
						{
							"internalType": "address",
							"name": "seller",
							"type": "address"
						},
						{
							"internalType": "uint256",
							"name": "tokenId",
							"type": "uint256"
						},
						{
							"internalType": "uint256",
							"name": "price",
							"type": "uint256"
						}
					],
					"stateMutability": "view",
					"type": "function"
				},
				{
					"inputs": [
						{
							"internalType": "bytes",
							"name": "_bytes",
							"type": "bytes"
						},
						{
							"internalType": "uint256",
							"name": "_start",
							"type": "uint256"
						}
					],
					"name": "toUint256",
					"outputs": [
						{
							"internalType": "uint256",
							"name": "",
							"type": "uint256"
						}
					],
					"stateMutability": "pure",
					"type": "function"
				},
				{
					"inputs": [
						{
							"internalType": "uint256",
							"name": "_tokenId",
							"type": "uint256"
						},
						{
							"internalType": "uint256",
							"name": "newPrice",
							"type": "uint256"
						}
					],
					"name": "updatePrice",
					"outputs": [],
					"stateMutability": "nonpayable",
					"type": "function"
				}
			],
			"devdoc": {
				"kind": "dev",
				"methods": {
					"onERC721Received(address,address,uint256,bytes)": {
						"details": "Whenever an {IERC721} `tokenId` token is transferred to this contract via {IERC721-safeTransferFrom} by `operator` from `from`, this function is called. It must return its Solidity selector to confirm the token transfer. If any other value is returned or the interface is not implemented by the recipient, the transfer will be reverted. The selector can be obtained in Solidity with `IERC721Receiver.onERC721Received.selector`."
					}
				},
				"version": 1
			},
			"evm": {
				"assembly": "    /* \"contracts/nft-market.sol\":238:7333  contract NFTMarket is IERC721Receiver {... */\n  mstore(0x40, 0xc0)\n    /* \"contracts/nft-market.sol\":953:1286  constructor(address _erc20, address _erc721) {... */\n  callvalue\n  dup1\n  iszero\n  tag_1\n  jumpi\n  0x00\n  dup1\n  revert\ntag_1:\n  pop\n  mload(0x40)\n  sub(codesize, bytecodeSize)\n  dup1\n  bytecodeSize\n  dup4\n  codecopy\n  dup2\n  dup2\n  add\n  0x40\n  mstore\n  dup2\n  add\n  swap1\n  tag_2\n  swap2\n  swap1\n  tag_3\n  jump\t// in\ntag_2:\n    /* \"contracts/nft-market.sol\":1098:1099  0 */\n  0x00\n    /* \"contracts/nft-market.sol\":1080:1100  _erc20 != address(0) */\n  0xffffffffffffffffffffffffffffffffffffffff\n  and\n    /* \"contracts/nft-market.sol\":1080:1086  _erc20 */\n  dup3\n    /* \"contracts/nft-market.sol\":1080:1100  _erc20 != address(0) */\n  0xffffffffffffffffffffffffffffffffffffffff\n  and\n  sub\n    /* \"contracts/nft-market.sol\":1072:1136  require(_erc20 != address(0), \"Invalid ERC-20 contract address\") */\n  tag_6\n  jumpi\n  mload(0x40)\n  0x08c379a000000000000000000000000000000000000000000000000000000000\n  dup2\n  mstore\n  0x04\n  add\n  tag_7\n  swap1\n  tag_8\n  jump\t// in\ntag_7:\n  mload(0x40)\n  dup1\n  swap2\n  sub\n  swap1\n  revert\ntag_6:\n    /* \"contracts/nft-market.sol\":1173:1174  0 */\n  0x00\n    /* \"contracts/nft-market.sol\":1154:1175  _erc721 != address(0) */\n  0xffffffffffffffffffffffffffffffffffffffff\n  and\n    /* \"contracts/nft-market.sol\":1154:1161  _erc721 */\n  dup2\n    /* \"contracts/nft-market.sol\":1154:1175  _erc721 != address(0) */\n  0xffffffffffffffffffffffffffffffffffffffff\n  and\n  sub\n    /* \"contracts/nft-market.sol\":1146:1212  require(_erc721 != address(0), \"Invalid ERC-721 contract address\") */\n  tag_9\n  jumpi\n  mload(0x40)\n  0x08c379a000000000000000000000000000000000000000000000000000000000\n  dup2\n  mstore\n  0x04\n  add\n  tag_10\n  swap1\n  tag_11\n  jump\t// in\ntag_10:\n  mload(0x40)\n  dup1\n  swap2\n  sub\n  swap1\n  revert\ntag_9:\n    /* \"contracts/nft-market.sol\":1237:1243  _erc20 */\n  dup2\n    /* \"contracts/nft-market.sol\":1222:1244  erc20 = IERC20(_erc20) */\n  0xffffffffffffffffffffffffffffffffffffffff\n  and\n  0x80\n  dup2\n  0xffffffffffffffffffffffffffffffffffffffff\n  and\n  dup2\n  mstore\n  pop\n  pop\n    /* \"contracts/nft-market.sol\":1271:1278  _erc721 */\n  dup1\n    /* \"contracts/nft-market.sol\":1254:1279  erc721 = IERC721(_erc721) */\n  0xffffffffffffffffffffffffffffffffffffffff\n  and\n  0xa0\n  dup2\n  0xffffffffffffffffffffffffffffffffffffffff\n  and\n  dup2\n  mstore\n  pop\n  pop\n    /* \"contracts/nft-market.sol\":953:1286  constructor(address _erc20, address _erc721) {... */\n  pop\n  pop\n    /* \"contracts/nft-market.sol\":238:7333  contract NFTMarket is IERC721Receiver {... */\n  jump(tag_12)\n    /* \"#utility.yul\":88:205   */\ntag_14:\n    /* \"#utility.yul\":197:198   */\n  0x00\n    /* \"#utility.yul\":194:195   */\n  dup1\n    /* \"#utility.yul\":187:199   */\n  revert\n    /* \"#utility.yul\":334:460   */\ntag_16:\n    /* \"#utility.yul\":371:378   */\n  0x00\n    /* \"#utility.yul\":411:453   */\n  0xffffffffffffffffffffffffffffffffffffffff\n    /* \"#utility.yul\":404:409   */\n  dup3\n    /* \"#utility.yul\":400:454   */\n  and\n    /* \"#utility.yul\":389:454   */\n  swap1\n  pop\n    /* \"#utility.yul\":334:460   */\n  swap2\n  swap1\n  pop\n  jump\t// out\n    /* \"#utility.yul\":466:562   */\ntag_17:\n    /* \"#utility.yul\":503:510   */\n  0x00\n    /* \"#utility.yul\":532:556   */\n  tag_31\n    /* \"#utility.yul\":550:555   */\n  dup3\n    /* \"#utility.yul\":532:556   */\n  tag_16\n  jump\t// in\ntag_31:\n    /* \"#utility.yul\":521:556   */\n  swap1\n  pop\n    /* \"#utility.yul\":466:562   */\n  swap2\n  swap1\n  pop\n  jump\t// out\n    /* \"#utility.yul\":568:690   */\ntag_18:\n    /* \"#utility.yul\":641:665   */\n  tag_33\n    /* \"#utility.yul\":659:664   */\n  dup2\n    /* \"#utility.yul\":641:665   */\n  tag_17\n  jump\t// in\ntag_33:\n    /* \"#utility.yul\":634:639   */\n  dup2\n    /* \"#utility.yul\":631:666   */\n  eq\n    /* \"#utility.yul\":621:684   */\n  tag_34\n  jumpi\n    /* \"#utility.yul\":680:681   */\n  0x00\n    /* \"#utility.yul\":677:678   */\n  dup1\n    /* \"#utility.yul\":670:682   */\n  revert\n    /* \"#utility.yul\":621:684   */\ntag_34:\n    /* \"#utility.yul\":568:690   */\n  pop\n  jump\t// out\n    /* \"#utility.yul\":696:839   */\ntag_19:\n    /* \"#utility.yul\":753:758   */\n  0x00\n    /* \"#utility.yul\":784:790   */\n  dup2\n    /* \"#utility.yul\":778:791   */\n  mload\n    /* \"#utility.yul\":769:791   */\n  swap1\n  pop\n    /* \"#utility.yul\":800:833   */\n  tag_36\n    /* \"#utility.yul\":827:832   */\n  dup2\n    /* \"#utility.yul\":800:833   */\n  tag_18\n  jump\t// in\ntag_36:\n    /* \"#utility.yul\":696:839   */\n  swap3\n  swap2\n  pop\n  pop\n  jump\t// out\n    /* \"#utility.yul\":845:1352   */\ntag_3:\n    /* \"#utility.yul\":924:930   */\n  0x00\n    /* \"#utility.yul\":932:938   */\n  dup1\n    /* \"#utility.yul\":981:983   */\n  0x40\n    /* \"#utility.yul\":969:978   */\n  dup4\n    /* \"#utility.yul\":960:967   */\n  dup6\n    /* \"#utility.yul\":956:979   */\n  sub\n    /* \"#utility.yul\":952:984   */\n  slt\n    /* \"#utility.yul\":949:1068   */\n  iszero\n  tag_38\n  jumpi\n    /* \"#utility.yul\":987:1066   */\n  tag_39\n  tag_14\n  jump\t// in\ntag_39:\n    /* \"#utility.yul\":949:1068   */\ntag_38:\n    /* \"#utility.yul\":1107:1108   */\n  0x00\n    /* \"#utility.yul\":1132:1196   */\n  tag_40\n    /* \"#utility.yul\":1188:1195   */\n  dup6\n    /* \"#utility.yul\":1179:1185   */\n  dup3\n    /* \"#utility.yul\":1168:1177   */\n  dup7\n    /* \"#utility.yul\":1164:1186   */\n  add\n    /* \"#utility.yul\":1132:1196   */\n  tag_19\n  jump\t// in\ntag_40:\n    /* \"#utility.yul\":1122:1196   */\n  swap3\n  pop\n    /* \"#utility.yul\":1078:1206   */\n  pop\n    /* \"#utility.yul\":1245:1247   */\n  0x20\n    /* \"#utility.yul\":1271:1335   */\n  tag_41\n    /* \"#utility.yul\":1327:1334   */\n  dup6\n    /* \"#utility.yul\":1318:1324   */\n  dup3\n    /* \"#utility.yul\":1307:1316   */\n  dup7\n    /* \"#utility.yul\":1303:1325   */\n  add\n    /* \"#utility.yul\":1271:1335   */\n  tag_19\n  jump\t// in\ntag_41:\n    /* \"#utility.yul\":1261:1335   */\n  swap2\n  pop\n    /* \"#utility.yul\":1216:1345   */\n  pop\n    /* \"#utility.yul\":845:1352   */\n  swap3\n  pop\n  swap3\n  swap1\n  pop\n  jump\t// out\n    /* \"#utility.yul\":1358:1527   */\ntag_20:\n    /* \"#utility.yul\":1442:1453   */\n  0x00\n    /* \"#utility.yul\":1476:1482   */\n  dup3\n    /* \"#utility.yul\":1471:1474   */\n  dup3\n    /* \"#utility.yul\":1464:1483   */\n  mstore\n    /* \"#utility.yul\":1516:1520   */\n  0x20\n    /* \"#utility.yul\":1511:1514   */\n  dup3\n    /* \"#utility.yul\":1507:1521   */\n  add\n    /* \"#utility.yul\":1492:1521   */\n  swap1\n  pop\n    /* \"#utility.yul\":1358:1527   */\n  swap3\n  swap2\n  pop\n  pop\n  jump\t// out\n    /* \"#utility.yul\":1533:1714   */\ntag_21:\n    /* \"#utility.yul\":1673:1706   */\n  0x496e76616c6964204552432d323020636f6e7472616374206164647265737300\n    /* \"#utility.yul\":1669:1670   */\n  0x00\n    /* \"#utility.yul\":1661:1667   */\n  dup3\n    /* \"#utility.yul\":1657:1671   */\n  add\n    /* \"#utility.yul\":1650:1707   */\n  mstore\n    /* \"#utility.yul\":1533:1714   */\n  pop\n  jump\t// out\n    /* \"#utility.yul\":1720:2086   */\ntag_22:\n    /* \"#utility.yul\":1862:1865   */\n  0x00\n    /* \"#utility.yul\":1883:1950   */\n  tag_45\n    /* \"#utility.yul\":1947:1949   */\n  0x1f\n    /* \"#utility.yul\":1942:1945   */\n  dup4\n    /* \"#utility.yul\":1883:1950   */\n  tag_20\n  jump\t// in\ntag_45:\n    /* \"#utility.yul\":1876:1950   */\n  swap2\n  pop\n    /* \"#utility.yul\":1959:2052   */\n  tag_46\n    /* \"#utility.yul\":2048:2051   */\n  dup3\n    /* \"#utility.yul\":1959:2052   */\n  tag_21\n  jump\t// in\ntag_46:\n    /* \"#utility.yul\":2077:2079   */\n  0x20\n    /* \"#utility.yul\":2072:2075   */\n  dup3\n    /* \"#utility.yul\":2068:2080   */\n  add\n    /* \"#utility.yul\":2061:2080   */\n  swap1\n  pop\n    /* \"#utility.yul\":1720:2086   */\n  swap2\n  swap1\n  pop\n  jump\t// out\n    /* \"#utility.yul\":2092:2511   */\ntag_8:\n    /* \"#utility.yul\":2258:2262   */\n  0x00\n    /* \"#utility.yul\":2296:2298   */\n  0x20\n    /* \"#utility.yul\":2285:2294   */\n  dup3\n    /* \"#utility.yul\":2281:2299   */\n  add\n    /* \"#utility.yul\":2273:2299   */\n  swap1\n  pop\n    /* \"#utility.yul\":2345:2354   */\n  dup2\n    /* \"#utility.yul\":2339:2343   */\n  dup2\n    /* \"#utility.yul\":2335:2355   */\n  sub\n    /* \"#utility.yul\":2331:2332   */\n  0x00\n    /* \"#utility.yul\":2320:2329   */\n  dup4\n    /* \"#utility.yul\":2316:2333   */\n  add\n    /* \"#utility.yul\":2309:2356   */\n  mstore\n    /* \"#utility.yul\":2373:2504   */\n  tag_48\n    /* \"#utility.yul\":2499:2503   */\n  dup2\n    /* \"#utility.yul\":2373:2504   */\n  tag_22\n  jump\t// in\ntag_48:\n    /* \"#utility.yul\":2365:2504   */\n  swap1\n  pop\n    /* \"#utility.yul\":2092:2511   */\n  swap2\n  swap1\n  pop\n  jump\t// out\n    /* \"#utility.yul\":2517:2699   */\ntag_23:\n    /* \"#utility.yul\":2657:2691   */\n  0x496e76616c6964204552432d37323120636f6e74726163742061646472657373\n    /* \"#utility.yul\":2653:2654   */\n  0x00\n    /* \"#utility.yul\":2645:2651   */\n  dup3\n    /* \"#utility.yul\":2641:2655   */\n  add\n    /* \"#utility.yul\":2634:2692   */\n  mstore\n    /* \"#utility.yul\":2517:2699   */\n  pop\n  jump\t// out\n    /* \"#utility.yul\":2705:3071   */\ntag_24:\n    /* \"#utility.yul\":2847:2850   */\n  0x00\n    /* \"#utility.yul\":2868:2935   */\n  tag_51\n    /* \"#utility.yul\":2932:2934   */\n  0x20\n    /* \"#utility.yul\":2927:2930   */\n  dup4\n    /* \"#utility.yul\":2868:2935   */\n  tag_20\n  jump\t// in\ntag_51:\n    /* \"#utility.yul\":2861:2935   */\n  swap2\n  pop\n    /* \"#utility.yul\":2944:3037   */\n  tag_52\n    /* \"#utility.yul\":3033:3036   */\n  dup3\n    /* \"#utility.yul\":2944:3037   */\n  tag_23\n  jump\t// in\ntag_52:\n    /* \"#utility.yul\":3062:3064   */\n  0x20\n    /* \"#utility.yul\":3057:3060   */\n  dup3\n    /* \"#utility.yul\":3053:3065   */\n  add\n    /* \"#utility.yul\":3046:3065   */\n  swap1\n  pop\n    /* \"#utility.yul\":2705:3071   */\n  swap2\n  swap1\n  pop\n  jump\t// out\n    /* \"#utility.yul\":3077:3496   */\ntag_11:\n    /* \"#utility.yul\":3243:3247   */\n  0x00\n    /* \"#utility.yul\":3281:3283   */\n  0x20\n    /* \"#utility.yul\":3270:3279   */\n  dup3\n    /* \"#utility.yul\":3266:3284   */\n  add\n    /* \"#utility.yul\":3258:3284   */\n  swap1\n  pop\n    /* \"#utility.yul\":3330:3339   */\n  dup2\n    /* \"#utility.yul\":3324:3328   */\n  dup2\n    /* \"#utility.yul\":3320:3340   */\n  sub\n    /* \"#utility.yul\":3316:3317   */\n  0x00\n    /* \"#utility.yul\":3305:3314   */\n  dup4\n    /* \"#utility.yul\":3301:3318   */\n  add\n    /* \"#utility.yul\":3294:3341   */\n  mstore\n    /* \"#utility.yul\":3358:3489   */\n  tag_54\n    /* \"#utility.yul\":3484:3488   */\n  dup2\n    /* \"#utility.yul\":3358:3489   */\n  tag_24\n  jump\t// in\ntag_54:\n    /* \"#utility.yul\":3350:3489   */\n  swap1\n  pop\n    /* \"#utility.yul\":3077:3496   */\n  swap2\n  swap1\n  pop\n  jump\t// out\n    /* \"contracts/nft-market.sol\":238:7333  contract NFTMarket is IERC721Receiver {... */\ntag_12:\n  mload(0x80)\n  mload(0xa0)\n  codecopy(0x00, dataOffset(sub_0), dataSize(sub_0))\n  0x00\n  assignImmutable(\"0x188e5a5b71233ee092fd8df209d4e7ce875dc9914c3b80c1ca11c66b0a19f684\")\n  0x00\n  assignImmutable(\"0x1615de156c662ff72892fae17ce471b57fc12c99ad066f4eb8422085be4080ba\")\n  return(0x00, dataSize(sub_0))\nstop\n\nsub_0: assembly {\n        /* \"contracts/nft-market.sol\":238:7333  contract NFTMarket is IERC721Receiver {... */\n      mstore(0x40, 0x80)\n      callvalue\n      dup1\n      iszero\n      tag_1\n      jumpi\n      0x00\n      dup1\n      revert\n    tag_1:\n      pop\n      jumpi(tag_2, lt(calldatasize, 0x04))\n      shr(0xe0, calldataload(0x00))\n      dup1\n      0xb5cdf924\n      gt\n      tag_18\n      jumpi\n      dup1\n      0xe0391b09\n      gt\n      tag_19\n      jumpi\n      dup1\n      0xe0391b09\n      eq\n      tag_14\n      jumpi\n      dup1\n      0xe86eac72\n      eq\n      tag_15\n      jumpi\n      dup1\n      0xe9956f1d\n      eq\n      tag_16\n      jumpi\n      dup1\n      0xfcce4883\n      eq\n      tag_17\n      jumpi\n      jump(tag_2)\n    tag_19:\n      dup1\n      0xb5cdf924\n      eq\n      tag_10\n      jumpi\n      dup1\n      0xbca6ce64\n      eq\n      tag_11\n      jumpi\n      dup1\n      0xc6561a9c\n      eq\n      tag_12\n      jumpi\n      dup1\n      0xd96a094a\n      eq\n      tag_13\n      jumpi\n      jump(tag_2)\n    tag_18:\n      dup1\n      0x785e9e86\n      gt\n      tag_20\n      jumpi\n      dup1\n      0x785e9e86\n      eq\n      tag_6\n      jumpi\n      dup1\n      0x82367b2d\n      eq\n      tag_7\n      jumpi\n      dup1\n      0x9d4971b7\n      eq\n      tag_8\n      jumpi\n      dup1\n      0xa85c38ef\n      eq\n      tag_9\n      jumpi\n      jump(tag_2)\n    tag_20:\n      dup1\n      0x150b7a02\n      eq\n      tag_3\n      jumpi\n      dup1\n      0x40e58ee5\n      eq\n      tag_4\n      jumpi\n      dup1\n      0x629cb2e4\n      eq\n      tag_5\n      jumpi\n    tag_2:\n      0x00\n      dup1\n      revert\n        /* \"contracts/nft-market.sol\":2863:3528  function onERC721Received(... */\n    tag_3:\n      tag_21\n      0x04\n      dup1\n      calldatasize\n      sub\n      dup2\n      add\n      swap1\n      tag_22\n      swap2\n      swap1\n      tag_23\n      jump\t// in\n    tag_22:\n      tag_24\n      jump\t// in\n    tag_21:\n      mload(0x40)\n      tag_25\n      swap2\n      swap1\n      tag_26\n      jump\t// in\n    tag_25:\n      mload(0x40)\n      dup1\n      swap2\n      sub\n      swap1\n      return\n        /* \"contracts/nft-market.sol\":3553:4040  function cancel(uint256 tokenId) external {... */\n    tag_4:\n      tag_27\n      0x04\n      dup1\n      calldatasize\n      sub\n      dup2\n      add\n      swap1\n      tag_28\n      swap2\n      swap1\n      tag_29\n      jump\t// in\n    tag_28:\n      tag_30\n      jump\t// in\n    tag_27:\n      stop\n        /* \"contracts/nft-market.sol\":5626:6216  function getMyNFTs() public view returns (Order[] memory) {... */\n    tag_5:\n      tag_31\n      tag_32\n      jump\t// in\n    tag_31:\n      mload(0x40)\n      tag_33\n      swap2\n      swap1\n      tag_34\n      jump\t// in\n    tag_33:\n      mload(0x40)\n      dup1\n      swap2\n      sub\n      swap1\n      return\n        /* \"contracts/nft-market.sol\":343:372  IERC20 public immutable erc20 */\n    tag_6:\n      tag_35\n      tag_36\n      jump\t// in\n    tag_35:\n      mload(0x40)\n      tag_37\n      swap2\n      swap1\n      tag_38\n      jump\t// in\n    tag_37:\n      mload(0x40)\n      dup1\n      swap2\n      sub\n      swap1\n      return\n        /* \"contracts/nft-market.sol\":4071:4842  function updatePrice(uint256 _tokenId, uint256 newPrice) external {... */\n    tag_7:\n      tag_39\n      0x04\n      dup1\n      calldatasize\n      sub\n      dup2\n      add\n      swap1\n      tag_40\n      swap2\n      swap1\n      tag_41\n      jump\t// in\n    tag_40:\n      tag_42\n      jump\t// in\n    tag_39:\n      stop\n        /* \"contracts/nft-market.sol\":5182:5275  function getOrderLength() public view returns (uint256) {... */\n    tag_8:\n      tag_43\n      tag_44\n      jump\t// in\n    tag_43:\n      mload(0x40)\n      tag_45\n      swap2\n      swap1\n      tag_46\n      jump\t// in\n    tag_45:\n      mload(0x40)\n      dup1\n      swap2\n      sub\n      swap1\n      return\n        /* \"contracts/nft-market.sol\":589:610  Order[] public orders */\n    tag_9:\n      tag_47\n      0x04\n      dup1\n      calldatasize\n      sub\n      dup2\n      add\n      swap1\n      tag_48\n      swap2\n      swap1\n      tag_29\n      jump\t// in\n    tag_48:\n      tag_49\n      jump\t// in\n    tag_47:\n      mload(0x40)\n      tag_50\n      swap4\n      swap3\n      swap2\n      swap1\n      tag_51\n      jump\t// in\n    tag_50:\n      mload(0x40)\n      dup1\n      swap2\n      sub\n      swap1\n      return\n        /* \"contracts/nft-market.sol\":6922:7331  function toUint256(... */\n    tag_10:\n      tag_52\n      0x04\n      dup1\n      calldatasize\n      sub\n      dup2\n      add\n      swap1\n      tag_53\n      swap2\n      swap1\n      tag_54\n      jump\t// in\n    tag_53:\n      tag_55\n      jump\t// in\n    tag_52:\n      mload(0x40)\n      tag_56\n      swap2\n      swap1\n      tag_46\n      jump\t// in\n    tag_56:\n      mload(0x40)\n      dup1\n      swap2\n      sub\n      swap1\n      return\n        /* \"contracts/nft-market.sol\":378:409  IERC721 public immutable erc721 */\n    tag_11:\n      tag_57\n      tag_58\n      jump\t// in\n    tag_57:\n      mload(0x40)\n      tag_59\n      swap2\n      swap1\n      tag_60\n      jump\t// in\n    tag_59:\n      mload(0x40)\n      dup1\n      swap2\n      sub\n      swap1\n      return\n        /* \"contracts/nft-market.sol\":514:561  mapping(uint256 => Order) public orderOfTokenId */\n    tag_12:\n      tag_61\n      0x04\n      dup1\n      calldatasize\n      sub\n      dup2\n      add\n      swap1\n      tag_62\n      swap2\n      swap1\n      tag_29\n      jump\t// in\n    tag_62:\n      tag_63\n      jump\t// in\n    tag_61:\n      mload(0x40)\n      tag_64\n      swap4\n      swap3\n      swap2\n      swap1\n      tag_51\n      jump\t// in\n    tag_64:\n      mload(0x40)\n      dup1\n      swap2\n      sub\n      swap1\n      return\n        /* \"contracts/nft-market.sol\":1895:2637  function buy(uint256 tokenId) external {... */\n    tag_13:\n      tag_65\n      0x04\n      dup1\n      calldatasize\n      sub\n      dup2\n      add\n      swap1\n      tag_66\n      swap2\n      swap1\n      tag_29\n      jump\t// in\n    tag_66:\n      tag_67\n      jump\t// in\n    tag_65:\n      stop\n        /* \"contracts/nft-market.sol\":4873:4964  function getAllNFTs() external view returns (Order[] memory) {... */\n    tag_14:\n      tag_68\n      tag_69\n      jump\t// in\n    tag_68:\n      mload(0x40)\n      tag_70\n      swap2\n      swap1\n      tag_34\n      jump\t// in\n    tag_70:\n      mload(0x40)\n      dup1\n      swap2\n      sub\n      swap1\n      return\n        /* \"contracts/nft-market.sol\":5318:5581  function getOrderByTokenId(... */\n    tag_15:\n      tag_71\n      0x04\n      dup1\n      calldatasize\n      sub\n      dup2\n      add\n      swap1\n      tag_72\n      swap2\n      swap1\n      tag_29\n      jump\t// in\n    tag_72:\n      tag_73\n      jump\t// in\n    tag_71:\n      mload(0x40)\n      tag_74\n      swap2\n      swap1\n      tag_75\n      jump\t// in\n    tag_74:\n      mload(0x40)\n      dup1\n      swap2\n      sub\n      swap1\n      return\n        /* \"contracts/nft-market.sol\":664:718  mapping(uint256 => uint256) public orderIndexOfTokenId */\n    tag_16:\n      tag_76\n      0x04\n      dup1\n      calldatasize\n      sub\n      dup2\n      add\n      swap1\n      tag_77\n      swap2\n      swap1\n      tag_29\n      jump\t// in\n    tag_77:\n      tag_78\n      jump\t// in\n    tag_76:\n      mload(0x40)\n      tag_79\n      swap2\n      swap1\n      tag_46\n      jump\t// in\n    tag_79:\n      mload(0x40)\n      dup1\n      swap2\n      sub\n      swap1\n      return\n        /* \"contracts/nft-market.sol\":5016:5148  function isListed(uint256 _tokenId) public view returns (bool) {... */\n    tag_17:\n      tag_80\n      0x04\n      dup1\n      calldatasize\n      sub\n      dup2\n      add\n      swap1\n      tag_81\n      swap2\n      swap1\n      tag_29\n      jump\t// in\n    tag_81:\n      tag_82\n      jump\t// in\n    tag_80:\n      mload(0x40)\n      tag_83\n      swap2\n      swap1\n      tag_84\n      jump\t// in\n    tag_83:\n      mload(0x40)\n      dup1\n      swap2\n      sub\n      swap1\n      return\n        /* \"contracts/nft-market.sol\":2863:3528  function onERC721Received(... */\n    tag_24:\n        /* \"contracts/nft-market.sol\":3024:3030  bytes4 */\n      0x00\n        /* \"contracts/nft-market.sol\":3042:3052  uint price */\n      dup1\n        /* \"contracts/nft-market.sol\":3055:3073  toUint256(data, 0) */\n      tag_86\n        /* \"contracts/nft-market.sol\":3065:3069  data */\n      dup5\n      dup5\n        /* \"contracts/nft-market.sol\":3055:3073  toUint256(data, 0) */\n      dup1\n      dup1\n      0x1f\n      add\n      0x20\n      dup1\n      swap2\n      div\n      mul\n      0x20\n      add\n      mload(0x40)\n      swap1\n      dup2\n      add\n      0x40\n      mstore\n      dup1\n      swap4\n      swap3\n      swap2\n      swap1\n      dup2\n      dup2\n      mstore\n      0x20\n      add\n      dup4\n      dup4\n      dup1\n      dup3\n      dup5\n      calldatacopy\n      0x00\n      dup2\n      dup5\n      add\n      mstore\n      not(0x1f)\n      0x1f\n      dup3\n      add\n      and\n      swap1\n      pop\n      dup1\n      dup4\n      add\n      swap3\n      pop\n      pop\n      pop\n      pop\n      pop\n      pop\n      pop\n        /* \"contracts/nft-market.sol\":3071:3072  0 */\n      0x00\n        /* \"contracts/nft-market.sol\":3055:3064  toUint256 */\n      tag_55\n        /* \"contracts/nft-market.sol\":3055:3073  toUint256(data, 0) */\n      jump\t// in\n    tag_86:\n        /* \"contracts/nft-market.sol\":3042:3073  uint price = toUint256(data, 0) */\n      swap1\n      pop\n        /* \"contracts/nft-market.sol\":3134:3135  0 */\n      0x00\n        /* \"contracts/nft-market.sol\":3126:3131  price */\n      dup2\n        /* \"contracts/nft-market.sol\":3126:3135  price > 0 */\n      gt\n        /* \"contracts/nft-market.sol\":3118:3153  require(price > 0, \"Invalid price\") */\n      tag_87\n      jumpi\n      mload(0x40)\n      0x08c379a000000000000000000000000000000000000000000000000000000000\n      dup2\n      mstore\n      0x04\n      add\n      tag_88\n      swap1\n      tag_89\n      jump\t// in\n    tag_88:\n      mload(0x40)\n      dup1\n      swap2\n      sub\n      swap1\n      revert\n    tag_87:\n        /* \"contracts/nft-market.sol\":3218:3222  from */\n      dup6\n        /* \"contracts/nft-market.sol\":3206:3222  operator == from */\n      0xffffffffffffffffffffffffffffffffffffffff\n      and\n        /* \"contracts/nft-market.sol\":3206:3214  operator */\n      dup8\n        /* \"contracts/nft-market.sol\":3206:3222  operator == from */\n      0xffffffffffffffffffffffffffffffffffffffff\n      and\n      eq\n        /* \"contracts/nft-market.sol\":3198:3243  require(operator == from, \"Invalid operator\") */\n      tag_90\n      jumpi\n      mload(0x40)\n      0x08c379a000000000000000000000000000000000000000000000000000000000\n      dup2\n      mstore\n      0x04\n      add\n      tag_91\n      swap1\n      tag_92\n      jump\t// in\n    tag_91:\n      mload(0x40)\n      dup1\n      swap2\n      sub\n      swap1\n      revert\n    tag_90:\n        /* \"contracts/nft-market.sol\":3302:3329  Order(from, tokenId, price) */\n      mload(0x40)\n      dup1\n      0x60\n      add\n      0x40\n      mstore\n      dup1\n        /* \"contracts/nft-market.sol\":3308:3312  from */\n      dup8\n        /* \"contracts/nft-market.sol\":3302:3329  Order(from, tokenId, price) */\n      0xffffffffffffffffffffffffffffffffffffffff\n      and\n      dup2\n      mstore\n      0x20\n      add\n        /* \"contracts/nft-market.sol\":3314:3321  tokenId */\n      dup7\n        /* \"contracts/nft-market.sol\":3302:3329  Order(from, tokenId, price) */\n      dup2\n      mstore\n      0x20\n      add\n        /* \"contracts/nft-market.sol\":3323:3328  price */\n      dup3\n        /* \"contracts/nft-market.sol\":3302:3329  Order(from, tokenId, price) */\n      dup2\n      mstore\n      pop\n        /* \"contracts/nft-market.sol\":3276:3290  orderOfTokenId */\n      0x00\n        /* \"contracts/nft-market.sol\":3276:3299  orderOfTokenId[tokenId] */\n      dup1\n        /* \"contracts/nft-market.sol\":3291:3298  tokenId */\n      dup8\n        /* \"contracts/nft-market.sol\":3276:3299  orderOfTokenId[tokenId] */\n      dup2\n      mstore\n      0x20\n      add\n      swap1\n      dup2\n      mstore\n      0x20\n      add\n      0x00\n      keccak256\n        /* \"contracts/nft-market.sol\":3276:3329  orderOfTokenId[tokenId] = Order(from, tokenId, price) */\n      0x00\n      dup3\n      add\n      mload\n      dup2\n      0x00\n      add\n      exp(0x0100, 0x00)\n      dup2\n      sload\n      dup2\n      0xffffffffffffffffffffffffffffffffffffffff\n      mul\n      not\n      and\n      swap1\n      dup4\n      0xffffffffffffffffffffffffffffffffffffffff\n      and\n      mul\n      or\n      swap1\n      sstore\n      pop\n      0x20\n      dup3\n      add\n      mload\n      dup2\n      0x01\n      add\n      sstore\n      0x40\n      dup3\n      add\n      mload\n      dup2\n      0x02\n      add\n      sstore\n      swap1\n      pop\n      pop\n        /* \"contracts/nft-market.sol\":3340:3346  orders */\n      0x01\n        /* \"contracts/nft-market.sol\":3352:3366  orderOfTokenId */\n      0x00\n        /* \"contracts/nft-market.sol\":3352:3375  orderOfTokenId[tokenId] */\n      dup1\n        /* \"contracts/nft-market.sol\":3367:3374  tokenId */\n      dup8\n        /* \"contracts/nft-market.sol\":3352:3375  orderOfTokenId[tokenId] */\n      dup2\n      mstore\n      0x20\n      add\n      swap1\n      dup2\n      mstore\n      0x20\n      add\n      0x00\n      keccak256\n        /* \"contracts/nft-market.sol\":3340:3376  orders.push(orderOfTokenId[tokenId]) */\n      swap1\n      dup1\n      0x01\n      dup2\n      sload\n      add\n      dup1\n      dup3\n      sstore\n      dup1\n      swap2\n      pop\n      pop\n      0x01\n      swap1\n      sub\n      swap1\n      0x00\n      mstore\n      keccak256(0x00, 0x20)\n      swap1\n      0x03\n      mul\n      add\n      0x00\n      swap1\n      swap2\n      swap1\n      swap2\n      swap1\n      swap2\n      pop\n      0x00\n      dup3\n      add\n      0x00\n      swap1\n      sload\n      swap1\n      0x0100\n      exp\n      swap1\n      div\n      0xffffffffffffffffffffffffffffffffffffffff\n      and\n      dup2\n      0x00\n      add\n      exp(0x0100, 0x00)\n      dup2\n      sload\n      dup2\n      0xffffffffffffffffffffffffffffffffffffffff\n      mul\n      not\n      and\n      swap1\n      dup4\n      0xffffffffffffffffffffffffffffffffffffffff\n      and\n      mul\n      or\n      swap1\n      sstore\n      pop\n      0x01\n      dup3\n      add\n      sload\n      dup2\n      0x01\n      add\n      sstore\n      0x02\n      dup3\n      add\n      sload\n      dup2\n      0x02\n      add\n      sstore\n      pop\n      pop\n        /* \"contracts/nft-market.sol\":3433:3434  1 */\n      0x01\n        /* \"contracts/nft-market.sol\":3417:3423  orders */\n      dup1\n        /* \"contracts/nft-market.sol\":3417:3430  orders.length */\n      dup1\n      sload\n      swap1\n      pop\n        /* \"contracts/nft-market.sol\":3417:3434  orders.length - 1 */\n      tag_94\n      swap2\n      swap1\n      tag_95\n      jump\t// in\n    tag_94:\n        /* \"contracts/nft-market.sol\":3386:3405  orderIndexOfTokenId */\n      0x02\n        /* \"contracts/nft-market.sol\":3386:3414  orderIndexOfTokenId[tokenId] */\n      0x00\n        /* \"contracts/nft-market.sol\":3406:3413  tokenId */\n      dup8\n        /* \"contracts/nft-market.sol\":3386:3414  orderIndexOfTokenId[tokenId] */\n      dup2\n      mstore\n      0x20\n      add\n      swap1\n      dup2\n      mstore\n      0x20\n      add\n      0x00\n      keccak256\n        /* \"contracts/nft-market.sol\":3386:3434  orderIndexOfTokenId[tokenId] = orders.length - 1 */\n      dup2\n      swap1\n      sstore\n      pop\n        /* \"contracts/nft-market.sol\":3465:3472  tokenId */\n      dup5\n        /* \"contracts/nft-market.sol\":3459:3463  from */\n      dup7\n        /* \"contracts/nft-market.sol\":3450:3480  NewOrder(from, tokenId, price) */\n      0xffffffffffffffffffffffffffffffffffffffff\n      and\n      0xd5b509e657d5ec37ae4bdcab658b7340c0453bb630516d26623359a34c1cecf3\n        /* \"contracts/nft-market.sol\":3474:3479  price */\n      dup4\n        /* \"contracts/nft-market.sol\":3450:3480  NewOrder(from, tokenId, price) */\n      mload(0x40)\n      tag_96\n      swap2\n      swap1\n      tag_46\n      jump\t// in\n    tag_96:\n      mload(0x40)\n      dup1\n      swap2\n      sub\n      swap1\n      log3\n        /* \"contracts/nft-market.sol\":936:946  0x150b7a02 */\n      0x150b7a02\n        /* \"contracts/nft-market.sol\":3497:3521  MAGIC_ON_ERC721_RECEIVED */\n      0xe0\n      shl\n        /* \"contracts/nft-market.sol\":3490:3521  return MAGIC_ON_ERC721_RECEIVED */\n      swap2\n      pop\n      pop\n        /* \"contracts/nft-market.sol\":2863:3528  function onERC721Received(... */\n      swap6\n      swap5\n      pop\n      pop\n      pop\n      pop\n      pop\n      jump\t// out\n        /* \"contracts/nft-market.sol\":3553:4040  function cancel(uint256 tokenId) external {... */\n    tag_30:\n        /* \"contracts/nft-market.sol\":3628:3647  Order storage order */\n      0x00\n        /* \"contracts/nft-market.sol\":3650:3664  orderOfTokenId */\n      dup1\n        /* \"contracts/nft-market.sol\":3650:3673  orderOfTokenId[tokenId] */\n      0x00\n        /* \"contracts/nft-market.sol\":3665:3672  tokenId */\n      dup4\n        /* \"contracts/nft-market.sol\":3650:3673  orderOfTokenId[tokenId] */\n      dup2\n      mstore\n      0x20\n      add\n      swap1\n      dup2\n      mstore\n      0x20\n      add\n      0x00\n      keccak256\n        /* \"contracts/nft-market.sol\":3628:3673  Order storage order = orderOfTokenId[tokenId] */\n      swap1\n      pop\n        /* \"contracts/nft-market.sol\":3750:3751  0 */\n      0x00\n        /* \"contracts/nft-market.sol\":3726:3752  order.seller != address(0) */\n      0xffffffffffffffffffffffffffffffffffffffff\n      and\n        /* \"contracts/nft-market.sol\":3726:3731  order */\n      dup2\n        /* \"contracts/nft-market.sol\":3726:3738  order.seller */\n      0x00\n      add\n      0x00\n      swap1\n      sload\n      swap1\n      0x0100\n      exp\n      swap1\n      div\n      0xffffffffffffffffffffffffffffffffffffffff\n      and\n        /* \"contracts/nft-market.sol\":3726:3752  order.seller != address(0) */\n      0xffffffffffffffffffffffffffffffffffffffff\n      and\n      sub\n        /* \"contracts/nft-market.sol\":3718:3777  require(order.seller != address(0), \"Order does not exist\") */\n      tag_98\n      jumpi\n      mload(0x40)\n      0x08c379a000000000000000000000000000000000000000000000000000000000\n      dup2\n      mstore\n      0x04\n      add\n      tag_99\n      swap1\n      tag_100\n      jump\t// in\n    tag_99:\n      mload(0x40)\n      dup1\n      swap2\n      sub\n      swap1\n      revert\n    tag_98:\n        /* \"contracts/nft-market.sol\":3855:3865  msg.sender */\n      caller\n        /* \"contracts/nft-market.sol\":3839:3865  order.seller == msg.sender */\n      0xffffffffffffffffffffffffffffffffffffffff\n      and\n        /* \"contracts/nft-market.sol\":3839:3844  order */\n      dup2\n        /* \"contracts/nft-market.sol\":3839:3851  order.seller */\n      0x00\n      add\n      0x00\n      swap1\n      sload\n      swap1\n      0x0100\n      exp\n      swap1\n      div\n      0xffffffffffffffffffffffffffffffffffffffff\n      and\n        /* \"contracts/nft-market.sol\":3839:3865  order.seller == msg.sender */\n      0xffffffffffffffffffffffffffffffffffffffff\n      and\n      eq\n        /* \"contracts/nft-market.sol\":3831:3896  require(order.seller == msg.sender, \"Not the owner of the order\") */\n      tag_101\n      jumpi\n      mload(0x40)\n      0x08c379a000000000000000000000000000000000000000000000000000000000\n      dup2\n      mstore\n      0x04\n      add\n      tag_102\n      swap1\n      tag_103\n      jump\t// in\n    tag_102:\n      mload(0x40)\n      dup1\n      swap2\n      sub\n      swap1\n      revert\n    tag_101:\n        /* \"contracts/nft-market.sol\":3929:3951  removeListing(tokenId) */\n      tag_104\n        /* \"contracts/nft-market.sol\":3943:3950  tokenId */\n      dup3\n        /* \"contracts/nft-market.sol\":3929:3942  removeListing */\n      tag_105\n        /* \"contracts/nft-market.sol\":3929:3951  removeListing(tokenId) */\n      jump\t// in\n    tag_104:\n        /* \"contracts/nft-market.sol\":4025:4032  tokenId */\n      dup2\n        /* \"contracts/nft-market.sol\":4013:4023  msg.sender */\n      caller\n        /* \"contracts/nft-market.sol\":4001:4033  CancelOrder(msg.sender, tokenId) */\n      0xffffffffffffffffffffffffffffffffffffffff\n      and\n      0xc0e68d6b69f741c21e955cad2ae4d505b6f6735c7e7b278251b3f6283a5f07eb\n      mload(0x40)\n      mload(0x40)\n      dup1\n      swap2\n      sub\n      swap1\n      log3\n        /* \"contracts/nft-market.sol\":3595:4040  {... */\n      pop\n        /* \"contracts/nft-market.sol\":3553:4040  function cancel(uint256 tokenId) external {... */\n      pop\n      jump\t// out\n        /* \"contracts/nft-market.sol\":5626:6216  function getMyNFTs() public view returns (Order[] memory) {... */\n    tag_32:\n        /* \"contracts/nft-market.sol\":5668:5682  Order[] memory */\n      0x60\n        /* \"contracts/nft-market.sol\":5694:5717  Order[] memory myOrders */\n      0x00\n        /* \"contracts/nft-market.sol\":5732:5738  orders */\n      0x01\n        /* \"contracts/nft-market.sol\":5732:5745  orders.length */\n      dup1\n      sload\n      swap1\n      pop\n        /* \"contracts/nft-market.sol\":5720:5746  new Order[](orders.length) */\n      0xffffffffffffffff\n      dup2\n      gt\n      iszero\n      tag_107\n      jumpi\n      tag_108\n      tag_109\n      jump\t// in\n    tag_108:\n    tag_107:\n      mload(0x40)\n      swap1\n      dup1\n      dup3\n      mstore\n      dup1\n      0x20\n      mul\n      0x20\n      add\n      dup3\n      add\n      0x40\n      mstore\n      dup1\n      iszero\n      tag_110\n      jumpi\n      dup2\n      0x20\n      add\n    tag_111:\n      tag_112\n      tag_113\n      jump\t// in\n    tag_112:\n      dup2\n      mstore\n      0x20\n      add\n      swap1\n      0x01\n      swap1\n      sub\n      swap1\n      dup2\n      tag_111\n      jumpi\n      swap1\n      pop\n    tag_110:\n      pop\n        /* \"contracts/nft-market.sol\":5694:5746  Order[] memory myOrders = new Order[](orders.length) */\n      swap1\n      pop\n        /* \"contracts/nft-market.sol\":5756:5777  uint256 myOrdersCount */\n      0x00\n        /* \"contracts/nft-market.sol\":5797:5806  uint256 i */\n      dup1\n        /* \"contracts/nft-market.sol\":5792:5997  for (uint256 i = 0; i < orders.length; i++) {... */\n    tag_114:\n        /* \"contracts/nft-market.sol\":5816:5822  orders */\n      0x01\n        /* \"contracts/nft-market.sol\":5816:5829  orders.length */\n      dup1\n      sload\n      swap1\n      pop\n        /* \"contracts/nft-market.sol\":5812:5813  i */\n      dup2\n        /* \"contracts/nft-market.sol\":5812:5829  i < orders.length */\n      lt\n        /* \"contracts/nft-market.sol\":5792:5997  for (uint256 i = 0; i < orders.length; i++) {... */\n      iszero\n      tag_115\n      jumpi\n        /* \"contracts/nft-market.sol\":5874:5884  msg.sender */\n      caller\n        /* \"contracts/nft-market.sol\":5854:5884  orders[i].seller == msg.sender */\n      0xffffffffffffffffffffffffffffffffffffffff\n      and\n        /* \"contracts/nft-market.sol\":5854:5860  orders */\n      0x01\n        /* \"contracts/nft-market.sol\":5861:5862  i */\n      dup3\n        /* \"contracts/nft-market.sol\":5854:5863  orders[i] */\n      dup2\n      sload\n      dup2\n      lt\n      tag_117\n      jumpi\n      tag_118\n      tag_119\n      jump\t// in\n    tag_118:\n    tag_117:\n      swap1\n      0x00\n      mstore\n      keccak256(0x00, 0x20)\n      swap1\n      0x03\n      mul\n      add\n        /* \"contracts/nft-market.sol\":5854:5870  orders[i].seller */\n      0x00\n      add\n      0x00\n      swap1\n      sload\n      swap1\n      0x0100\n      exp\n      swap1\n      div\n      0xffffffffffffffffffffffffffffffffffffffff\n      and\n        /* \"contracts/nft-market.sol\":5854:5884  orders[i].seller == msg.sender */\n      0xffffffffffffffffffffffffffffffffffffffff\n      and\n      sub\n        /* \"contracts/nft-market.sol\":5850:5987  if (orders[i].seller == msg.sender) {... */\n      tag_121\n      jumpi\n        /* \"contracts/nft-market.sol\":5930:5936  orders */\n      0x01\n        /* \"contracts/nft-market.sol\":5937:5938  i */\n      dup2\n        /* \"contracts/nft-market.sol\":5930:5939  orders[i] */\n      dup2\n      sload\n      dup2\n      lt\n      tag_122\n      jumpi\n      tag_123\n      tag_119\n      jump\t// in\n    tag_123:\n    tag_122:\n      swap1\n      0x00\n      mstore\n      keccak256(0x00, 0x20)\n      swap1\n      0x03\n      mul\n      add\n        /* \"contracts/nft-market.sol\":5904:5939  myOrders[myOrdersCount] = orders[i] */\n      mload(0x40)\n      dup1\n      0x60\n      add\n      0x40\n      mstore\n      swap1\n      dup2\n      0x00\n      dup3\n      add\n      0x00\n      swap1\n      sload\n      swap1\n      0x0100\n      exp\n      swap1\n      div\n      0xffffffffffffffffffffffffffffffffffffffff\n      and\n      0xffffffffffffffffffffffffffffffffffffffff\n      and\n      0xffffffffffffffffffffffffffffffffffffffff\n      and\n      dup2\n      mstore\n      0x20\n      add\n      0x01\n      dup3\n      add\n      sload\n      dup2\n      mstore\n      0x20\n      add\n      0x02\n      dup3\n      add\n      sload\n      dup2\n      mstore\n      pop\n      pop\n        /* \"contracts/nft-market.sol\":5904:5912  myOrders */\n      dup4\n        /* \"contracts/nft-market.sol\":5913:5926  myOrdersCount */\n      dup4\n        /* \"contracts/nft-market.sol\":5904:5927  myOrders[myOrdersCount] */\n      dup2\n      mload\n      dup2\n      lt\n      tag_125\n      jumpi\n      tag_126\n      tag_119\n      jump\t// in\n    tag_126:\n    tag_125:\n      0x20\n      mul\n      0x20\n      add\n      add\n        /* \"contracts/nft-market.sol\":5904:5939  myOrders[myOrdersCount] = orders[i] */\n      dup2\n      swap1\n      mstore\n      pop\n        /* \"contracts/nft-market.sol\":5957:5972  myOrdersCount++ */\n      dup2\n      dup1\n      tag_127\n      swap1\n      tag_128\n      jump\t// in\n    tag_127:\n      swap3\n      pop\n      pop\n        /* \"contracts/nft-market.sol\":5850:5987  if (orders[i].seller == msg.sender) {... */\n    tag_121:\n        /* \"contracts/nft-market.sol\":5831:5834  i++ */\n      dup1\n      dup1\n      0x01\n      add\n      swap2\n      pop\n      pop\n        /* \"contracts/nft-market.sol\":5792:5997  for (uint256 i = 0; i < orders.length; i++) {... */\n      jump(tag_114)\n    tag_115:\n      pop\n        /* \"contracts/nft-market.sol\":6007:6037  Order[] memory myOrdersTrimmed */\n      0x00\n        /* \"contracts/nft-market.sol\":6052:6065  myOrdersCount */\n      dup2\n        /* \"contracts/nft-market.sol\":6040:6066  new Order[](myOrdersCount) */\n      0xffffffffffffffff\n      dup2\n      gt\n      iszero\n      tag_129\n      jumpi\n      tag_130\n      tag_109\n      jump\t// in\n    tag_130:\n    tag_129:\n      mload(0x40)\n      swap1\n      dup1\n      dup3\n      mstore\n      dup1\n      0x20\n      mul\n      0x20\n      add\n      dup3\n      add\n      0x40\n      mstore\n      dup1\n      iszero\n      tag_131\n      jumpi\n      dup2\n      0x20\n      add\n    tag_132:\n      tag_133\n      tag_113\n      jump\t// in\n    tag_133:\n      dup2\n      mstore\n      0x20\n      add\n      swap1\n      0x01\n      swap1\n      sub\n      swap1\n      dup2\n      tag_132\n      jumpi\n      swap1\n      pop\n    tag_131:\n      pop\n        /* \"contracts/nft-market.sol\":6007:6066  Order[] memory myOrdersTrimmed = new Order[](myOrdersCount) */\n      swap1\n      pop\n        /* \"contracts/nft-market.sol\":6081:6090  uint256 i */\n      0x00\n        /* \"contracts/nft-market.sol\":6076:6177  for (uint256 i = 0; i < myOrdersCount; i++) {... */\n    tag_134:\n        /* \"contracts/nft-market.sol\":6100:6113  myOrdersCount */\n      dup3\n        /* \"contracts/nft-market.sol\":6096:6097  i */\n      dup2\n        /* \"contracts/nft-market.sol\":6096:6113  i < myOrdersCount */\n      lt\n        /* \"contracts/nft-market.sol\":6076:6177  for (uint256 i = 0; i < myOrdersCount; i++) {... */\n      iszero\n      tag_135\n      jumpi\n        /* \"contracts/nft-market.sol\":6155:6163  myOrders */\n      dup4\n        /* \"contracts/nft-market.sol\":6164:6165  i */\n      dup2\n        /* \"contracts/nft-market.sol\":6155:6166  myOrders[i] */\n      dup2\n      mload\n      dup2\n      lt\n      tag_137\n      jumpi\n      tag_138\n      tag_119\n      jump\t// in\n    tag_138:\n    tag_137:\n      0x20\n      mul\n      0x20\n      add\n      add\n      mload\n        /* \"contracts/nft-market.sol\":6134:6149  myOrdersTrimmed */\n      dup3\n        /* \"contracts/nft-market.sol\":6150:6151  i */\n      dup3\n        /* \"contracts/nft-market.sol\":6134:6152  myOrdersTrimmed[i] */\n      dup2\n      mload\n      dup2\n      lt\n      tag_139\n      jumpi\n      tag_140\n      tag_119\n      jump\t// in\n    tag_140:\n    tag_139:\n      0x20\n      mul\n      0x20\n      add\n      add\n        /* \"contracts/nft-market.sol\":6134:6166  myOrdersTrimmed[i] = myOrders[i] */\n      dup2\n      swap1\n      mstore\n      pop\n        /* \"contracts/nft-market.sol\":6115:6118  i++ */\n      dup1\n      dup1\n      0x01\n      add\n      swap2\n      pop\n      pop\n        /* \"contracts/nft-market.sol\":6076:6177  for (uint256 i = 0; i < myOrdersCount; i++) {... */\n      jump(tag_134)\n    tag_135:\n      pop\n        /* \"contracts/nft-market.sol\":6194:6209  myOrdersTrimmed */\n      dup1\n        /* \"contracts/nft-market.sol\":6187:6209  return myOrdersTrimmed */\n      swap4\n      pop\n      pop\n      pop\n      pop\n        /* \"contracts/nft-market.sol\":5626:6216  function getMyNFTs() public view returns (Order[] memory) {... */\n      swap1\n      jump\t// out\n        /* \"contracts/nft-market.sol\":343:372  IERC20 public immutable erc20 */\n    tag_36:\n      immutable(\"0x1615de156c662ff72892fae17ce471b57fc12c99ad066f4eb8422085be4080ba\")\n      dup2\n      jump\t// out\n        /* \"contracts/nft-market.sol\":4071:4842  function updatePrice(uint256 _tokenId, uint256 newPrice) external {... */\n    tag_42:\n        /* \"contracts/nft-market.sol\":4190:4208  isListed(_tokenId) */\n      tag_142\n        /* \"contracts/nft-market.sol\":4199:4207  _tokenId */\n      dup3\n        /* \"contracts/nft-market.sol\":4190:4198  isListed */\n      tag_82\n        /* \"contracts/nft-market.sol\":4190:4208  isListed(_tokenId) */\n      jump\t// in\n    tag_142:\n        /* \"contracts/nft-market.sol\":4182:4243  require(isListed(_tokenId), \"Market: Token ID is not listed\") */\n      tag_143\n      jumpi\n      mload(0x40)\n      0x08c379a000000000000000000000000000000000000000000000000000000000\n      dup2\n      mstore\n      0x04\n      add\n      tag_144\n      swap1\n      tag_145\n      jump\t// in\n    tag_144:\n      mload(0x40)\n      dup1\n      swap2\n      sub\n      swap1\n      revert\n    tag_143:\n        /* \"contracts/nft-market.sol\":4276:4295  Order storage order */\n      0x00\n        /* \"contracts/nft-market.sol\":4298:4312  orderOfTokenId */\n      dup1\n        /* \"contracts/nft-market.sol\":4298:4322  orderOfTokenId[_tokenId] */\n      0x00\n        /* \"contracts/nft-market.sol\":4313:4321  _tokenId */\n      dup5\n        /* \"contracts/nft-market.sol\":4298:4322  orderOfTokenId[_tokenId] */\n      dup2\n      mstore\n      0x20\n      add\n      swap1\n      dup2\n      mstore\n      0x20\n      add\n      0x00\n      keccak256\n        /* \"contracts/nft-market.sol\":4276:4322  Order storage order = orderOfTokenId[_tokenId] */\n      swap1\n      pop\n        /* \"contracts/nft-market.sol\":4332:4348  uint256 oldPrice */\n      0x00\n        /* \"contracts/nft-market.sol\":4351:4356  order */\n      dup2\n        /* \"contracts/nft-market.sol\":4351:4362  order.price */\n      0x02\n      add\n      sload\n        /* \"contracts/nft-market.sol\":4332:4362  uint256 oldPrice = order.price */\n      swap1\n      pop\n        /* \"contracts/nft-market.sol\":4440:4450  msg.sender */\n      caller\n        /* \"contracts/nft-market.sol\":4424:4450  order.seller == msg.sender */\n      0xffffffffffffffffffffffffffffffffffffffff\n      and\n        /* \"contracts/nft-market.sol\":4424:4429  order */\n      dup3\n        /* \"contracts/nft-market.sol\":4424:4436  order.seller */\n      0x00\n      add\n      0x00\n      swap1\n      sload\n      swap1\n      0x0100\n      exp\n      swap1\n      div\n      0xffffffffffffffffffffffffffffffffffffffff\n      and\n        /* \"contracts/nft-market.sol\":4424:4450  order.seller == msg.sender */\n      0xffffffffffffffffffffffffffffffffffffffff\n      and\n      eq\n        /* \"contracts/nft-market.sol\":4416:4481  require(order.seller == msg.sender, \"Not the owner of the order\") */\n      tag_146\n      jumpi\n      mload(0x40)\n      0x08c379a000000000000000000000000000000000000000000000000000000000\n      dup2\n      mstore\n      0x04\n      add\n      tag_147\n      swap1\n      tag_103\n      jump\t// in\n    tag_147:\n      mload(0x40)\n      dup1\n      swap2\n      sub\n      swap1\n      revert\n    tag_146:\n        /* \"contracts/nft-market.sol\":4548:4549  0 */\n      0x00\n        /* \"contracts/nft-market.sol\":4537:4545  newPrice */\n      dup4\n        /* \"contracts/nft-market.sol\":4537:4549  newPrice > 0 */\n      gt\n        /* \"contracts/nft-market.sol\":4529:4567  require(newPrice > 0, \"Invalid price\") */\n      tag_148\n      jumpi\n      mload(0x40)\n      0x08c379a000000000000000000000000000000000000000000000000000000000\n      dup2\n      mstore\n      0x04\n      add\n      tag_149\n      swap1\n      tag_89\n      jump\t// in\n    tag_149:\n      mload(0x40)\n      dup1\n      swap2\n      sub\n      swap1\n      revert\n    tag_148:\n        /* \"contracts/nft-market.sol\":4620:4628  newPrice */\n      dup3\n        /* \"contracts/nft-market.sol\":4606:4611  order */\n      dup3\n        /* \"contracts/nft-market.sol\":4606:4617  order.price */\n      0x02\n      add\n        /* \"contracts/nft-market.sol\":4606:4628  order.price = newPrice */\n      dup2\n      swap1\n      sstore\n      pop\n        /* \"contracts/nft-market.sol\":4638:4653  Order storage o */\n      0x00\n        /* \"contracts/nft-market.sol\":4656:4662  orders */\n      0x01\n        /* \"contracts/nft-market.sol\":4663:4682  orderIndexOfTokenId */\n      0x02\n        /* \"contracts/nft-market.sol\":4663:4692  orderIndexOfTokenId[_tokenId] */\n      0x00\n        /* \"contracts/nft-market.sol\":4683:4691  _tokenId */\n      dup8\n        /* \"contracts/nft-market.sol\":4663:4692  orderIndexOfTokenId[_tokenId] */\n      dup2\n      mstore\n      0x20\n      add\n      swap1\n      dup2\n      mstore\n      0x20\n      add\n      0x00\n      keccak256\n      sload\n        /* \"contracts/nft-market.sol\":4656:4693  orders[orderIndexOfTokenId[_tokenId]] */\n      dup2\n      sload\n      dup2\n      lt\n      tag_150\n      jumpi\n      tag_151\n      tag_119\n      jump\t// in\n    tag_151:\n    tag_150:\n      swap1\n      0x00\n      mstore\n      keccak256(0x00, 0x20)\n      swap1\n      0x03\n      mul\n      add\n        /* \"contracts/nft-market.sol\":4638:4693  Order storage o = orders[orderIndexOfTokenId[_tokenId]] */\n      swap1\n      pop\n        /* \"contracts/nft-market.sol\":4713:4721  newPrice */\n      dup4\n        /* \"contracts/nft-market.sol\":4703:4704  o */\n      dup2\n        /* \"contracts/nft-market.sol\":4703:4710  o.price */\n      0x02\n      add\n        /* \"contracts/nft-market.sol\":4703:4721  o.price = newPrice */\n      dup2\n      swap1\n      sstore\n      pop\n        /* \"contracts/nft-market.sol\":4806:4814  _tokenId */\n      dup5\n        /* \"contracts/nft-market.sol\":4794:4804  msg.sender */\n      caller\n        /* \"contracts/nft-market.sol\":4777:4835  UpdateOrderPrice(msg.sender, _tokenId, oldPrice, newPrice) */\n      0xffffffffffffffffffffffffffffffffffffffff\n      and\n      0x80bfb1c2c88c39acd1902f520205cd407abd405310c1a96e5b7fa2dbec270b4e\n        /* \"contracts/nft-market.sol\":4816:4824  oldPrice */\n      dup5\n        /* \"contracts/nft-market.sol\":4826:4834  newPrice */\n      dup8\n        /* \"contracts/nft-market.sol\":4777:4835  UpdateOrderPrice(msg.sender, _tokenId, oldPrice, newPrice) */\n      mload(0x40)\n      tag_153\n      swap3\n      swap2\n      swap1\n      tag_154\n      jump\t// in\n    tag_153:\n      mload(0x40)\n      dup1\n      swap2\n      sub\n      swap1\n      log3\n        /* \"contracts/nft-market.sol\":4137:4842  {... */\n      pop\n      pop\n      pop\n        /* \"contracts/nft-market.sol\":4071:4842  function updatePrice(uint256 _tokenId, uint256 newPrice) external {... */\n      pop\n      pop\n      jump\t// out\n        /* \"contracts/nft-market.sol\":5182:5275  function getOrderLength() public view returns (uint256) {... */\n    tag_44:\n        /* \"contracts/nft-market.sol\":5229:5236  uint256 */\n      0x00\n        /* \"contracts/nft-market.sol\":5255:5261  orders */\n      0x01\n        /* \"contracts/nft-market.sol\":5255:5268  orders.length */\n      dup1\n      sload\n      swap1\n      pop\n        /* \"contracts/nft-market.sol\":5248:5268  return orders.length */\n      swap1\n      pop\n        /* \"contracts/nft-market.sol\":5182:5275  function getOrderLength() public view returns (uint256) {... */\n      swap1\n      jump\t// out\n        /* \"contracts/nft-market.sol\":589:610  Order[] public orders */\n    tag_49:\n      0x01\n      dup2\n      dup2\n      sload\n      dup2\n      lt\n      tag_156\n      jumpi\n      0x00\n      dup1\n      revert\n    tag_156:\n      swap1\n      0x00\n      mstore\n      keccak256(0x00, 0x20)\n      swap1\n      0x03\n      mul\n      add\n      0x00\n      swap2\n      pop\n      swap1\n      pop\n      dup1\n      0x00\n      add\n      0x00\n      swap1\n      sload\n      swap1\n      0x0100\n      exp\n      swap1\n      div\n      0xffffffffffffffffffffffffffffffffffffffff\n      and\n      swap1\n      dup1\n      0x01\n      add\n      sload\n      swap1\n      dup1\n      0x02\n      add\n      sload\n      swap1\n      pop\n      dup4\n      jump\t// out\n        /* \"contracts/nft-market.sol\":6922:7331  function toUint256(... */\n    tag_55:\n        /* \"contracts/nft-market.sol\":7021:7028  uint256 */\n      0x00\n        /* \"contracts/nft-market.sol\":7063:7069  _start */\n      dup2\n        /* \"contracts/nft-market.sol\":7057:7059  32 */\n      0x20\n        /* \"contracts/nft-market.sol\":7048:7054  _start */\n      dup4\n        /* \"contracts/nft-market.sol\":7048:7059  _start + 32 */\n      tag_159\n      swap2\n      swap1\n      tag_160\n      jump\t// in\n    tag_159:\n        /* \"contracts/nft-market.sol\":7048:7069  _start + 32 >= _start */\n      lt\n      iszero\n        /* \"contracts/nft-market.sol\":7040:7100  require(_start + 32 >= _start, \"Market: toUint256_overflow\") */\n      tag_161\n      jumpi\n      mload(0x40)\n      0x08c379a000000000000000000000000000000000000000000000000000000000\n      dup2\n      mstore\n      0x04\n      add\n      tag_162\n      swap1\n      tag_163\n      jump\t// in\n    tag_162:\n      mload(0x40)\n      dup1\n      swap2\n      sub\n      swap1\n      revert\n    tag_161:\n        /* \"contracts/nft-market.sol\":7144:7146  32 */\n      0x20\n        /* \"contracts/nft-market.sol\":7135:7141  _start */\n      dup3\n        /* \"contracts/nft-market.sol\":7135:7146  _start + 32 */\n      tag_164\n      swap2\n      swap1\n      tag_160\n      jump\t// in\n    tag_164:\n        /* \"contracts/nft-market.sol\":7118:7124  _bytes */\n      dup4\n        /* \"contracts/nft-market.sol\":7118:7131  _bytes.length */\n      mload\n        /* \"contracts/nft-market.sol\":7118:7146  _bytes.length >= _start + 32 */\n      lt\n      iszero\n        /* \"contracts/nft-market.sol\":7110:7180  require(_bytes.length >= _start + 32, \"Market: toUint256_outOfBounds\") */\n      tag_165\n      jumpi\n      mload(0x40)\n      0x08c379a000000000000000000000000000000000000000000000000000000000\n      dup2\n      mstore\n      0x04\n      add\n      tag_166\n      swap1\n      tag_167\n      jump\t// in\n    tag_166:\n      mload(0x40)\n      dup1\n      swap2\n      sub\n      swap1\n      revert\n    tag_165:\n        /* \"contracts/nft-market.sol\":7190:7206  uint256 tempUint */\n      0x00\n        /* \"contracts/nft-market.sol\":7281:7287  _start */\n      dup3\n        /* \"contracts/nft-market.sol\":7274:7278  0x20 */\n      0x20\n        /* \"contracts/nft-market.sol\":7266:7272  _bytes */\n      dup6\n        /* \"contracts/nft-market.sol\":7262:7279  add(_bytes, 0x20) */\n      add\n        /* \"contracts/nft-market.sol\":7258:7288  add(add(_bytes, 0x20), _start) */\n      add\n        /* \"contracts/nft-market.sol\":7252:7289  mload(add(add(_bytes, 0x20), _start)) */\n      mload\n        /* \"contracts/nft-market.sol\":7240:7289  tempUint := mload(add(add(_bytes, 0x20), _start)) */\n      swap1\n      pop\n        /* \"contracts/nft-market.sol\":7316:7324  tempUint */\n      dup1\n        /* \"contracts/nft-market.sol\":7309:7324  return tempUint */\n      swap2\n      pop\n      pop\n        /* \"contracts/nft-market.sol\":6922:7331  function toUint256(... */\n      swap3\n      swap2\n      pop\n      pop\n      jump\t// out\n        /* \"contracts/nft-market.sol\":378:409  IERC721 public immutable erc721 */\n    tag_58:\n      immutable(\"0x188e5a5b71233ee092fd8df209d4e7ce875dc9914c3b80c1ca11c66b0a19f684\")\n      dup2\n      jump\t// out\n        /* \"contracts/nft-market.sol\":514:561  mapping(uint256 => Order) public orderOfTokenId */\n    tag_63:\n      mstore(0x20, 0x00)\n      dup1\n      0x00\n      mstore\n      keccak256(0x00, 0x40)\n      0x00\n      swap2\n      pop\n      swap1\n      pop\n      dup1\n      0x00\n      add\n      0x00\n      swap1\n      sload\n      swap1\n      0x0100\n      exp\n      swap1\n      div\n      0xffffffffffffffffffffffffffffffffffffffff\n      and\n      swap1\n      dup1\n      0x01\n      add\n      sload\n      swap1\n      dup1\n      0x02\n      add\n      sload\n      swap1\n      pop\n      dup4\n      jump\t// out\n        /* \"contracts/nft-market.sol\":1895:2637  function buy(uint256 tokenId) external {... */\n    tag_67:\n        /* \"contracts/nft-market.sol\":1952:1969  isListed(tokenId) */\n      tag_169\n        /* \"contracts/nft-market.sol\":1961:1968  tokenId */\n      dup2\n        /* \"contracts/nft-market.sol\":1952:1960  isListed */\n      tag_82\n        /* \"contracts/nft-market.sol\":1952:1969  isListed(tokenId) */\n      jump\t// in\n    tag_169:\n        /* \"contracts/nft-market.sol\":1944:2004  require(isListed(tokenId), \"Market: Token ID is not listed\") */\n      tag_170\n      jumpi\n      mload(0x40)\n      0x08c379a000000000000000000000000000000000000000000000000000000000\n      dup2\n      mstore\n      0x04\n      add\n      tag_171\n      swap1\n      tag_145\n      jump\t// in\n    tag_171:\n      mload(0x40)\n      dup1\n      swap2\n      sub\n      swap1\n      revert\n    tag_170:\n        /* \"contracts/nft-market.sol\":2037:2056  Order storage order */\n      0x00\n        /* \"contracts/nft-market.sol\":2059:2073  orderOfTokenId */\n      dup1\n        /* \"contracts/nft-market.sol\":2059:2082  orderOfTokenId[tokenId] */\n      0x00\n        /* \"contracts/nft-market.sol\":2074:2081  tokenId */\n      dup4\n        /* \"contracts/nft-market.sol\":2059:2082  orderOfTokenId[tokenId] */\n      dup2\n      mstore\n      0x20\n      add\n      swap1\n      dup2\n      mstore\n      0x20\n      add\n      0x00\n      keccak256\n        /* \"contracts/nft-market.sol\":2037:2082  Order storage order = orderOfTokenId[tokenId] */\n      swap1\n      pop\n        /* \"contracts/nft-market.sol\":2092:2106  address seller */\n      0x00\n        /* \"contracts/nft-market.sol\":2109:2114  order */\n      dup2\n        /* \"contracts/nft-market.sol\":2109:2121  order.seller */\n      0x00\n      add\n      0x00\n      swap1\n      sload\n      swap1\n      0x0100\n      exp\n      swap1\n      div\n      0xffffffffffffffffffffffffffffffffffffffff\n      and\n        /* \"contracts/nft-market.sol\":2092:2121  address seller = order.seller */\n      swap1\n      pop\n        /* \"contracts/nft-market.sol\":2131:2144  address buyer */\n      0x00\n        /* \"contracts/nft-market.sol\":2147:2157  msg.sender */\n      caller\n        /* \"contracts/nft-market.sol\":2131:2157  address buyer = msg.sender */\n      swap1\n      pop\n        /* \"contracts/nft-market.sol\":2167:2180  uint256 price */\n      0x00\n        /* \"contracts/nft-market.sol\":2183:2188  order */\n      dup4\n        /* \"contracts/nft-market.sol\":2183:2194  order.price */\n      0x02\n      add\n      sload\n        /* \"contracts/nft-market.sol\":2167:2194  uint256 price = order.price */\n      swap1\n      pop\n        /* \"contracts/nft-market.sol\":2294:2299  price */\n      dup1\n        /* \"contracts/nft-market.sol\":2268:2273  erc20 */\n      immutable(\"0x1615de156c662ff72892fae17ce471b57fc12c99ad066f4eb8422085be4080ba\")\n        /* \"contracts/nft-market.sol\":2268:2283  erc20.balanceOf */\n      0xffffffffffffffffffffffffffffffffffffffff\n      and\n      0x70a08231\n        /* \"contracts/nft-market.sol\":2284:2289  buyer */\n      dup5\n        /* \"contracts/nft-market.sol\":2268:2290  erc20.balanceOf(buyer) */\n      mload(0x40)\n      dup3\n      0xffffffff\n      and\n      0xe0\n      shl\n      dup2\n      mstore\n      0x04\n      add\n      tag_172\n      swap2\n      swap1\n      tag_173\n      jump\t// in\n    tag_172:\n      0x20\n      mload(0x40)\n      dup1\n      dup4\n      sub\n      dup2\n      dup7\n      gas\n      staticcall\n      iszero\n      dup1\n      iszero\n      tag_175\n      jumpi\n      returndatasize\n      0x00\n      dup1\n      returndatacopy\n      revert(0x00, returndatasize)\n    tag_175:\n      pop\n      pop\n      pop\n      pop\n      mload(0x40)\n      returndatasize\n      not(0x1f)\n      0x1f\n      dup3\n      add\n      and\n      dup3\n      add\n      dup1\n      0x40\n      mstore\n      pop\n      dup2\n      add\n      swap1\n      tag_176\n      swap2\n      swap1\n      tag_177\n      jump\t// in\n    tag_176:\n        /* \"contracts/nft-market.sol\":2268:2299  erc20.balanceOf(buyer) >= price */\n      lt\n      iszero\n        /* \"contracts/nft-market.sol\":2260:2331  require(erc20.balanceOf(buyer) >= price, \"Insufficient ERC-20 balance\") */\n      tag_178\n      jumpi\n      mload(0x40)\n      0x08c379a000000000000000000000000000000000000000000000000000000000\n      dup2\n      mstore\n      0x04\n      add\n      tag_179\n      swap1\n      tag_180\n      jump\t// in\n    tag_179:\n      mload(0x40)\n      dup1\n      swap2\n      sub\n      swap1\n      revert\n    tag_178:\n        /* \"contracts/nft-market.sol\":2364:2369  erc20 */\n      immutable(\"0x1615de156c662ff72892fae17ce471b57fc12c99ad066f4eb8422085be4080ba\")\n        /* \"contracts/nft-market.sol\":2364:2382  erc20.transferFrom */\n      0xffffffffffffffffffffffffffffffffffffffff\n      and\n      0x23b872dd\n        /* \"contracts/nft-market.sol\":2383:2388  buyer */\n      dup4\n        /* \"contracts/nft-market.sol\":2390:2396  seller */\n      dup6\n        /* \"contracts/nft-market.sol\":2398:2403  price */\n      dup5\n        /* \"contracts/nft-market.sol\":2364:2404  erc20.transferFrom(buyer, seller, price) */\n      mload(0x40)\n      dup5\n      0xffffffff\n      and\n      0xe0\n      shl\n      dup2\n      mstore\n      0x04\n      add\n      tag_181\n      swap4\n      swap3\n      swap2\n      swap1\n      tag_182\n      jump\t// in\n    tag_181:\n      0x20\n      mload(0x40)\n      dup1\n      dup4\n      sub\n      dup2\n      0x00\n      dup8\n      gas\n      call\n      iszero\n      dup1\n      iszero\n      tag_184\n      jumpi\n      returndatasize\n      0x00\n      dup1\n      returndatacopy\n      revert(0x00, returndatasize)\n    tag_184:\n      pop\n      pop\n      pop\n      pop\n      mload(0x40)\n      returndatasize\n      not(0x1f)\n      0x1f\n      dup3\n      add\n      and\n      dup3\n      add\n      dup1\n      0x40\n      mstore\n      pop\n      dup2\n      add\n      swap1\n      tag_185\n      swap2\n      swap1\n      tag_186\n      jump\t// in\n    tag_185:\n      pop\n        /* \"contracts/nft-market.sol\":2414:2420  erc721 */\n      immutable(\"0x188e5a5b71233ee092fd8df209d4e7ce875dc9914c3b80c1ca11c66b0a19f684\")\n        /* \"contracts/nft-market.sol\":2414:2437  erc721.safeTransferFrom */\n      0xffffffffffffffffffffffffffffffffffffffff\n      and\n      0x42842e0e\n        /* \"contracts/nft-market.sol\":2446:2450  this */\n      address\n        /* \"contracts/nft-market.sol\":2453:2458  buyer */\n      dup5\n        /* \"contracts/nft-market.sol\":2460:2467  tokenId */\n      dup9\n        /* \"contracts/nft-market.sol\":2414:2468  erc721.safeTransferFrom(address(this), buyer, tokenId) */\n      mload(0x40)\n      dup5\n      0xffffffff\n      and\n      0xe0\n      shl\n      dup2\n      mstore\n      0x04\n      add\n      tag_187\n      swap4\n      swap3\n      swap2\n      swap1\n      tag_182\n      jump\t// in\n    tag_187:\n      0x00\n      mload(0x40)\n      dup1\n      dup4\n      sub\n      dup2\n      0x00\n      dup8\n      dup1\n      extcodesize\n      iszero\n      dup1\n      iszero\n      tag_188\n      jumpi\n      0x00\n      dup1\n      revert\n    tag_188:\n      pop\n      gas\n      call\n      iszero\n      dup1\n      iszero\n      tag_190\n      jumpi\n      returndatasize\n      0x00\n      dup1\n      returndatacopy\n      revert(0x00, returndatasize)\n    tag_190:\n      pop\n      pop\n      pop\n      pop\n        /* \"contracts/nft-market.sol\":2501:2523  removeListing(tokenId) */\n      tag_191\n        /* \"contracts/nft-market.sol\":2515:2522  tokenId */\n      dup6\n        /* \"contracts/nft-market.sol\":2501:2514  removeListing */\n      tag_105\n        /* \"contracts/nft-market.sol\":2501:2523  removeListing(tokenId) */\n      jump\t// in\n    tag_191:\n        /* \"contracts/nft-market.sol\":2609:2616  tokenId */\n      dup5\n        /* \"contracts/nft-market.sol\":2595:2600  order */\n      dup5\n        /* \"contracts/nft-market.sol\":2595:2607  order.seller */\n      0x00\n      add\n      0x00\n      swap1\n      sload\n      swap1\n      0x0100\n      exp\n      swap1\n      div\n      0xffffffffffffffffffffffffffffffffffffffff\n      and\n        /* \"contracts/nft-market.sol\":2573:2630  OrderDeal(msg.sender, order.seller, tokenId, order.price) */\n      0xffffffffffffffffffffffffffffffffffffffff\n      and\n        /* \"contracts/nft-market.sol\":2583:2593  msg.sender */\n      caller\n        /* \"contracts/nft-market.sol\":2573:2630  OrderDeal(msg.sender, order.seller, tokenId, order.price) */\n      0xffffffffffffffffffffffffffffffffffffffff\n      and\n      0x5c096e3246fbf1487455e1c3a85a673b377e4b4447f7de8f0f7fd571ddce0096\n        /* \"contracts/nft-market.sol\":2618:2623  order */\n      dup8\n        /* \"contracts/nft-market.sol\":2618:2629  order.price */\n      0x02\n      add\n      sload\n        /* \"contracts/nft-market.sol\":2573:2630  OrderDeal(msg.sender, order.seller, tokenId, order.price) */\n      mload(0x40)\n      tag_192\n      swap2\n      swap1\n      tag_46\n      jump\t// in\n    tag_192:\n      mload(0x40)\n      dup1\n      swap2\n      sub\n      swap1\n      log4\n        /* \"contracts/nft-market.sol\":1934:2637  {... */\n      pop\n      pop\n      pop\n      pop\n        /* \"contracts/nft-market.sol\":1895:2637  function buy(uint256 tokenId) external {... */\n      pop\n      jump\t// out\n        /* \"contracts/nft-market.sol\":4873:4964  function getAllNFTs() external view returns (Order[] memory) {... */\n    tag_69:\n        /* \"contracts/nft-market.sol\":4918:4932  Order[] memory */\n      0x60\n        /* \"contracts/nft-market.sol\":4951:4957  orders */\n      0x01\n        /* \"contracts/nft-market.sol\":4944:4957  return orders */\n      dup1\n      sload\n      dup1\n      0x20\n      mul\n      0x20\n      add\n      mload(0x40)\n      swap1\n      dup2\n      add\n      0x40\n      mstore\n      dup1\n      swap3\n      swap2\n      swap1\n      dup2\n      dup2\n      mstore\n      0x20\n      add\n      0x00\n      swap1\n    tag_194:\n      dup3\n      dup3\n      lt\n      iszero\n      tag_195\n      jumpi\n      dup4\n      dup3\n      swap1\n      0x00\n      mstore\n      keccak256(0x00, 0x20)\n      swap1\n      0x03\n      mul\n      add\n      mload(0x40)\n      dup1\n      0x60\n      add\n      0x40\n      mstore\n      swap1\n      dup2\n      0x00\n      dup3\n      add\n      0x00\n      swap1\n      sload\n      swap1\n      0x0100\n      exp\n      swap1\n      div\n      0xffffffffffffffffffffffffffffffffffffffff\n      and\n      0xffffffffffffffffffffffffffffffffffffffff\n      and\n      0xffffffffffffffffffffffffffffffffffffffff\n      and\n      dup2\n      mstore\n      0x20\n      add\n      0x01\n      dup3\n      add\n      sload\n      dup2\n      mstore\n      0x20\n      add\n      0x02\n      dup3\n      add\n      sload\n      dup2\n      mstore\n      pop\n      pop\n      dup2\n      mstore\n      0x20\n      add\n      swap1\n      0x01\n      add\n      swap1\n      jump(tag_194)\n    tag_195:\n      pop\n      pop\n      pop\n      pop\n      swap1\n      pop\n        /* \"contracts/nft-market.sol\":4873:4964  function getAllNFTs() external view returns (Order[] memory) {... */\n      swap1\n      jump\t// out\n        /* \"contracts/nft-market.sol\":5318:5581  function getOrderByTokenId(... */\n    tag_73:\n        /* \"contracts/nft-market.sol\":5399:5411  Order memory */\n      tag_197\n      tag_113\n      jump\t// in\n    tag_197:\n        /* \"contracts/nft-market.sol\":5486:5487  0 */\n      0x00\n        /* \"contracts/nft-market.sol\":5444:5488  orderOfTokenId[tokenId].seller != address(0) */\n      0xffffffffffffffffffffffffffffffffffffffff\n      and\n        /* \"contracts/nft-market.sol\":5444:5458  orderOfTokenId */\n      0x00\n        /* \"contracts/nft-market.sol\":5444:5467  orderOfTokenId[tokenId] */\n      dup1\n        /* \"contracts/nft-market.sol\":5459:5466  tokenId */\n      dup5\n        /* \"contracts/nft-market.sol\":5444:5467  orderOfTokenId[tokenId] */\n      dup2\n      mstore\n      0x20\n      add\n      swap1\n      dup2\n      mstore\n      0x20\n      add\n      0x00\n      keccak256\n        /* \"contracts/nft-market.sol\":5444:5474  orderOfTokenId[tokenId].seller */\n      0x00\n      add\n      0x00\n      swap1\n      sload\n      swap1\n      0x0100\n      exp\n      swap1\n      div\n      0xffffffffffffffffffffffffffffffffffffffff\n      and\n        /* \"contracts/nft-market.sol\":5444:5488  orderOfTokenId[tokenId].seller != address(0) */\n      0xffffffffffffffffffffffffffffffffffffffff\n      and\n      sub\n        /* \"contracts/nft-market.sol\":5423:5534  require(... */\n      tag_199\n      jumpi\n      mload(0x40)\n      0x08c379a000000000000000000000000000000000000000000000000000000000\n      dup2\n      mstore\n      0x04\n      add\n      tag_200\n      swap1\n      tag_100\n      jump\t// in\n    tag_200:\n      mload(0x40)\n      dup1\n      swap2\n      sub\n      swap1\n      revert\n    tag_199:\n        /* \"contracts/nft-market.sol\":5551:5565  orderOfTokenId */\n      0x00\n        /* \"contracts/nft-market.sol\":5551:5574  orderOfTokenId[tokenId] */\n      dup1\n        /* \"contracts/nft-market.sol\":5566:5573  tokenId */\n      dup4\n        /* \"contracts/nft-market.sol\":5551:5574  orderOfTokenId[tokenId] */\n      dup2\n      mstore\n      0x20\n      add\n      swap1\n      dup2\n      mstore\n      0x20\n      add\n      0x00\n      keccak256\n        /* \"contracts/nft-market.sol\":5544:5574  return orderOfTokenId[tokenId] */\n      mload(0x40)\n      dup1\n      0x60\n      add\n      0x40\n      mstore\n      swap1\n      dup2\n      0x00\n      dup3\n      add\n      0x00\n      swap1\n      sload\n      swap1\n      0x0100\n      exp\n      swap1\n      div\n      0xffffffffffffffffffffffffffffffffffffffff\n      and\n      0xffffffffffffffffffffffffffffffffffffffff\n      and\n      0xffffffffffffffffffffffffffffffffffffffff\n      and\n      dup2\n      mstore\n      0x20\n      add\n      0x01\n      dup3\n      add\n      sload\n      dup2\n      mstore\n      0x20\n      add\n      0x02\n      dup3\n      add\n      sload\n      dup2\n      mstore\n      pop\n      pop\n      swap1\n      pop\n        /* \"contracts/nft-market.sol\":5318:5581  function getOrderByTokenId(... */\n      swap2\n      swap1\n      pop\n      jump\t// out\n        /* \"contracts/nft-market.sol\":664:718  mapping(uint256 => uint256) public orderIndexOfTokenId */\n    tag_78:\n      mstore(0x20, 0x02)\n      dup1\n      0x00\n      mstore\n      keccak256(0x00, 0x40)\n      0x00\n      swap2\n      pop\n      swap1\n      pop\n      sload\n      dup2\n      jump\t// out\n        /* \"contracts/nft-market.sol\":5016:5148  function isListed(uint256 _tokenId) public view returns (bool) {... */\n    tag_82:\n        /* \"contracts/nft-market.sol\":5073:5077  bool */\n      0x00\n        /* \"contracts/nft-market.sol\":5139:5140  0 */\n      dup1\n        /* \"contracts/nft-market.sol\":5096:5141  orderOfTokenId[_tokenId].seller != address(0) */\n      0xffffffffffffffffffffffffffffffffffffffff\n      and\n        /* \"contracts/nft-market.sol\":5096:5110  orderOfTokenId */\n      0x00\n        /* \"contracts/nft-market.sol\":5096:5120  orderOfTokenId[_tokenId] */\n      dup1\n        /* \"contracts/nft-market.sol\":5111:5119  _tokenId */\n      dup5\n        /* \"contracts/nft-market.sol\":5096:5120  orderOfTokenId[_tokenId] */\n      dup2\n      mstore\n      0x20\n      add\n      swap1\n      dup2\n      mstore\n      0x20\n      add\n      0x00\n      keccak256\n        /* \"contracts/nft-market.sol\":5096:5127  orderOfTokenId[_tokenId].seller */\n      0x00\n      add\n      0x00\n      swap1\n      sload\n      swap1\n      0x0100\n      exp\n      swap1\n      div\n      0xffffffffffffffffffffffffffffffffffffffff\n      and\n        /* \"contracts/nft-market.sol\":5096:5141  orderOfTokenId[_tokenId].seller != address(0) */\n      0xffffffffffffffffffffffffffffffffffffffff\n      and\n      eq\n      iszero\n        /* \"contracts/nft-market.sol\":5089:5141  return orderOfTokenId[_tokenId].seller != address(0) */\n      swap1\n      pop\n        /* \"contracts/nft-market.sol\":5016:5148  function isListed(uint256 _tokenId) public view returns (bool) {... */\n      swap2\n      swap1\n      pop\n      jump\t// out\n        /* \"contracts/nft-market.sol\":6259:6750  function removeListing(uint256 _tokenId) internal {... */\n    tag_105:\n        /* \"contracts/nft-market.sol\":6326:6340  orderOfTokenId */\n      0x00\n        /* \"contracts/nft-market.sol\":6326:6350  orderOfTokenId[_tokenId] */\n      dup1\n        /* \"contracts/nft-market.sol\":6341:6349  _tokenId */\n      dup3\n        /* \"contracts/nft-market.sol\":6326:6350  orderOfTokenId[_tokenId] */\n      dup2\n      mstore\n      0x20\n      add\n      swap1\n      dup2\n      mstore\n      0x20\n      add\n      0x00\n      keccak256\n      0x00\n        /* \"contracts/nft-market.sol\":6319:6350  delete orderOfTokenId[_tokenId] */\n      dup1\n      dup3\n      add\n      exp(0x0100, 0x00)\n      dup2\n      sload\n      swap1\n      0xffffffffffffffffffffffffffffffffffffffff\n      mul\n      not\n      and\n      swap1\n      sstore\n      0x01\n      dup3\n      add\n      0x00\n      swap1\n      sstore\n      0x02\n      dup3\n      add\n      0x00\n      swap1\n      sstore\n      pop\n      pop\n        /* \"contracts/nft-market.sol\":6361:6387  uint256 orderToRemoveIndex */\n      0x00\n        /* \"contracts/nft-market.sol\":6390:6409  orderIndexOfTokenId */\n      0x02\n        /* \"contracts/nft-market.sol\":6390:6419  orderIndexOfTokenId[_tokenId] */\n      0x00\n        /* \"contracts/nft-market.sol\":6410:6418  _tokenId */\n      dup4\n        /* \"contracts/nft-market.sol\":6390:6419  orderIndexOfTokenId[_tokenId] */\n      dup2\n      mstore\n      0x20\n      add\n      swap1\n      dup2\n      mstore\n      0x20\n      add\n      0x00\n      keccak256\n      sload\n        /* \"contracts/nft-market.sol\":6361:6419  uint256 orderToRemoveIndex = orderIndexOfTokenId[_tokenId] */\n      swap1\n      pop\n        /* \"contracts/nft-market.sol\":6429:6451  uint256 lastOrderIndex */\n      0x00\n        /* \"contracts/nft-market.sol\":6470:6471  1 */\n      0x01\n        /* \"contracts/nft-market.sol\":6454:6460  orders */\n      dup1\n        /* \"contracts/nft-market.sol\":6454:6467  orders.length */\n      dup1\n      sload\n      swap1\n      pop\n        /* \"contracts/nft-market.sol\":6454:6471  orders.length - 1 */\n      tag_203\n      swap2\n      swap1\n      tag_95\n      jump\t// in\n    tag_203:\n        /* \"contracts/nft-market.sol\":6429:6471  uint256 lastOrderIndex = orders.length - 1 */\n      swap1\n      pop\n        /* \"contracts/nft-market.sol\":6504:6522  orderToRemoveIndex */\n      dup2\n        /* \"contracts/nft-market.sol\":6486:6500  lastOrderIndex */\n      dup2\n        /* \"contracts/nft-market.sol\":6486:6522  lastOrderIndex != orderToRemoveIndex */\n      eq\n        /* \"contracts/nft-market.sol\":6482:6721  if (lastOrderIndex != orderToRemoveIndex) {... */\n      tag_204\n      jumpi\n        /* \"contracts/nft-market.sol\":6538:6560  Order memory lastOrder */\n      0x00\n        /* \"contracts/nft-market.sol\":6563:6569  orders */\n      0x01\n        /* \"contracts/nft-market.sol\":6570:6584  lastOrderIndex */\n      dup3\n        /* \"contracts/nft-market.sol\":6563:6585  orders[lastOrderIndex] */\n      dup2\n      sload\n      dup2\n      lt\n      tag_205\n      jumpi\n      tag_206\n      tag_119\n      jump\t// in\n    tag_206:\n    tag_205:\n      swap1\n      0x00\n      mstore\n      keccak256(0x00, 0x20)\n      swap1\n      0x03\n      mul\n      add\n        /* \"contracts/nft-market.sol\":6538:6585  Order memory lastOrder = orders[lastOrderIndex] */\n      mload(0x40)\n      dup1\n      0x60\n      add\n      0x40\n      mstore\n      swap1\n      dup2\n      0x00\n      dup3\n      add\n      0x00\n      swap1\n      sload\n      swap1\n      0x0100\n      exp\n      swap1\n      div\n      0xffffffffffffffffffffffffffffffffffffffff\n      and\n      0xffffffffffffffffffffffffffffffffffffffff\n      and\n      0xffffffffffffffffffffffffffffffffffffffff\n      and\n      dup2\n      mstore\n      0x20\n      add\n      0x01\n      dup3\n      add\n      sload\n      dup2\n      mstore\n      0x20\n      add\n      0x02\n      dup3\n      add\n      sload\n      dup2\n      mstore\n      pop\n      pop\n      swap1\n      pop\n        /* \"contracts/nft-market.sol\":6628:6637  lastOrder */\n      dup1\n        /* \"contracts/nft-market.sol\":6599:6605  orders */\n      0x01\n        /* \"contracts/nft-market.sol\":6606:6624  orderToRemoveIndex */\n      dup5\n        /* \"contracts/nft-market.sol\":6599:6625  orders[orderToRemoveIndex] */\n      dup2\n      sload\n      dup2\n      lt\n      tag_208\n      jumpi\n      tag_209\n      tag_119\n      jump\t// in\n    tag_209:\n    tag_208:\n      swap1\n      0x00\n      mstore\n      keccak256(0x00, 0x20)\n      swap1\n      0x03\n      mul\n      add\n        /* \"contracts/nft-market.sol\":6599:6637  orders[orderToRemoveIndex] = lastOrder */\n      0x00\n      dup3\n      add\n      mload\n      dup2\n      0x00\n      add\n      exp(0x0100, 0x00)\n      dup2\n      sload\n      dup2\n      0xffffffffffffffffffffffffffffffffffffffff\n      mul\n      not\n      and\n      swap1\n      dup4\n      0xffffffffffffffffffffffffffffffffffffffff\n      and\n      mul\n      or\n      swap1\n      sstore\n      pop\n      0x20\n      dup3\n      add\n      mload\n      dup2\n      0x01\n      add\n      sstore\n      0x40\n      dup3\n      add\n      mload\n      dup2\n      0x02\n      add\n      sstore\n      swap1\n      pop\n      pop\n        /* \"contracts/nft-market.sol\":6692:6710  orderToRemoveIndex */\n      dup3\n        /* \"contracts/nft-market.sol\":6651:6670  orderIndexOfTokenId */\n      0x02\n        /* \"contracts/nft-market.sol\":6651:6689  orderIndexOfTokenId[lastOrder.tokenId] */\n      0x00\n        /* \"contracts/nft-market.sol\":6671:6680  lastOrder */\n      dup4\n        /* \"contracts/nft-market.sol\":6671:6688  lastOrder.tokenId */\n      0x20\n      add\n      mload\n        /* \"contracts/nft-market.sol\":6651:6689  orderIndexOfTokenId[lastOrder.tokenId] */\n      dup2\n      mstore\n      0x20\n      add\n      swap1\n      dup2\n      mstore\n      0x20\n      add\n      0x00\n      keccak256\n        /* \"contracts/nft-market.sol\":6651:6710  orderIndexOfTokenId[lastOrder.tokenId] = orderToRemoveIndex */\n      dup2\n      swap1\n      sstore\n      pop\n        /* \"contracts/nft-market.sol\":6524:6721  {... */\n      pop\n        /* \"contracts/nft-market.sol\":6482:6721  if (lastOrderIndex != orderToRemoveIndex) {... */\n    tag_204:\n        /* \"contracts/nft-market.sol\":6731:6737  orders */\n      0x01\n        /* \"contracts/nft-market.sol\":6731:6743  orders.pop() */\n      dup1\n      sload\n      dup1\n      tag_211\n      jumpi\n      tag_212\n      tag_213\n      jump\t// in\n    tag_212:\n    tag_211:\n      0x01\n      swap1\n      sub\n      dup2\n      dup2\n      swap1\n      0x00\n      mstore\n      keccak256(0x00, 0x20)\n      swap1\n      0x03\n      mul\n      add\n      0x00\n      dup1\n      dup3\n      add\n      exp(0x0100, 0x00)\n      dup2\n      sload\n      swap1\n      0xffffffffffffffffffffffffffffffffffffffff\n      mul\n      not\n      and\n      swap1\n      sstore\n      0x01\n      dup3\n      add\n      0x00\n      swap1\n      sstore\n      0x02\n      dup3\n      add\n      0x00\n      swap1\n      sstore\n      pop\n      pop\n      swap1\n      sstore\n        /* \"contracts/nft-market.sol\":6309:6750  {... */\n      pop\n      pop\n        /* \"contracts/nft-market.sol\":6259:6750  function removeListing(uint256 _tokenId) internal {... */\n      pop\n      jump\t// out\n    tag_113:\n      mload(0x40)\n      dup1\n      0x60\n      add\n      0x40\n      mstore\n      dup1\n      and(0xffffffffffffffffffffffffffffffffffffffff, 0x00)\n      dup2\n      mstore\n      0x20\n      add\n      0x00\n      dup2\n      mstore\n      0x20\n      add\n      0x00\n      dup2\n      mstore\n      pop\n      swap1\n      jump\t// out\n        /* \"#utility.yul\":7:82   */\n    tag_215:\n        /* \"#utility.yul\":40:46   */\n      0x00\n        /* \"#utility.yul\":73:75   */\n      0x40\n        /* \"#utility.yul\":67:76   */\n      mload\n        /* \"#utility.yul\":57:76   */\n      swap1\n      pop\n        /* \"#utility.yul\":7:82   */\n      swap1\n      jump\t// out\n        /* \"#utility.yul\":88:205   */\n    tag_216:\n        /* \"#utility.yul\":197:198   */\n      0x00\n        /* \"#utility.yul\":194:195   */\n      dup1\n        /* \"#utility.yul\":187:199   */\n      revert\n        /* \"#utility.yul\":211:328   */\n    tag_217:\n        /* \"#utility.yul\":320:321   */\n      0x00\n        /* \"#utility.yul\":317:318   */\n      dup1\n        /* \"#utility.yul\":310:322   */\n      revert\n        /* \"#utility.yul\":334:460   */\n    tag_218:\n        /* \"#utility.yul\":371:378   */\n      0x00\n        /* \"#utility.yul\":411:453   */\n      0xffffffffffffffffffffffffffffffffffffffff\n        /* \"#utility.yul\":404:409   */\n      dup3\n        /* \"#utility.yul\":400:454   */\n      and\n        /* \"#utility.yul\":389:454   */\n      swap1\n      pop\n        /* \"#utility.yul\":334:460   */\n      swap2\n      swap1\n      pop\n      jump\t// out\n        /* \"#utility.yul\":466:562   */\n    tag_219:\n        /* \"#utility.yul\":503:510   */\n      0x00\n        /* \"#utility.yul\":532:556   */\n      tag_287\n        /* \"#utility.yul\":550:555   */\n      dup3\n        /* \"#utility.yul\":532:556   */\n      tag_218\n      jump\t// in\n    tag_287:\n        /* \"#utility.yul\":521:556   */\n      swap1\n      pop\n        /* \"#utility.yul\":466:562   */\n      swap2\n      swap1\n      pop\n      jump\t// out\n        /* \"#utility.yul\":568:690   */\n    tag_220:\n        /* \"#utility.yul\":641:665   */\n      tag_289\n        /* \"#utility.yul\":659:664   */\n      dup2\n        /* \"#utility.yul\":641:665   */\n      tag_219\n      jump\t// in\n    tag_289:\n        /* \"#utility.yul\":634:639   */\n      dup2\n        /* \"#utility.yul\":631:666   */\n      eq\n        /* \"#utility.yul\":621:684   */\n      tag_290\n      jumpi\n        /* \"#utility.yul\":680:681   */\n      0x00\n        /* \"#utility.yul\":677:678   */\n      dup1\n        /* \"#utility.yul\":670:682   */\n      revert\n        /* \"#utility.yul\":621:684   */\n    tag_290:\n        /* \"#utility.yul\":568:690   */\n      pop\n      jump\t// out\n        /* \"#utility.yul\":696:835   */\n    tag_221:\n        /* \"#utility.yul\":742:747   */\n      0x00\n        /* \"#utility.yul\":780:786   */\n      dup2\n        /* \"#utility.yul\":767:787   */\n      calldataload\n        /* \"#utility.yul\":758:787   */\n      swap1\n      pop\n        /* \"#utility.yul\":796:829   */\n      tag_292\n        /* \"#utility.yul\":823:828   */\n      dup2\n        /* \"#utility.yul\":796:829   */\n      tag_220\n      jump\t// in\n    tag_292:\n        /* \"#utility.yul\":696:835   */\n      swap3\n      swap2\n      pop\n      pop\n      jump\t// out\n        /* \"#utility.yul\":841:918   */\n    tag_222:\n        /* \"#utility.yul\":878:885   */\n      0x00\n        /* \"#utility.yul\":907:912   */\n      dup2\n        /* \"#utility.yul\":896:912   */\n      swap1\n      pop\n        /* \"#utility.yul\":841:918   */\n      swap2\n      swap1\n      pop\n      jump\t// out\n        /* \"#utility.yul\":924:1046   */\n    tag_223:\n        /* \"#utility.yul\":997:1021   */\n      tag_295\n        /* \"#utility.yul\":1015:1020   */\n      dup2\n        /* \"#utility.yul\":997:1021   */\n      tag_222\n      jump\t// in\n    tag_295:\n        /* \"#utility.yul\":990:995   */\n      dup2\n        /* \"#utility.yul\":987:1022   */\n      eq\n        /* \"#utility.yul\":977:1040   */\n      tag_296\n      jumpi\n        /* \"#utility.yul\":1036:1037   */\n      0x00\n        /* \"#utility.yul\":1033:1034   */\n      dup1\n        /* \"#utility.yul\":1026:1038   */\n      revert\n        /* \"#utility.yul\":977:1040   */\n    tag_296:\n        /* \"#utility.yul\":924:1046   */\n      pop\n      jump\t// out\n        /* \"#utility.yul\":1052:1191   */\n    tag_224:\n        /* \"#utility.yul\":1098:1103   */\n      0x00\n        /* \"#utility.yul\":1136:1142   */\n      dup2\n        /* \"#utility.yul\":1123:1143   */\n      calldataload\n        /* \"#utility.yul\":1114:1143   */\n      swap1\n      pop\n        /* \"#utility.yul\":1152:1185   */\n      tag_298\n        /* \"#utility.yul\":1179:1184   */\n      dup2\n        /* \"#utility.yul\":1152:1185   */\n      tag_223\n      jump\t// in\n    tag_298:\n        /* \"#utility.yul\":1052:1191   */\n      swap3\n      swap2\n      pop\n      pop\n      jump\t// out\n        /* \"#utility.yul\":1197:1314   */\n    tag_225:\n        /* \"#utility.yul\":1306:1307   */\n      0x00\n        /* \"#utility.yul\":1303:1304   */\n      dup1\n        /* \"#utility.yul\":1296:1308   */\n      revert\n        /* \"#utility.yul\":1320:1437   */\n    tag_226:\n        /* \"#utility.yul\":1429:1430   */\n      0x00\n        /* \"#utility.yul\":1426:1427   */\n      dup1\n        /* \"#utility.yul\":1419:1431   */\n      revert\n        /* \"#utility.yul\":1443:1560   */\n    tag_227:\n        /* \"#utility.yul\":1552:1553   */\n      0x00\n        /* \"#utility.yul\":1549:1550   */\n      dup1\n        /* \"#utility.yul\":1542:1554   */\n      revert\n        /* \"#utility.yul\":1579:2131   */\n    tag_228:\n        /* \"#utility.yul\":1636:1644   */\n      0x00\n        /* \"#utility.yul\":1646:1652   */\n      dup1\n        /* \"#utility.yul\":1696:1699   */\n      dup4\n        /* \"#utility.yul\":1689:1693   */\n      0x1f\n        /* \"#utility.yul\":1681:1687   */\n      dup5\n        /* \"#utility.yul\":1677:1694   */\n      add\n        /* \"#utility.yul\":1673:1700   */\n      slt\n        /* \"#utility.yul\":1663:1785   */\n      tag_303\n      jumpi\n        /* \"#utility.yul\":1704:1783   */\n      tag_304\n      tag_225\n      jump\t// in\n    tag_304:\n        /* \"#utility.yul\":1663:1785   */\n    tag_303:\n        /* \"#utility.yul\":1817:1823   */\n      dup3\n        /* \"#utility.yul\":1804:1824   */\n      calldataload\n        /* \"#utility.yul\":1794:1824   */\n      swap1\n      pop\n        /* \"#utility.yul\":1847:1865   */\n      0xffffffffffffffff\n        /* \"#utility.yul\":1839:1845   */\n      dup2\n        /* \"#utility.yul\":1836:1866   */\n      gt\n        /* \"#utility.yul\":1833:1950   */\n      iszero\n      tag_305\n      jumpi\n        /* \"#utility.yul\":1869:1948   */\n      tag_306\n      tag_226\n      jump\t// in\n    tag_306:\n        /* \"#utility.yul\":1833:1950   */\n    tag_305:\n        /* \"#utility.yul\":1983:1987   */\n      0x20\n        /* \"#utility.yul\":1975:1981   */\n      dup4\n        /* \"#utility.yul\":1971:1988   */\n      add\n        /* \"#utility.yul\":1959:1988   */\n      swap2\n      pop\n        /* \"#utility.yul\":2037:2040   */\n      dup4\n        /* \"#utility.yul\":2029:2033   */\n      0x01\n        /* \"#utility.yul\":2021:2027   */\n      dup3\n        /* \"#utility.yul\":2017:2034   */\n      mul\n        /* \"#utility.yul\":2007:2015   */\n      dup4\n        /* \"#utility.yul\":2003:2035   */\n      add\n        /* \"#utility.yul\":2000:2041   */\n      gt\n        /* \"#utility.yul\":1997:2125   */\n      iszero\n      tag_307\n      jumpi\n        /* \"#utility.yul\":2044:2123   */\n      tag_308\n      tag_227\n      jump\t// in\n    tag_308:\n        /* \"#utility.yul\":1997:2125   */\n    tag_307:\n        /* \"#utility.yul\":1579:2131   */\n      swap3\n      pop\n      swap3\n      swap1\n      pop\n      jump\t// out\n        /* \"#utility.yul\":2137:3100   */\n    tag_23:\n        /* \"#utility.yul\":2234:2240   */\n      0x00\n        /* \"#utility.yul\":2242:2248   */\n      dup1\n        /* \"#utility.yul\":2250:2256   */\n      0x00\n        /* \"#utility.yul\":2258:2264   */\n      dup1\n        /* \"#utility.yul\":2266:2272   */\n      0x00\n        /* \"#utility.yul\":2315:2318   */\n      0x80\n        /* \"#utility.yul\":2303:2312   */\n      dup7\n        /* \"#utility.yul\":2294:2301   */\n      dup9\n        /* \"#utility.yul\":2290:2313   */\n      sub\n        /* \"#utility.yul\":2286:2319   */\n      slt\n        /* \"#utility.yul\":2283:2403   */\n      iszero\n      tag_310\n      jumpi\n        /* \"#utility.yul\":2322:2401   */\n      tag_311\n      tag_216\n      jump\t// in\n    tag_311:\n        /* \"#utility.yul\":2283:2403   */\n    tag_310:\n        /* \"#utility.yul\":2442:2443   */\n      0x00\n        /* \"#utility.yul\":2467:2520   */\n      tag_312\n        /* \"#utility.yul\":2512:2519   */\n      dup9\n        /* \"#utility.yul\":2503:2509   */\n      dup3\n        /* \"#utility.yul\":2492:2501   */\n      dup10\n        /* \"#utility.yul\":2488:2510   */\n      add\n        /* \"#utility.yul\":2467:2520   */\n      tag_221\n      jump\t// in\n    tag_312:\n        /* \"#utility.yul\":2457:2520   */\n      swap6\n      pop\n        /* \"#utility.yul\":2413:2530   */\n      pop\n        /* \"#utility.yul\":2569:2571   */\n      0x20\n        /* \"#utility.yul\":2595:2648   */\n      tag_313\n        /* \"#utility.yul\":2640:2647   */\n      dup9\n        /* \"#utility.yul\":2631:2637   */\n      dup3\n        /* \"#utility.yul\":2620:2629   */\n      dup10\n        /* \"#utility.yul\":2616:2638   */\n      add\n        /* \"#utility.yul\":2595:2648   */\n      tag_221\n      jump\t// in\n    tag_313:\n        /* \"#utility.yul\":2585:2648   */\n      swap5\n      pop\n        /* \"#utility.yul\":2540:2658   */\n      pop\n        /* \"#utility.yul\":2697:2699   */\n      0x40\n        /* \"#utility.yul\":2723:2776   */\n      tag_314\n        /* \"#utility.yul\":2768:2775   */\n      dup9\n        /* \"#utility.yul\":2759:2765   */\n      dup3\n        /* \"#utility.yul\":2748:2757   */\n      dup10\n        /* \"#utility.yul\":2744:2766   */\n      add\n        /* \"#utility.yul\":2723:2776   */\n      tag_224\n      jump\t// in\n    tag_314:\n        /* \"#utility.yul\":2713:2776   */\n      swap4\n      pop\n        /* \"#utility.yul\":2668:2786   */\n      pop\n        /* \"#utility.yul\":2853:2855   */\n      0x60\n        /* \"#utility.yul\":2842:2851   */\n      dup7\n        /* \"#utility.yul\":2838:2856   */\n      add\n        /* \"#utility.yul\":2825:2857   */\n      calldataload\n        /* \"#utility.yul\":2884:2902   */\n      0xffffffffffffffff\n        /* \"#utility.yul\":2876:2882   */\n      dup2\n        /* \"#utility.yul\":2873:2903   */\n      gt\n        /* \"#utility.yul\":2870:2987   */\n      iszero\n      tag_315\n      jumpi\n        /* \"#utility.yul\":2906:2985   */\n      tag_316\n      tag_217\n      jump\t// in\n    tag_316:\n        /* \"#utility.yul\":2870:2987   */\n    tag_315:\n        /* \"#utility.yul\":3019:3083   */\n      tag_317\n        /* \"#utility.yul\":3075:3082   */\n      dup9\n        /* \"#utility.yul\":3066:3072   */\n      dup3\n        /* \"#utility.yul\":3055:3064   */\n      dup10\n        /* \"#utility.yul\":3051:3073   */\n      add\n        /* \"#utility.yul\":3019:3083   */\n      tag_228\n      jump\t// in\n    tag_317:\n        /* \"#utility.yul\":3001:3083   */\n      swap3\n      pop\n      swap3\n      pop\n        /* \"#utility.yul\":2796:3093   */\n      pop\n        /* \"#utility.yul\":2137:3100   */\n      swap3\n      swap6\n      pop\n      swap3\n      swap6\n      swap1\n      swap4\n      pop\n      jump\t// out\n        /* \"#utility.yul\":3106:3255   */\n    tag_229:\n        /* \"#utility.yul\":3142:3149   */\n      0x00\n        /* \"#utility.yul\":3182:3248   */\n      0xffffffff00000000000000000000000000000000000000000000000000000000\n        /* \"#utility.yul\":3175:3180   */\n      dup3\n        /* \"#utility.yul\":3171:3249   */\n      and\n        /* \"#utility.yul\":3160:3249   */\n      swap1\n      pop\n        /* \"#utility.yul\":3106:3255   */\n      swap2\n      swap1\n      pop\n      jump\t// out\n        /* \"#utility.yul\":3261:3376   */\n    tag_230:\n        /* \"#utility.yul\":3346:3369   */\n      tag_320\n        /* \"#utility.yul\":3363:3368   */\n      dup2\n        /* \"#utility.yul\":3346:3369   */\n      tag_229\n      jump\t// in\n    tag_320:\n        /* \"#utility.yul\":3341:3344   */\n      dup3\n        /* \"#utility.yul\":3334:3370   */\n      mstore\n        /* \"#utility.yul\":3261:3376   */\n      pop\n      pop\n      jump\t// out\n        /* \"#utility.yul\":3382:3600   */\n    tag_26:\n        /* \"#utility.yul\":3473:3477   */\n      0x00\n        /* \"#utility.yul\":3511:3513   */\n      0x20\n        /* \"#utility.yul\":3500:3509   */\n      dup3\n        /* \"#utility.yul\":3496:3514   */\n      add\n        /* \"#utility.yul\":3488:3514   */\n      swap1\n      pop\n        /* \"#utility.yul\":3524:3593   */\n      tag_322\n        /* \"#utility.yul\":3590:3591   */\n      0x00\n        /* \"#utility.yul\":3579:3588   */\n      dup4\n        /* \"#utility.yul\":3575:3592   */\n      add\n        /* \"#utility.yul\":3566:3572   */\n      dup5\n        /* \"#utility.yul\":3524:3593   */\n      tag_230\n      jump\t// in\n    tag_322:\n        /* \"#utility.yul\":3382:3600   */\n      swap3\n      swap2\n      pop\n      pop\n      jump\t// out\n        /* \"#utility.yul\":3606:3935   */\n    tag_29:\n        /* \"#utility.yul\":3665:3671   */\n      0x00\n        /* \"#utility.yul\":3714:3716   */\n      0x20\n        /* \"#utility.yul\":3702:3711   */\n      dup3\n        /* \"#utility.yul\":3693:3700   */\n      dup5\n        /* \"#utility.yul\":3689:3712   */\n      sub\n        /* \"#utility.yul\":3685:3717   */\n      slt\n        /* \"#utility.yul\":3682:3801   */\n      iszero\n      tag_324\n      jumpi\n        /* \"#utility.yul\":3720:3799   */\n      tag_325\n      tag_216\n      jump\t// in\n    tag_325:\n        /* \"#utility.yul\":3682:3801   */\n    tag_324:\n        /* \"#utility.yul\":3840:3841   */\n      0x00\n        /* \"#utility.yul\":3865:3918   */\n      tag_326\n        /* \"#utility.yul\":3910:3917   */\n      dup5\n        /* \"#utility.yul\":3901:3907   */\n      dup3\n        /* \"#utility.yul\":3890:3899   */\n      dup6\n        /* \"#utility.yul\":3886:3908   */\n      add\n        /* \"#utility.yul\":3865:3918   */\n      tag_224\n      jump\t// in\n    tag_326:\n        /* \"#utility.yul\":3855:3918   */\n      swap2\n      pop\n        /* \"#utility.yul\":3811:3928   */\n      pop\n        /* \"#utility.yul\":3606:3935   */\n      swap3\n      swap2\n      pop\n      pop\n      jump\t// out\n        /* \"#utility.yul\":3941:4077   */\n    tag_231:\n        /* \"#utility.yul\":4030:4036   */\n      0x00\n        /* \"#utility.yul\":4064:4069   */\n      dup2\n        /* \"#utility.yul\":4058:4070   */\n      mload\n        /* \"#utility.yul\":4048:4070   */\n      swap1\n      pop\n        /* \"#utility.yul\":3941:4077   */\n      swap2\n      swap1\n      pop\n      jump\t// out\n        /* \"#utility.yul\":4083:4289   */\n    tag_232:\n        /* \"#utility.yul\":4204:4215   */\n      0x00\n        /* \"#utility.yul\":4238:4244   */\n      dup3\n        /* \"#utility.yul\":4233:4236   */\n      dup3\n        /* \"#utility.yul\":4226:4245   */\n      mstore\n        /* \"#utility.yul\":4278:4282   */\n      0x20\n        /* \"#utility.yul\":4273:4276   */\n      dup3\n        /* \"#utility.yul\":4269:4283   */\n      add\n        /* \"#utility.yul\":4254:4283   */\n      swap1\n      pop\n        /* \"#utility.yul\":4083:4289   */\n      swap3\n      swap2\n      pop\n      pop\n      jump\t// out\n        /* \"#utility.yul\":4295:4449   */\n    tag_233:\n        /* \"#utility.yul\":4384:4388   */\n      0x00\n        /* \"#utility.yul\":4407:4410   */\n      dup2\n        /* \"#utility.yul\":4399:4410   */\n      swap1\n      pop\n        /* \"#utility.yul\":4437:4441   */\n      0x20\n        /* \"#utility.yul\":4432:4435   */\n      dup3\n        /* \"#utility.yul\":4428:4442   */\n      add\n        /* \"#utility.yul\":4420:4442   */\n      swap1\n      pop\n        /* \"#utility.yul\":4295:4449   */\n      swap2\n      swap1\n      pop\n      jump\t// out\n        /* \"#utility.yul\":4455:4563   */\n    tag_234:\n        /* \"#utility.yul\":4532:4556   */\n      tag_331\n        /* \"#utility.yul\":4550:4555   */\n      dup2\n        /* \"#utility.yul\":4532:4556   */\n      tag_219\n      jump\t// in\n    tag_331:\n        /* \"#utility.yul\":4527:4530   */\n      dup3\n        /* \"#utility.yul\":4520:4557   */\n      mstore\n        /* \"#utility.yul\":4455:4563   */\n      pop\n      pop\n      jump\t// out\n        /* \"#utility.yul\":4569:4677   */\n    tag_235:\n        /* \"#utility.yul\":4646:4670   */\n      tag_333\n        /* \"#utility.yul\":4664:4669   */\n      dup2\n        /* \"#utility.yul\":4646:4670   */\n      tag_222\n      jump\t// in\n    tag_333:\n        /* \"#utility.yul\":4641:4644   */\n      dup3\n        /* \"#utility.yul\":4634:4671   */\n      mstore\n        /* \"#utility.yul\":4569:4677   */\n      pop\n      pop\n      jump\t// out\n        /* \"#utility.yul\":4739:5410   */\n    tag_236:\n        /* \"#utility.yul\":4870:4874   */\n      0x60\n        /* \"#utility.yul\":4865:4868   */\n      dup3\n        /* \"#utility.yul\":4861:4875   */\n      add\n        /* \"#utility.yul\":4959:4963   */\n      0x00\n        /* \"#utility.yul\":4952:4957   */\n      dup3\n        /* \"#utility.yul\":4948:4964   */\n      add\n        /* \"#utility.yul\":4942:4965   */\n      mload\n        /* \"#utility.yul\":4978:5041   */\n      tag_335\n        /* \"#utility.yul\":5035:5039   */\n      0x00\n        /* \"#utility.yul\":5030:5033   */\n      dup6\n        /* \"#utility.yul\":5026:5040   */\n      add\n        /* \"#utility.yul\":5012:5024   */\n      dup3\n        /* \"#utility.yul\":4978:5041   */\n      tag_234\n      jump\t// in\n    tag_335:\n        /* \"#utility.yul\":4885:5051   */\n      pop\n        /* \"#utility.yul\":5136:5140   */\n      0x20\n        /* \"#utility.yul\":5129:5134   */\n      dup3\n        /* \"#utility.yul\":5125:5141   */\n      add\n        /* \"#utility.yul\":5119:5142   */\n      mload\n        /* \"#utility.yul\":5155:5218   */\n      tag_336\n        /* \"#utility.yul\":5212:5216   */\n      0x20\n        /* \"#utility.yul\":5207:5210   */\n      dup6\n        /* \"#utility.yul\":5203:5217   */\n      add\n        /* \"#utility.yul\":5189:5201   */\n      dup3\n        /* \"#utility.yul\":5155:5218   */\n      tag_235\n      jump\t// in\n    tag_336:\n        /* \"#utility.yul\":5061:5228   */\n      pop\n        /* \"#utility.yul\":5311:5315   */\n      0x40\n        /* \"#utility.yul\":5304:5309   */\n      dup3\n        /* \"#utility.yul\":5300:5316   */\n      add\n        /* \"#utility.yul\":5294:5317   */\n      mload\n        /* \"#utility.yul\":5330:5393   */\n      tag_337\n        /* \"#utility.yul\":5387:5391   */\n      0x40\n        /* \"#utility.yul\":5382:5385   */\n      dup6\n        /* \"#utility.yul\":5378:5392   */\n      add\n        /* \"#utility.yul\":5364:5376   */\n      dup3\n        /* \"#utility.yul\":5330:5393   */\n      tag_235\n      jump\t// in\n    tag_337:\n        /* \"#utility.yul\":5238:5403   */\n      pop\n        /* \"#utility.yul\":4839:5410   */\n      pop\n        /* \"#utility.yul\":4739:5410   */\n      pop\n      pop\n      jump\t// out\n        /* \"#utility.yul\":5416:5683   */\n    tag_237:\n        /* \"#utility.yul\":5529:5539   */\n      0x00\n        /* \"#utility.yul\":5550:5640   */\n      tag_339\n        /* \"#utility.yul\":5636:5639   */\n      dup4\n        /* \"#utility.yul\":5628:5634   */\n      dup4\n        /* \"#utility.yul\":5550:5640   */\n      tag_236\n      jump\t// in\n    tag_339:\n        /* \"#utility.yul\":5672:5676   */\n      0x60\n        /* \"#utility.yul\":5667:5670   */\n      dup4\n        /* \"#utility.yul\":5663:5677   */\n      add\n        /* \"#utility.yul\":5649:5677   */\n      swap1\n      pop\n        /* \"#utility.yul\":5416:5683   */\n      swap3\n      swap2\n      pop\n      pop\n      jump\t// out\n        /* \"#utility.yul\":5689:5824   */\n    tag_238:\n        /* \"#utility.yul\":5781:5785   */\n      0x00\n        /* \"#utility.yul\":5813:5817   */\n      0x20\n        /* \"#utility.yul\":5808:5811   */\n      dup3\n        /* \"#utility.yul\":5804:5818   */\n      add\n        /* \"#utility.yul\":5796:5818   */\n      swap1\n      pop\n        /* \"#utility.yul\":5689:5824   */\n      swap2\n      swap1\n      pop\n      jump\t// out\n        /* \"#utility.yul\":5890:6798   */\n    tag_239:\n        /* \"#utility.yul\":6053:6056   */\n      0x00\n        /* \"#utility.yul\":6082:6158   */\n      tag_342\n        /* \"#utility.yul\":6152:6157   */\n      dup3\n        /* \"#utility.yul\":6082:6158   */\n      tag_231\n      jump\t// in\n    tag_342:\n        /* \"#utility.yul\":6174:6282   */\n      tag_343\n        /* \"#utility.yul\":6275:6281   */\n      dup2\n        /* \"#utility.yul\":6270:6273   */\n      dup6\n        /* \"#utility.yul\":6174:6282   */\n      tag_232\n      jump\t// in\n    tag_343:\n        /* \"#utility.yul\":6167:6282   */\n      swap4\n      pop\n        /* \"#utility.yul\":6306:6384   */\n      tag_344\n        /* \"#utility.yul\":6378:6383   */\n      dup4\n        /* \"#utility.yul\":6306:6384   */\n      tag_233\n      jump\t// in\n    tag_344:\n        /* \"#utility.yul\":6407:6414   */\n      dup1\n        /* \"#utility.yul\":6438:6439   */\n      0x00\n        /* \"#utility.yul\":6423:6773   */\n    tag_345:\n        /* \"#utility.yul\":6448:6454   */\n      dup4\n        /* \"#utility.yul\":6445:6446   */\n      dup2\n        /* \"#utility.yul\":6442:6455   */\n      lt\n        /* \"#utility.yul\":6423:6773   */\n      iszero\n      tag_347\n      jumpi\n        /* \"#utility.yul\":6524:6530   */\n      dup2\n        /* \"#utility.yul\":6518:6531   */\n      mload\n        /* \"#utility.yul\":6551:6658   */\n      tag_348\n        /* \"#utility.yul\":6654:6657   */\n      dup9\n        /* \"#utility.yul\":6639:6652   */\n      dup3\n        /* \"#utility.yul\":6551:6658   */\n      tag_237\n      jump\t// in\n    tag_348:\n        /* \"#utility.yul\":6544:6658   */\n      swap8\n      pop\n        /* \"#utility.yul\":6681:6763   */\n      tag_349\n        /* \"#utility.yul\":6756:6762   */\n      dup4\n        /* \"#utility.yul\":6681:6763   */\n      tag_238\n      jump\t// in\n    tag_349:\n        /* \"#utility.yul\":6671:6763   */\n      swap3\n      pop\n        /* \"#utility.yul\":6483:6773   */\n      pop\n        /* \"#utility.yul\":6470:6471   */\n      0x01\n        /* \"#utility.yul\":6467:6468   */\n      dup2\n        /* \"#utility.yul\":6463:6472   */\n      add\n        /* \"#utility.yul\":6458:6472   */\n      swap1\n      pop\n        /* \"#utility.yul\":6423:6773   */\n      jump(tag_345)\n    tag_347:\n        /* \"#utility.yul\":6427:6441   */\n      pop\n        /* \"#utility.yul\":6789:6792   */\n      dup6\n        /* \"#utility.yul\":6782:6792   */\n      swap4\n      pop\n        /* \"#utility.yul\":6058:6798   */\n      pop\n      pop\n      pop\n        /* \"#utility.yul\":5890:6798   */\n      swap3\n      swap2\n      pop\n      pop\n      jump\t// out\n        /* \"#utility.yul\":6804:7265   */\n    tag_34:\n        /* \"#utility.yul\":6991:6995   */\n      0x00\n        /* \"#utility.yul\":7029:7031   */\n      0x20\n        /* \"#utility.yul\":7018:7027   */\n      dup3\n        /* \"#utility.yul\":7014:7032   */\n      add\n        /* \"#utility.yul\":7006:7032   */\n      swap1\n      pop\n        /* \"#utility.yul\":7078:7087   */\n      dup2\n        /* \"#utility.yul\":7072:7076   */\n      dup2\n        /* \"#utility.yul\":7068:7088   */\n      sub\n        /* \"#utility.yul\":7064:7065   */\n      0x00\n        /* \"#utility.yul\":7053:7062   */\n      dup4\n        /* \"#utility.yul\":7049:7066   */\n      add\n        /* \"#utility.yul\":7042:7089   */\n      mstore\n        /* \"#utility.yul\":7106:7258   */\n      tag_351\n        /* \"#utility.yul\":7253:7257   */\n      dup2\n        /* \"#utility.yul\":7244:7250   */\n      dup5\n        /* \"#utility.yul\":7106:7258   */\n      tag_239\n      jump\t// in\n    tag_351:\n        /* \"#utility.yul\":7098:7258   */\n      swap1\n      pop\n        /* \"#utility.yul\":6804:7265   */\n      swap3\n      swap2\n      pop\n      pop\n      jump\t// out\n        /* \"#utility.yul\":7271:7331   */\n    tag_240:\n        /* \"#utility.yul\":7299:7302   */\n      0x00\n        /* \"#utility.yul\":7320:7325   */\n      dup2\n        /* \"#utility.yul\":7313:7325   */\n      swap1\n      pop\n        /* \"#utility.yul\":7271:7331   */\n      swap2\n      swap1\n      pop\n      jump\t// out\n        /* \"#utility.yul\":7337:7479   */\n    tag_241:\n        /* \"#utility.yul\":7387:7396   */\n      0x00\n        /* \"#utility.yul\":7420:7473   */\n      tag_354\n        /* \"#utility.yul\":7438:7472   */\n      tag_355\n        /* \"#utility.yul\":7447:7471   */\n      tag_356\n        /* \"#utility.yul\":7465:7470   */\n      dup5\n        /* \"#utility.yul\":7447:7471   */\n      tag_218\n      jump\t// in\n    tag_356:\n        /* \"#utility.yul\":7438:7472   */\n      tag_240\n      jump\t// in\n    tag_355:\n        /* \"#utility.yul\":7420:7473   */\n      tag_218\n      jump\t// in\n    tag_354:\n        /* \"#utility.yul\":7407:7473   */\n      swap1\n      pop\n        /* \"#utility.yul\":7337:7479   */\n      swap2\n      swap1\n      pop\n      jump\t// out\n        /* \"#utility.yul\":7485:7611   */\n    tag_242:\n        /* \"#utility.yul\":7535:7544   */\n      0x00\n        /* \"#utility.yul\":7568:7605   */\n      tag_358\n        /* \"#utility.yul\":7599:7604   */\n      dup3\n        /* \"#utility.yul\":7568:7605   */\n      tag_241\n      jump\t// in\n    tag_358:\n        /* \"#utility.yul\":7555:7605   */\n      swap1\n      pop\n        /* \"#utility.yul\":7485:7611   */\n      swap2\n      swap1\n      pop\n      jump\t// out\n        /* \"#utility.yul\":7617:7756   */\n    tag_243:\n        /* \"#utility.yul\":7680:7689   */\n      0x00\n        /* \"#utility.yul\":7713:7750   */\n      tag_360\n        /* \"#utility.yul\":7744:7749   */\n      dup3\n        /* \"#utility.yul\":7713:7750   */\n      tag_242\n      jump\t// in\n    tag_360:\n        /* \"#utility.yul\":7700:7750   */\n      swap1\n      pop\n        /* \"#utility.yul\":7617:7756   */\n      swap2\n      swap1\n      pop\n      jump\t// out\n        /* \"#utility.yul\":7762:7919   */\n    tag_244:\n        /* \"#utility.yul\":7862:7912   */\n      tag_362\n        /* \"#utility.yul\":7906:7911   */\n      dup2\n        /* \"#utility.yul\":7862:7912   */\n      tag_243\n      jump\t// in\n    tag_362:\n        /* \"#utility.yul\":7857:7860   */\n      dup3\n        /* \"#utility.yul\":7850:7913   */\n      mstore\n        /* \"#utility.yul\":7762:7919   */\n      pop\n      pop\n      jump\t// out\n        /* \"#utility.yul\":7925:8173   */\n    tag_38:\n        /* \"#utility.yul\":8031:8035   */\n      0x00\n        /* \"#utility.yul\":8069:8071   */\n      0x20\n        /* \"#utility.yul\":8058:8067   */\n      dup3\n        /* \"#utility.yul\":8054:8072   */\n      add\n        /* \"#utility.yul\":8046:8072   */\n      swap1\n      pop\n        /* \"#utility.yul\":8082:8166   */\n      tag_364\n        /* \"#utility.yul\":8163:8164   */\n      0x00\n        /* \"#utility.yul\":8152:8161   */\n      dup4\n        /* \"#utility.yul\":8148:8165   */\n      add\n        /* \"#utility.yul\":8139:8145   */\n      dup5\n        /* \"#utility.yul\":8082:8166   */\n      tag_244\n      jump\t// in\n    tag_364:\n        /* \"#utility.yul\":7925:8173   */\n      swap3\n      swap2\n      pop\n      pop\n      jump\t// out\n        /* \"#utility.yul\":8179:8653   */\n    tag_41:\n        /* \"#utility.yul\":8247:8253   */\n      0x00\n        /* \"#utility.yul\":8255:8261   */\n      dup1\n        /* \"#utility.yul\":8304:8306   */\n      0x40\n        /* \"#utility.yul\":8292:8301   */\n      dup4\n        /* \"#utility.yul\":8283:8290   */\n      dup6\n        /* \"#utility.yul\":8279:8302   */\n      sub\n        /* \"#utility.yul\":8275:8307   */\n      slt\n        /* \"#utility.yul\":8272:8391   */\n      iszero\n      tag_366\n      jumpi\n        /* \"#utility.yul\":8310:8389   */\n      tag_367\n      tag_216\n      jump\t// in\n    tag_367:\n        /* \"#utility.yul\":8272:8391   */\n    tag_366:\n        /* \"#utility.yul\":8430:8431   */\n      0x00\n        /* \"#utility.yul\":8455:8508   */\n      tag_368\n        /* \"#utility.yul\":8500:8507   */\n      dup6\n        /* \"#utility.yul\":8491:8497   */\n      dup3\n        /* \"#utility.yul\":8480:8489   */\n      dup7\n        /* \"#utility.yul\":8476:8498   */\n      add\n        /* \"#utility.yul\":8455:8508   */\n      tag_224\n      jump\t// in\n    tag_368:\n        /* \"#utility.yul\":8445:8508   */\n      swap3\n      pop\n        /* \"#utility.yul\":8401:8518   */\n      pop\n        /* \"#utility.yul\":8557:8559   */\n      0x20\n        /* \"#utility.yul\":8583:8636   */\n      tag_369\n        /* \"#utility.yul\":8628:8635   */\n      dup6\n        /* \"#utility.yul\":8619:8625   */\n      dup3\n        /* \"#utility.yul\":8608:8617   */\n      dup7\n        /* \"#utility.yul\":8604:8626   */\n      add\n        /* \"#utility.yul\":8583:8636   */\n      tag_224\n      jump\t// in\n    tag_369:\n        /* \"#utility.yul\":8573:8636   */\n      swap2\n      pop\n        /* \"#utility.yul\":8528:8646   */\n      pop\n        /* \"#utility.yul\":8179:8653   */\n      swap3\n      pop\n      swap3\n      swap1\n      pop\n      jump\t// out\n        /* \"#utility.yul\":8659:8777   */\n    tag_245:\n        /* \"#utility.yul\":8746:8770   */\n      tag_371\n        /* \"#utility.yul\":8764:8769   */\n      dup2\n        /* \"#utility.yul\":8746:8770   */\n      tag_222\n      jump\t// in\n    tag_371:\n        /* \"#utility.yul\":8741:8744   */\n      dup3\n        /* \"#utility.yul\":8734:8771   */\n      mstore\n        /* \"#utility.yul\":8659:8777   */\n      pop\n      pop\n      jump\t// out\n        /* \"#utility.yul\":8783:9005   */\n    tag_46:\n        /* \"#utility.yul\":8876:8880   */\n      0x00\n        /* \"#utility.yul\":8914:8916   */\n      0x20\n        /* \"#utility.yul\":8903:8912   */\n      dup3\n        /* \"#utility.yul\":8899:8917   */\n      add\n        /* \"#utility.yul\":8891:8917   */\n      swap1\n      pop\n        /* \"#utility.yul\":8927:8998   */\n      tag_373\n        /* \"#utility.yul\":8995:8996   */\n      0x00\n        /* \"#utility.yul\":8984:8993   */\n      dup4\n        /* \"#utility.yul\":8980:8997   */\n      add\n        /* \"#utility.yul\":8971:8977   */\n      dup5\n        /* \"#utility.yul\":8927:8998   */\n      tag_245\n      jump\t// in\n    tag_373:\n        /* \"#utility.yul\":8783:9005   */\n      swap3\n      swap2\n      pop\n      pop\n      jump\t// out\n        /* \"#utility.yul\":9011:9129   */\n    tag_246:\n        /* \"#utility.yul\":9098:9122   */\n      tag_375\n        /* \"#utility.yul\":9116:9121   */\n      dup2\n        /* \"#utility.yul\":9098:9122   */\n      tag_219\n      jump\t// in\n    tag_375:\n        /* \"#utility.yul\":9093:9096   */\n      dup3\n        /* \"#utility.yul\":9086:9123   */\n      mstore\n        /* \"#utility.yul\":9011:9129   */\n      pop\n      pop\n      jump\t// out\n        /* \"#utility.yul\":9135:9577   */\n    tag_51:\n        /* \"#utility.yul\":9284:9288   */\n      0x00\n        /* \"#utility.yul\":9322:9324   */\n      0x60\n        /* \"#utility.yul\":9311:9320   */\n      dup3\n        /* \"#utility.yul\":9307:9325   */\n      add\n        /* \"#utility.yul\":9299:9325   */\n      swap1\n      pop\n        /* \"#utility.yul\":9335:9406   */\n      tag_377\n        /* \"#utility.yul\":9403:9404   */\n      0x00\n        /* \"#utility.yul\":9392:9401   */\n      dup4\n        /* \"#utility.yul\":9388:9405   */\n      add\n        /* \"#utility.yul\":9379:9385   */\n      dup7\n        /* \"#utility.yul\":9335:9406   */\n      tag_246\n      jump\t// in\n    tag_377:\n        /* \"#utility.yul\":9416:9488   */\n      tag_378\n        /* \"#utility.yul\":9484:9486   */\n      0x20\n        /* \"#utility.yul\":9473:9482   */\n      dup4\n        /* \"#utility.yul\":9469:9487   */\n      add\n        /* \"#utility.yul\":9460:9466   */\n      dup6\n        /* \"#utility.yul\":9416:9488   */\n      tag_245\n      jump\t// in\n    tag_378:\n        /* \"#utility.yul\":9498:9570   */\n      tag_379\n        /* \"#utility.yul\":9566:9568   */\n      0x40\n        /* \"#utility.yul\":9555:9564   */\n      dup4\n        /* \"#utility.yul\":9551:9569   */\n      add\n        /* \"#utility.yul\":9542:9548   */\n      dup5\n        /* \"#utility.yul\":9498:9570   */\n      tag_245\n      jump\t// in\n    tag_379:\n        /* \"#utility.yul\":9135:9577   */\n      swap5\n      swap4\n      pop\n      pop\n      pop\n      pop\n      jump\t// out\n        /* \"#utility.yul\":9583:9700   */\n    tag_247:\n        /* \"#utility.yul\":9692:9693   */\n      0x00\n        /* \"#utility.yul\":9689:9690   */\n      dup1\n        /* \"#utility.yul\":9682:9694   */\n      revert\n        /* \"#utility.yul\":9706:9808   */\n    tag_248:\n        /* \"#utility.yul\":9747:9753   */\n      0x00\n        /* \"#utility.yul\":9798:9800   */\n      0x1f\n        /* \"#utility.yul\":9794:9801   */\n      not\n        /* \"#utility.yul\":9789:9791   */\n      0x1f\n        /* \"#utility.yul\":9782:9787   */\n      dup4\n        /* \"#utility.yul\":9778:9792   */\n      add\n        /* \"#utility.yul\":9774:9802   */\n      and\n        /* \"#utility.yul\":9764:9802   */\n      swap1\n      pop\n        /* \"#utility.yul\":9706:9808   */\n      swap2\n      swap1\n      pop\n      jump\t// out\n        /* \"#utility.yul\":9814:9994   */\n    tag_109:\n        /* \"#utility.yul\":9862:9939   */\n      0x4e487b7100000000000000000000000000000000000000000000000000000000\n        /* \"#utility.yul\":9859:9860   */\n      0x00\n        /* \"#utility.yul\":9852:9940   */\n      mstore\n        /* \"#utility.yul\":9959:9963   */\n      0x41\n        /* \"#utility.yul\":9956:9957   */\n      0x04\n        /* \"#utility.yul\":9949:9964   */\n      mstore\n        /* \"#utility.yul\":9983:9987   */\n      0x24\n        /* \"#utility.yul\":9980:9981   */\n      0x00\n        /* \"#utility.yul\":9973:9988   */\n      revert\n        /* \"#utility.yul\":10000:10281   */\n    tag_249:\n        /* \"#utility.yul\":10083:10110   */\n      tag_384\n        /* \"#utility.yul\":10105:10109   */\n      dup3\n        /* \"#utility.yul\":10083:10110   */\n      tag_248\n      jump\t// in\n    tag_384:\n        /* \"#utility.yul\":10075:10081   */\n      dup2\n        /* \"#utility.yul\":10071:10111   */\n      add\n        /* \"#utility.yul\":10213:10219   */\n      dup2\n        /* \"#utility.yul\":10201:10211   */\n      dup2\n        /* \"#utility.yul\":10198:10220   */\n      lt\n        /* \"#utility.yul\":10177:10195   */\n      0xffffffffffffffff\n        /* \"#utility.yul\":10165:10175   */\n      dup3\n        /* \"#utility.yul\":10162:10196   */\n      gt\n        /* \"#utility.yul\":10159:10221   */\n      or\n        /* \"#utility.yul\":10156:10244   */\n      iszero\n      tag_385\n      jumpi\n        /* \"#utility.yul\":10224:10242   */\n      tag_386\n      tag_109\n      jump\t// in\n    tag_386:\n        /* \"#utility.yul\":10156:10244   */\n    tag_385:\n        /* \"#utility.yul\":10264:10274   */\n      dup1\n        /* \"#utility.yul\":10260:10262   */\n      0x40\n        /* \"#utility.yul\":10253:10275   */\n      mstore\n        /* \"#utility.yul\":10043:10281   */\n      pop\n        /* \"#utility.yul\":10000:10281   */\n      pop\n      pop\n      jump\t// out\n        /* \"#utility.yul\":10287:10416   */\n    tag_250:\n        /* \"#utility.yul\":10321:10327   */\n      0x00\n        /* \"#utility.yul\":10348:10368   */\n      tag_388\n      tag_215\n      jump\t// in\n    tag_388:\n        /* \"#utility.yul\":10338:10368   */\n      swap1\n      pop\n        /* \"#utility.yul\":10377:10410   */\n      tag_389\n        /* \"#utility.yul\":10405:10409   */\n      dup3\n        /* \"#utility.yul\":10397:10403   */\n      dup3\n        /* \"#utility.yul\":10377:10410   */\n      tag_249\n      jump\t// in\n    tag_389:\n        /* \"#utility.yul\":10287:10416   */\n      swap2\n      swap1\n      pop\n      jump\t// out\n        /* \"#utility.yul\":10422:10729   */\n    tag_251:\n        /* \"#utility.yul\":10483:10487   */\n      0x00\n        /* \"#utility.yul\":10573:10591   */\n      0xffffffffffffffff\n        /* \"#utility.yul\":10565:10571   */\n      dup3\n        /* \"#utility.yul\":10562:10592   */\n      gt\n        /* \"#utility.yul\":10559:10615   */\n      iszero\n      tag_391\n      jumpi\n        /* \"#utility.yul\":10595:10613   */\n      tag_392\n      tag_109\n      jump\t// in\n    tag_392:\n        /* \"#utility.yul\":10559:10615   */\n    tag_391:\n        /* \"#utility.yul\":10633:10662   */\n      tag_393\n        /* \"#utility.yul\":10655:10661   */\n      dup3\n        /* \"#utility.yul\":10633:10662   */\n      tag_248\n      jump\t// in\n    tag_393:\n        /* \"#utility.yul\":10625:10662   */\n      swap1\n      pop\n        /* \"#utility.yul\":10717:10721   */\n      0x20\n        /* \"#utility.yul\":10711:10715   */\n      dup2\n        /* \"#utility.yul\":10707:10722   */\n      add\n        /* \"#utility.yul\":10699:10722   */\n      swap1\n      pop\n        /* \"#utility.yul\":10422:10729   */\n      swap2\n      swap1\n      pop\n      jump\t// out\n        /* \"#utility.yul\":10735:10883   */\n    tag_252:\n        /* \"#utility.yul\":10833:10839   */\n      dup3\n        /* \"#utility.yul\":10828:10831   */\n      dup2\n        /* \"#utility.yul\":10823:10826   */\n      dup4\n        /* \"#utility.yul\":10810:10840   */\n      calldatacopy\n        /* \"#utility.yul\":10874:10875   */\n      0x00\n        /* \"#utility.yul\":10865:10871   */\n      dup4\n        /* \"#utility.yul\":10860:10863   */\n      dup4\n        /* \"#utility.yul\":10856:10872   */\n      add\n        /* \"#utility.yul\":10849:10876   */\n      mstore\n        /* \"#utility.yul\":10735:10883   */\n      pop\n      pop\n      pop\n      jump\t// out\n        /* \"#utility.yul\":10889:11312   */\n    tag_253:\n        /* \"#utility.yul\":10966:10971   */\n      0x00\n        /* \"#utility.yul\":10991:11056   */\n      tag_396\n        /* \"#utility.yul\":11007:11055   */\n      tag_397\n        /* \"#utility.yul\":11048:11054   */\n      dup5\n        /* \"#utility.yul\":11007:11055   */\n      tag_251\n      jump\t// in\n    tag_397:\n        /* \"#utility.yul\":10991:11056   */\n      tag_250\n      jump\t// in\n    tag_396:\n        /* \"#utility.yul\":10982:11056   */\n      swap1\n      pop\n        /* \"#utility.yul\":11079:11085   */\n      dup3\n        /* \"#utility.yul\":11072:11077   */\n      dup2\n        /* \"#utility.yul\":11065:11086   */\n      mstore\n        /* \"#utility.yul\":11117:11121   */\n      0x20\n        /* \"#utility.yul\":11110:11115   */\n      dup2\n        /* \"#utility.yul\":11106:11122   */\n      add\n        /* \"#utility.yul\":11155:11158   */\n      dup5\n        /* \"#utility.yul\":11146:11152   */\n      dup5\n        /* \"#utility.yul\":11141:11144   */\n      dup5\n        /* \"#utility.yul\":11137:11153   */\n      add\n        /* \"#utility.yul\":11134:11159   */\n      gt\n        /* \"#utility.yul\":11131:11243   */\n      iszero\n      tag_398\n      jumpi\n        /* \"#utility.yul\":11162:11241   */\n      tag_399\n      tag_247\n      jump\t// in\n    tag_399:\n        /* \"#utility.yul\":11131:11243   */\n    tag_398:\n        /* \"#utility.yul\":11252:11306   */\n      tag_400\n        /* \"#utility.yul\":11299:11305   */\n      dup5\n        /* \"#utility.yul\":11294:11297   */\n      dup3\n        /* \"#utility.yul\":11289:11292   */\n      dup6\n        /* \"#utility.yul\":11252:11306   */\n      tag_252\n      jump\t// in\n    tag_400:\n        /* \"#utility.yul\":10972:11312   */\n      pop\n        /* \"#utility.yul\":10889:11312   */\n      swap4\n      swap3\n      pop\n      pop\n      pop\n      jump\t// out\n        /* \"#utility.yul\":11331:11669   */\n    tag_254:\n        /* \"#utility.yul\":11386:11391   */\n      0x00\n        /* \"#utility.yul\":11435:11438   */\n      dup3\n        /* \"#utility.yul\":11428:11432   */\n      0x1f\n        /* \"#utility.yul\":11420:11426   */\n      dup4\n        /* \"#utility.yul\":11416:11433   */\n      add\n        /* \"#utility.yul\":11412:11439   */\n      slt\n        /* \"#utility.yul\":11402:11524   */\n      tag_402\n      jumpi\n        /* \"#utility.yul\":11443:11522   */\n      tag_403\n      tag_225\n      jump\t// in\n    tag_403:\n        /* \"#utility.yul\":11402:11524   */\n    tag_402:\n        /* \"#utility.yul\":11560:11566   */\n      dup2\n        /* \"#utility.yul\":11547:11567   */\n      calldataload\n        /* \"#utility.yul\":11585:11663   */\n      tag_404\n        /* \"#utility.yul\":11659:11662   */\n      dup5\n        /* \"#utility.yul\":11651:11657   */\n      dup3\n        /* \"#utility.yul\":11644:11648   */\n      0x20\n        /* \"#utility.yul\":11636:11642   */\n      dup7\n        /* \"#utility.yul\":11632:11649   */\n      add\n        /* \"#utility.yul\":11585:11663   */\n      tag_253\n      jump\t// in\n    tag_404:\n        /* \"#utility.yul\":11576:11663   */\n      swap2\n      pop\n        /* \"#utility.yul\":11392:11669   */\n      pop\n        /* \"#utility.yul\":11331:11669   */\n      swap3\n      swap2\n      pop\n      pop\n      jump\t// out\n        /* \"#utility.yul\":11675:12327   */\n    tag_54:\n        /* \"#utility.yul\":11752:11758   */\n      0x00\n        /* \"#utility.yul\":11760:11766   */\n      dup1\n        /* \"#utility.yul\":11809:11811   */\n      0x40\n        /* \"#utility.yul\":11797:11806   */\n      dup4\n        /* \"#utility.yul\":11788:11795   */\n      dup6\n        /* \"#utility.yul\":11784:11807   */\n      sub\n        /* \"#utility.yul\":11780:11812   */\n      slt\n        /* \"#utility.yul\":11777:11896   */\n      iszero\n      tag_406\n      jumpi\n        /* \"#utility.yul\":11815:11894   */\n      tag_407\n      tag_216\n      jump\t// in\n    tag_407:\n        /* \"#utility.yul\":11777:11896   */\n    tag_406:\n        /* \"#utility.yul\":11963:11964   */\n      0x00\n        /* \"#utility.yul\":11952:11961   */\n      dup4\n        /* \"#utility.yul\":11948:11965   */\n      add\n        /* \"#utility.yul\":11935:11966   */\n      calldataload\n        /* \"#utility.yul\":11993:12011   */\n      0xffffffffffffffff\n        /* \"#utility.yul\":11985:11991   */\n      dup2\n        /* \"#utility.yul\":11982:12012   */\n      gt\n        /* \"#utility.yul\":11979:12096   */\n      iszero\n      tag_408\n      jumpi\n        /* \"#utility.yul\":12015:12094   */\n      tag_409\n      tag_217\n      jump\t// in\n    tag_409:\n        /* \"#utility.yul\":11979:12096   */\n    tag_408:\n        /* \"#utility.yul\":12120:12182   */\n      tag_410\n        /* \"#utility.yul\":12174:12181   */\n      dup6\n        /* \"#utility.yul\":12165:12171   */\n      dup3\n        /* \"#utility.yul\":12154:12163   */\n      dup7\n        /* \"#utility.yul\":12150:12172   */\n      add\n        /* \"#utility.yul\":12120:12182   */\n      tag_254\n      jump\t// in\n    tag_410:\n        /* \"#utility.yul\":12110:12182   */\n      swap3\n      pop\n        /* \"#utility.yul\":11906:12192   */\n      pop\n        /* \"#utility.yul\":12231:12233   */\n      0x20\n        /* \"#utility.yul\":12257:12310   */\n      tag_411\n        /* \"#utility.yul\":12302:12309   */\n      dup6\n        /* \"#utility.yul\":12293:12299   */\n      dup3\n        /* \"#utility.yul\":12282:12291   */\n      dup7\n        /* \"#utility.yul\":12278:12300   */\n      add\n        /* \"#utility.yul\":12257:12310   */\n      tag_224\n      jump\t// in\n    tag_411:\n        /* \"#utility.yul\":12247:12310   */\n      swap2\n      pop\n        /* \"#utility.yul\":12202:12320   */\n      pop\n        /* \"#utility.yul\":11675:12327   */\n      swap3\n      pop\n      swap3\n      swap1\n      pop\n      jump\t// out\n        /* \"#utility.yul\":12333:12474   */\n    tag_255:\n        /* \"#utility.yul\":12398:12407   */\n      0x00\n        /* \"#utility.yul\":12431:12468   */\n      tag_413\n        /* \"#utility.yul\":12462:12467   */\n      dup3\n        /* \"#utility.yul\":12431:12468   */\n      tag_242\n      jump\t// in\n    tag_413:\n        /* \"#utility.yul\":12418:12468   */\n      swap1\n      pop\n        /* \"#utility.yul\":12333:12474   */\n      swap2\n      swap1\n      pop\n      jump\t// out\n        /* \"#utility.yul\":12480:12641   */\n    tag_256:\n        /* \"#utility.yul\":12582:12634   */\n      tag_415\n        /* \"#utility.yul\":12628:12633   */\n      dup2\n        /* \"#utility.yul\":12582:12634   */\n      tag_255\n      jump\t// in\n    tag_415:\n        /* \"#utility.yul\":12577:12580   */\n      dup3\n        /* \"#utility.yul\":12570:12635   */\n      mstore\n        /* \"#utility.yul\":12480:12641   */\n      pop\n      pop\n      jump\t// out\n        /* \"#utility.yul\":12647:12899   */\n    tag_60:\n        /* \"#utility.yul\":12755:12759   */\n      0x00\n        /* \"#utility.yul\":12793:12795   */\n      0x20\n        /* \"#utility.yul\":12782:12791   */\n      dup3\n        /* \"#utility.yul\":12778:12796   */\n      add\n        /* \"#utility.yul\":12770:12796   */\n      swap1\n      pop\n        /* \"#utility.yul\":12806:12892   */\n      tag_417\n        /* \"#utility.yul\":12889:12890   */\n      0x00\n        /* \"#utility.yul\":12878:12887   */\n      dup4\n        /* \"#utility.yul\":12874:12891   */\n      add\n        /* \"#utility.yul\":12865:12871   */\n      dup5\n        /* \"#utility.yul\":12806:12892   */\n      tag_256\n      jump\t// in\n    tag_417:\n        /* \"#utility.yul\":12647:12899   */\n      swap3\n      swap2\n      pop\n      pop\n      jump\t// out\n        /* \"#utility.yul\":12961:13642   */\n    tag_257:\n        /* \"#utility.yul\":13102:13106   */\n      0x60\n        /* \"#utility.yul\":13097:13100   */\n      dup3\n        /* \"#utility.yul\":13093:13107   */\n      add\n        /* \"#utility.yul\":13191:13195   */\n      0x00\n        /* \"#utility.yul\":13184:13189   */\n      dup3\n        /* \"#utility.yul\":13180:13196   */\n      add\n        /* \"#utility.yul\":13174:13197   */\n      mload\n        /* \"#utility.yul\":13210:13273   */\n      tag_419\n        /* \"#utility.yul\":13267:13271   */\n      0x00\n        /* \"#utility.yul\":13262:13265   */\n      dup6\n        /* \"#utility.yul\":13258:13272   */\n      add\n        /* \"#utility.yul\":13244:13256   */\n      dup3\n        /* \"#utility.yul\":13210:13273   */\n      tag_234\n      jump\t// in\n    tag_419:\n        /* \"#utility.yul\":13117:13283   */\n      pop\n        /* \"#utility.yul\":13368:13372   */\n      0x20\n        /* \"#utility.yul\":13361:13366   */\n      dup3\n        /* \"#utility.yul\":13357:13373   */\n      add\n        /* \"#utility.yul\":13351:13374   */\n      mload\n        /* \"#utility.yul\":13387:13450   */\n      tag_420\n        /* \"#utility.yul\":13444:13448   */\n      0x20\n        /* \"#utility.yul\":13439:13442   */\n      dup6\n        /* \"#utility.yul\":13435:13449   */\n      add\n        /* \"#utility.yul\":13421:13433   */\n      dup3\n        /* \"#utility.yul\":13387:13450   */\n      tag_235\n      jump\t// in\n    tag_420:\n        /* \"#utility.yul\":13293:13460   */\n      pop\n        /* \"#utility.yul\":13543:13547   */\n      0x40\n        /* \"#utility.yul\":13536:13541   */\n      dup3\n        /* \"#utility.yul\":13532:13548   */\n      add\n        /* \"#utility.yul\":13526:13549   */\n      mload\n        /* \"#utility.yul\":13562:13625   */\n      tag_421\n        /* \"#utility.yul\":13619:13623   */\n      0x40\n        /* \"#utility.yul\":13614:13617   */\n      dup6\n        /* \"#utility.yul\":13610:13624   */\n      add\n        /* \"#utility.yul\":13596:13608   */\n      dup3\n        /* \"#utility.yul\":13562:13625   */\n      tag_235\n      jump\t// in\n    tag_421:\n        /* \"#utility.yul\":13470:13635   */\n      pop\n        /* \"#utility.yul\":13071:13642   */\n      pop\n        /* \"#utility.yul\":12961:13642   */\n      pop\n      pop\n      jump\t// out\n        /* \"#utility.yul\":13648:13958   */\n    tag_75:\n        /* \"#utility.yul\":13785:13789   */\n      0x00\n        /* \"#utility.yul\":13823:13825   */\n      0x60\n        /* \"#utility.yul\":13812:13821   */\n      dup3\n        /* \"#utility.yul\":13808:13826   */\n      add\n        /* \"#utility.yul\":13800:13826   */\n      swap1\n      pop\n        /* \"#utility.yul\":13836:13951   */\n      tag_423\n        /* \"#utility.yul\":13948:13949   */\n      0x00\n        /* \"#utility.yul\":13937:13946   */\n      dup4\n        /* \"#utility.yul\":13933:13950   */\n      add\n        /* \"#utility.yul\":13924:13930   */\n      dup5\n        /* \"#utility.yul\":13836:13951   */\n      tag_257\n      jump\t// in\n    tag_423:\n        /* \"#utility.yul\":13648:13958   */\n      swap3\n      swap2\n      pop\n      pop\n      jump\t// out\n        /* \"#utility.yul\":13964:14054   */\n    tag_258:\n        /* \"#utility.yul\":13998:14005   */\n      0x00\n        /* \"#utility.yul\":14041:14046   */\n      dup2\n        /* \"#utility.yul\":14034:14047   */\n      iszero\n        /* \"#utility.yul\":14027:14048   */\n      iszero\n        /* \"#utility.yul\":14016:14048   */\n      swap1\n      pop\n        /* \"#utility.yul\":13964:14054   */\n      swap2\n      swap1\n      pop\n      jump\t// out\n        /* \"#utility.yul\":14060:14169   */\n    tag_259:\n        /* \"#utility.yul\":14141:14162   */\n      tag_426\n        /* \"#utility.yul\":14156:14161   */\n      dup2\n        /* \"#utility.yul\":14141:14162   */\n      tag_258\n      jump\t// in\n    tag_426:\n        /* \"#utility.yul\":14136:14139   */\n      dup3\n        /* \"#utility.yul\":14129:14163   */\n      mstore\n        /* \"#utility.yul\":14060:14169   */\n      pop\n      pop\n      jump\t// out\n        /* \"#utility.yul\":14175:14385   */\n    tag_84:\n        /* \"#utility.yul\":14262:14266   */\n      0x00\n        /* \"#utility.yul\":14300:14302   */\n      0x20\n        /* \"#utility.yul\":14289:14298   */\n      dup3\n        /* \"#utility.yul\":14285:14303   */\n      add\n        /* \"#utility.yul\":14277:14303   */\n      swap1\n      pop\n        /* \"#utility.yul\":14313:14378   */\n      tag_428\n        /* \"#utility.yul\":14375:14376   */\n      0x00\n        /* \"#utility.yul\":14364:14373   */\n      dup4\n        /* \"#utility.yul\":14360:14377   */\n      add\n        /* \"#utility.yul\":14351:14357   */\n      dup5\n        /* \"#utility.yul\":14313:14378   */\n      tag_259\n      jump\t// in\n    tag_428:\n        /* \"#utility.yul\":14175:14385   */\n      swap3\n      swap2\n      pop\n      pop\n      jump\t// out\n        /* \"#utility.yul\":14391:14560   */\n    tag_260:\n        /* \"#utility.yul\":14475:14486   */\n      0x00\n        /* \"#utility.yul\":14509:14515   */\n      dup3\n        /* \"#utility.yul\":14504:14507   */\n      dup3\n        /* \"#utility.yul\":14497:14516   */\n      mstore\n        /* \"#utility.yul\":14549:14553   */\n      0x20\n        /* \"#utility.yul\":14544:14547   */\n      dup3\n        /* \"#utility.yul\":14540:14554   */\n      add\n        /* \"#utility.yul\":14525:14554   */\n      swap1\n      pop\n        /* \"#utility.yul\":14391:14560   */\n      swap3\n      swap2\n      pop\n      pop\n      jump\t// out\n        /* \"#utility.yul\":14566:14729   */\n    tag_261:\n        /* \"#utility.yul\":14706:14721   */\n      0x496e76616c696420707269636500000000000000000000000000000000000000\n        /* \"#utility.yul\":14702:14703   */\n      0x00\n        /* \"#utility.yul\":14694:14700   */\n      dup3\n        /* \"#utility.yul\":14690:14704   */\n      add\n        /* \"#utility.yul\":14683:14722   */\n      mstore\n        /* \"#utility.yul\":14566:14729   */\n      pop\n      jump\t// out\n        /* \"#utility.yul\":14735:15101   */\n    tag_262:\n        /* \"#utility.yul\":14877:14880   */\n      0x00\n        /* \"#utility.yul\":14898:14965   */\n      tag_432\n        /* \"#utility.yul\":14962:14964   */\n      0x0d\n        /* \"#utility.yul\":14957:14960   */\n      dup4\n        /* \"#utility.yul\":14898:14965   */\n      tag_260\n      jump\t// in\n    tag_432:\n        /* \"#utility.yul\":14891:14965   */\n      swap2\n      pop\n        /* \"#utility.yul\":14974:15067   */\n      tag_433\n        /* \"#utility.yul\":15063:15066   */\n      dup3\n        /* \"#utility.yul\":14974:15067   */\n      tag_261\n      jump\t// in\n    tag_433:\n        /* \"#utility.yul\":15092:15094   */\n      0x20\n        /* \"#utility.yul\":15087:15090   */\n      dup3\n        /* \"#utility.yul\":15083:15095   */\n      add\n        /* \"#utility.yul\":15076:15095   */\n      swap1\n      pop\n        /* \"#utility.yul\":14735:15101   */\n      swap2\n      swap1\n      pop\n      jump\t// out\n        /* \"#utility.yul\":15107:15526   */\n    tag_89:\n        /* \"#utility.yul\":15273:15277   */\n      0x00\n        /* \"#utility.yul\":15311:15313   */\n      0x20\n        /* \"#utility.yul\":15300:15309   */\n      dup3\n        /* \"#utility.yul\":15296:15314   */\n      add\n        /* \"#utility.yul\":15288:15314   */\n      swap1\n      pop\n        /* \"#utility.yul\":15360:15369   */\n      dup2\n        /* \"#utility.yul\":15354:15358   */\n      dup2\n        /* \"#utility.yul\":15350:15370   */\n      sub\n        /* \"#utility.yul\":15346:15347   */\n      0x00\n        /* \"#utility.yul\":15335:15344   */\n      dup4\n        /* \"#utility.yul\":15331:15348   */\n      add\n        /* \"#utility.yul\":15324:15371   */\n      mstore\n        /* \"#utility.yul\":15388:15519   */\n      tag_435\n        /* \"#utility.yul\":15514:15518   */\n      dup2\n        /* \"#utility.yul\":15388:15519   */\n      tag_262\n      jump\t// in\n    tag_435:\n        /* \"#utility.yul\":15380:15519   */\n      swap1\n      pop\n        /* \"#utility.yul\":15107:15526   */\n      swap2\n      swap1\n      pop\n      jump\t// out\n        /* \"#utility.yul\":15532:15698   */\n    tag_263:\n        /* \"#utility.yul\":15672:15690   */\n      0x496e76616c6964206f70657261746f7200000000000000000000000000000000\n        /* \"#utility.yul\":15668:15669   */\n      0x00\n        /* \"#utility.yul\":15660:15666   */\n      dup3\n        /* \"#utility.yul\":15656:15670   */\n      add\n        /* \"#utility.yul\":15649:15691   */\n      mstore\n        /* \"#utility.yul\":15532:15698   */\n      pop\n      jump\t// out\n        /* \"#utility.yul\":15704:16070   */\n    tag_264:\n        /* \"#utility.yul\":15846:15849   */\n      0x00\n        /* \"#utility.yul\":15867:15934   */\n      tag_438\n        /* \"#utility.yul\":15931:15933   */\n      0x10\n        /* \"#utility.yul\":15926:15929   */\n      dup4\n        /* \"#utility.yul\":15867:15934   */\n      tag_260\n      jump\t// in\n    tag_438:\n        /* \"#utility.yul\":15860:15934   */\n      swap2\n      pop\n        /* \"#utility.yul\":15943:16036   */\n      tag_439\n        /* \"#utility.yul\":16032:16035   */\n      dup3\n        /* \"#utility.yul\":15943:16036   */\n      tag_263\n      jump\t// in\n    tag_439:\n        /* \"#utility.yul\":16061:16063   */\n      0x20\n        /* \"#utility.yul\":16056:16059   */\n      dup3\n        /* \"#utility.yul\":16052:16064   */\n      add\n        /* \"#utility.yul\":16045:16064   */\n      swap1\n      pop\n        /* \"#utility.yul\":15704:16070   */\n      swap2\n      swap1\n      pop\n      jump\t// out\n        /* \"#utility.yul\":16076:16495   */\n    tag_92:\n        /* \"#utility.yul\":16242:16246   */\n      0x00\n        /* \"#utility.yul\":16280:16282   */\n      0x20\n        /* \"#utility.yul\":16269:16278   */\n      dup3\n        /* \"#utility.yul\":16265:16283   */\n      add\n        /* \"#utility.yul\":16257:16283   */\n      swap1\n      pop\n        /* \"#utility.yul\":16329:16338   */\n      dup2\n        /* \"#utility.yul\":16323:16327   */\n      dup2\n        /* \"#utility.yul\":16319:16339   */\n      sub\n        /* \"#utility.yul\":16315:16316   */\n      0x00\n        /* \"#utility.yul\":16304:16313   */\n      dup4\n        /* \"#utility.yul\":16300:16317   */\n      add\n        /* \"#utility.yul\":16293:16340   */\n      mstore\n        /* \"#utility.yul\":16357:16488   */\n      tag_441\n        /* \"#utility.yul\":16483:16487   */\n      dup2\n        /* \"#utility.yul\":16357:16488   */\n      tag_264\n      jump\t// in\n    tag_441:\n        /* \"#utility.yul\":16349:16488   */\n      swap1\n      pop\n        /* \"#utility.yul\":16076:16495   */\n      swap2\n      swap1\n      pop\n      jump\t// out\n        /* \"#utility.yul\":16501:16681   */\n    tag_265:\n        /* \"#utility.yul\":16549:16626   */\n      0x4e487b7100000000000000000000000000000000000000000000000000000000\n        /* \"#utility.yul\":16546:16547   */\n      0x00\n        /* \"#utility.yul\":16539:16627   */\n      mstore\n        /* \"#utility.yul\":16646:16650   */\n      0x11\n        /* \"#utility.yul\":16643:16644   */\n      0x04\n        /* \"#utility.yul\":16636:16651   */\n      mstore\n        /* \"#utility.yul\":16670:16674   */\n      0x24\n        /* \"#utility.yul\":16667:16668   */\n      0x00\n        /* \"#utility.yul\":16660:16675   */\n      revert\n        /* \"#utility.yul\":16687:16881   */\n    tag_95:\n        /* \"#utility.yul\":16727:16731   */\n      0x00\n        /* \"#utility.yul\":16747:16767   */\n      tag_444\n        /* \"#utility.yul\":16765:16766   */\n      dup3\n        /* \"#utility.yul\":16747:16767   */\n      tag_222\n      jump\t// in\n    tag_444:\n        /* \"#utility.yul\":16742:16767   */\n      swap2\n      pop\n        /* \"#utility.yul\":16781:16801   */\n      tag_445\n        /* \"#utility.yul\":16799:16800   */\n      dup4\n        /* \"#utility.yul\":16781:16801   */\n      tag_222\n      jump\t// in\n    tag_445:\n        /* \"#utility.yul\":16776:16801   */\n      swap3\n      pop\n        /* \"#utility.yul\":16825:16826   */\n      dup3\n        /* \"#utility.yul\":16822:16823   */\n      dup3\n        /* \"#utility.yul\":16818:16827   */\n      sub\n        /* \"#utility.yul\":16810:16827   */\n      swap1\n      pop\n        /* \"#utility.yul\":16849:16850   */\n      dup2\n        /* \"#utility.yul\":16843:16847   */\n      dup2\n        /* \"#utility.yul\":16840:16851   */\n      gt\n        /* \"#utility.yul\":16837:16874   */\n      iszero\n      tag_446\n      jumpi\n        /* \"#utility.yul\":16854:16872   */\n      tag_447\n      tag_265\n      jump\t// in\n    tag_447:\n        /* \"#utility.yul\":16837:16874   */\n    tag_446:\n        /* \"#utility.yul\":16687:16881   */\n      swap3\n      swap2\n      pop\n      pop\n      jump\t// out\n        /* \"#utility.yul\":16887:17057   */\n    tag_266:\n        /* \"#utility.yul\":17027:17049   */\n      0x4f7264657220646f6573206e6f74206578697374000000000000000000000000\n        /* \"#utility.yul\":17023:17024   */\n      0x00\n        /* \"#utility.yul\":17015:17021   */\n      dup3\n        /* \"#utility.yul\":17011:17025   */\n      add\n        /* \"#utility.yul\":17004:17050   */\n      mstore\n        /* \"#utility.yul\":16887:17057   */\n      pop\n      jump\t// out\n        /* \"#utility.yul\":17063:17429   */\n    tag_267:\n        /* \"#utility.yul\":17205:17208   */\n      0x00\n        /* \"#utility.yul\":17226:17293   */\n      tag_450\n        /* \"#utility.yul\":17290:17292   */\n      0x14\n        /* \"#utility.yul\":17285:17288   */\n      dup4\n        /* \"#utility.yul\":17226:17293   */\n      tag_260\n      jump\t// in\n    tag_450:\n        /* \"#utility.yul\":17219:17293   */\n      swap2\n      pop\n        /* \"#utility.yul\":17302:17395   */\n      tag_451\n        /* \"#utility.yul\":17391:17394   */\n      dup3\n        /* \"#utility.yul\":17302:17395   */\n      tag_266\n      jump\t// in\n    tag_451:\n        /* \"#utility.yul\":17420:17422   */\n      0x20\n        /* \"#utility.yul\":17415:17418   */\n      dup3\n        /* \"#utility.yul\":17411:17423   */\n      add\n        /* \"#utility.yul\":17404:17423   */\n      swap1\n      pop\n        /* \"#utility.yul\":17063:17429   */\n      swap2\n      swap1\n      pop\n      jump\t// out\n        /* \"#utility.yul\":17435:17854   */\n    tag_100:\n        /* \"#utility.yul\":17601:17605   */\n      0x00\n        /* \"#utility.yul\":17639:17641   */\n      0x20\n        /* \"#utility.yul\":17628:17637   */\n      dup3\n        /* \"#utility.yul\":17624:17642   */\n      add\n        /* \"#utility.yul\":17616:17642   */\n      swap1\n      pop\n        /* \"#utility.yul\":17688:17697   */\n      dup2\n        /* \"#utility.yul\":17682:17686   */\n      dup2\n        /* \"#utility.yul\":17678:17698   */\n      sub\n        /* \"#utility.yul\":17674:17675   */\n      0x00\n        /* \"#utility.yul\":17663:17672   */\n      dup4\n        /* \"#utility.yul\":17659:17676   */\n      add\n        /* \"#utility.yul\":17652:17699   */\n      mstore\n        /* \"#utility.yul\":17716:17847   */\n      tag_453\n        /* \"#utility.yul\":17842:17846   */\n      dup2\n        /* \"#utility.yul\":17716:17847   */\n      tag_267\n      jump\t// in\n    tag_453:\n        /* \"#utility.yul\":17708:17847   */\n      swap1\n      pop\n        /* \"#utility.yul\":17435:17854   */\n      swap2\n      swap1\n      pop\n      jump\t// out\n        /* \"#utility.yul\":17860:18036   */\n    tag_268:\n        /* \"#utility.yul\":18000:18028   */\n      0x4e6f7420746865206f776e6572206f6620746865206f72646572000000000000\n        /* \"#utility.yul\":17996:17997   */\n      0x00\n        /* \"#utility.yul\":17988:17994   */\n      dup3\n        /* \"#utility.yul\":17984:17998   */\n      add\n        /* \"#utility.yul\":17977:18029   */\n      mstore\n        /* \"#utility.yul\":17860:18036   */\n      pop\n      jump\t// out\n        /* \"#utility.yul\":18042:18408   */\n    tag_269:\n        /* \"#utility.yul\":18184:18187   */\n      0x00\n        /* \"#utility.yul\":18205:18272   */\n      tag_456\n        /* \"#utility.yul\":18269:18271   */\n      0x1a\n        /* \"#utility.yul\":18264:18267   */\n      dup4\n        /* \"#utility.yul\":18205:18272   */\n      tag_260\n      jump\t// in\n    tag_456:\n        /* \"#utility.yul\":18198:18272   */\n      swap2\n      pop\n        /* \"#utility.yul\":18281:18374   */\n      tag_457\n        /* \"#utility.yul\":18370:18373   */\n      dup3\n        /* \"#utility.yul\":18281:18374   */\n      tag_268\n      jump\t// in\n    tag_457:\n        /* \"#utility.yul\":18399:18401   */\n      0x20\n        /* \"#utility.yul\":18394:18397   */\n      dup3\n        /* \"#utility.yul\":18390:18402   */\n      add\n        /* \"#utility.yul\":18383:18402   */\n      swap1\n      pop\n        /* \"#utility.yul\":18042:18408   */\n      swap2\n      swap1\n      pop\n      jump\t// out\n        /* \"#utility.yul\":18414:18833   */\n    tag_103:\n        /* \"#utility.yul\":18580:18584   */\n      0x00\n        /* \"#utility.yul\":18618:18620   */\n      0x20\n        /* \"#utility.yul\":18607:18616   */\n      dup3\n        /* \"#utility.yul\":18603:18621   */\n      add\n        /* \"#utility.yul\":18595:18621   */\n      swap1\n      pop\n        /* \"#utility.yul\":18667:18676   */\n      dup2\n        /* \"#utility.yul\":18661:18665   */\n      dup2\n        /* \"#utility.yul\":18657:18677   */\n      sub\n        /* \"#utility.yul\":18653:18654   */\n      0x00\n        /* \"#utility.yul\":18642:18651   */\n      dup4\n        /* \"#utility.yul\":18638:18655   */\n      add\n        /* \"#utility.yul\":18631:18678   */\n      mstore\n        /* \"#utility.yul\":18695:18826   */\n      tag_459\n        /* \"#utility.yul\":18821:18825   */\n      dup2\n        /* \"#utility.yul\":18695:18826   */\n      tag_269\n      jump\t// in\n    tag_459:\n        /* \"#utility.yul\":18687:18826   */\n      swap1\n      pop\n        /* \"#utility.yul\":18414:18833   */\n      swap2\n      swap1\n      pop\n      jump\t// out\n        /* \"#utility.yul\":18839:19019   */\n    tag_119:\n        /* \"#utility.yul\":18887:18964   */\n      0x4e487b7100000000000000000000000000000000000000000000000000000000\n        /* \"#utility.yul\":18884:18885   */\n      0x00\n        /* \"#utility.yul\":18877:18965   */\n      mstore\n        /* \"#utility.yul\":18984:18988   */\n      0x32\n        /* \"#utility.yul\":18981:18982   */\n      0x04\n        /* \"#utility.yul\":18974:18989   */\n      mstore\n        /* \"#utility.yul\":19008:19012   */\n      0x24\n        /* \"#utility.yul\":19005:19006   */\n      0x00\n        /* \"#utility.yul\":18998:19013   */\n      revert\n        /* \"#utility.yul\":19025:19258   */\n    tag_128:\n        /* \"#utility.yul\":19064:19067   */\n      0x00\n        /* \"#utility.yul\":19087:19111   */\n      tag_462\n        /* \"#utility.yul\":19105:19110   */\n      dup3\n        /* \"#utility.yul\":19087:19111   */\n      tag_222\n      jump\t// in\n    tag_462:\n        /* \"#utility.yul\":19078:19111   */\n      swap2\n      pop\n        /* \"#utility.yul\":19133:19199   */\n      0xffffffffffffffffffffffffffffffffffffffffffffffffffffffffffffffff\n        /* \"#utility.yul\":19126:19131   */\n      dup3\n        /* \"#utility.yul\":19123:19200   */\n      sub\n        /* \"#utility.yul\":19120:19223   */\n      tag_463\n      jumpi\n        /* \"#utility.yul\":19203:19221   */\n      tag_464\n      tag_265\n      jump\t// in\n    tag_464:\n        /* \"#utility.yul\":19120:19223   */\n    tag_463:\n        /* \"#utility.yul\":19250:19251   */\n      0x01\n        /* \"#utility.yul\":19243:19248   */\n      dup3\n        /* \"#utility.yul\":19239:19252   */\n      add\n        /* \"#utility.yul\":19232:19252   */\n      swap1\n      pop\n        /* \"#utility.yul\":19025:19258   */\n      swap2\n      swap1\n      pop\n      jump\t// out\n        /* \"#utility.yul\":19264:19444   */\n    tag_270:\n        /* \"#utility.yul\":19404:19436   */\n      0x4d61726b65743a20546f6b656e204944206973206e6f74206c69737465640000\n        /* \"#utility.yul\":19400:19401   */\n      0x00\n        /* \"#utility.yul\":19392:19398   */\n      dup3\n        /* \"#utility.yul\":19388:19402   */\n      add\n        /* \"#utility.yul\":19381:19437   */\n      mstore\n        /* \"#utility.yul\":19264:19444   */\n      pop\n      jump\t// out\n        /* \"#utility.yul\":19450:19816   */\n    tag_271:\n        /* \"#utility.yul\":19592:19595   */\n      0x00\n        /* \"#utility.yul\":19613:19680   */\n      tag_467\n        /* \"#utility.yul\":19677:19679   */\n      0x1e\n        /* \"#utility.yul\":19672:19675   */\n      dup4\n        /* \"#utility.yul\":19613:19680   */\n      tag_260\n      jump\t// in\n    tag_467:\n        /* \"#utility.yul\":19606:19680   */\n      swap2\n      pop\n        /* \"#utility.yul\":19689:19782   */\n      tag_468\n        /* \"#utility.yul\":19778:19781   */\n      dup3\n        /* \"#utility.yul\":19689:19782   */\n      tag_270\n      jump\t// in\n    tag_468:\n        /* \"#utility.yul\":19807:19809   */\n      0x20\n        /* \"#utility.yul\":19802:19805   */\n      dup3\n        /* \"#utility.yul\":19798:19810   */\n      add\n        /* \"#utility.yul\":19791:19810   */\n      swap1\n      pop\n        /* \"#utility.yul\":19450:19816   */\n      swap2\n      swap1\n      pop\n      jump\t// out\n        /* \"#utility.yul\":19822:20241   */\n    tag_145:\n        /* \"#utility.yul\":19988:19992   */\n      0x00\n        /* \"#utility.yul\":20026:20028   */\n      0x20\n        /* \"#utility.yul\":20015:20024   */\n      dup3\n        /* \"#utility.yul\":20011:20029   */\n      add\n        /* \"#utility.yul\":20003:20029   */\n      swap1\n      pop\n        /* \"#utility.yul\":20075:20084   */\n      dup2\n        /* \"#utility.yul\":20069:20073   */\n      dup2\n        /* \"#utility.yul\":20065:20085   */\n      sub\n        /* \"#utility.yul\":20061:20062   */\n      0x00\n        /* \"#utility.yul\":20050:20059   */\n      dup4\n        /* \"#utility.yul\":20046:20063   */\n      add\n        /* \"#utility.yul\":20039:20086   */\n      mstore\n        /* \"#utility.yul\":20103:20234   */\n      tag_470\n        /* \"#utility.yul\":20229:20233   */\n      dup2\n        /* \"#utility.yul\":20103:20234   */\n      tag_271\n      jump\t// in\n    tag_470:\n        /* \"#utility.yul\":20095:20234   */\n      swap1\n      pop\n        /* \"#utility.yul\":19822:20241   */\n      swap2\n      swap1\n      pop\n      jump\t// out\n        /* \"#utility.yul\":20247:20579   */\n    tag_154:\n        /* \"#utility.yul\":20368:20372   */\n      0x00\n        /* \"#utility.yul\":20406:20408   */\n      0x40\n        /* \"#utility.yul\":20395:20404   */\n      dup3\n        /* \"#utility.yul\":20391:20409   */\n      add\n        /* \"#utility.yul\":20383:20409   */\n      swap1\n      pop\n        /* \"#utility.yul\":20419:20490   */\n      tag_472\n        /* \"#utility.yul\":20487:20488   */\n      0x00\n        /* \"#utility.yul\":20476:20485   */\n      dup4\n        /* \"#utility.yul\":20472:20489   */\n      add\n        /* \"#utility.yul\":20463:20469   */\n      dup6\n        /* \"#utility.yul\":20419:20490   */\n      tag_245\n      jump\t// in\n    tag_472:\n        /* \"#utility.yul\":20500:20572   */\n      tag_473\n        /* \"#utility.yul\":20568:20570   */\n      0x20\n        /* \"#utility.yul\":20557:20566   */\n      dup4\n        /* \"#utility.yul\":20553:20571   */\n      add\n        /* \"#utility.yul\":20544:20550   */\n      dup5\n        /* \"#utility.yul\":20500:20572   */\n      tag_245\n      jump\t// in\n    tag_473:\n        /* \"#utility.yul\":20247:20579   */\n      swap4\n      swap3\n      pop\n      pop\n      pop\n      jump\t// out\n        /* \"#utility.yul\":20585:20776   */\n    tag_160:\n        /* \"#utility.yul\":20625:20628   */\n      0x00\n        /* \"#utility.yul\":20644:20664   */\n      tag_475\n        /* \"#utility.yul\":20662:20663   */\n      dup3\n        /* \"#utility.yul\":20644:20664   */\n      tag_222\n      jump\t// in\n    tag_475:\n        /* \"#utility.yul\":20639:20664   */\n      swap2\n      pop\n        /* \"#utility.yul\":20678:20698   */\n      tag_476\n        /* \"#utility.yul\":20696:20697   */\n      dup4\n        /* \"#utility.yul\":20678:20698   */\n      tag_222\n      jump\t// in\n    tag_476:\n        /* \"#utility.yul\":20673:20698   */\n      swap3\n      pop\n        /* \"#utility.yul\":20721:20722   */\n      dup3\n        /* \"#utility.yul\":20718:20719   */\n      dup3\n        /* \"#utility.yul\":20714:20723   */\n      add\n        /* \"#utility.yul\":20707:20723   */\n      swap1\n      pop\n        /* \"#utility.yul\":20742:20745   */\n      dup1\n        /* \"#utility.yul\":20739:20740   */\n      dup3\n        /* \"#utility.yul\":20736:20746   */\n      gt\n        /* \"#utility.yul\":20733:20769   */\n      iszero\n      tag_477\n      jumpi\n        /* \"#utility.yul\":20749:20767   */\n      tag_478\n      tag_265\n      jump\t// in\n    tag_478:\n        /* \"#utility.yul\":20733:20769   */\n    tag_477:\n        /* \"#utility.yul\":20585:20776   */\n      swap3\n      swap2\n      pop\n      pop\n      jump\t// out\n        /* \"#utility.yul\":20782:20958   */\n    tag_272:\n        /* \"#utility.yul\":20922:20950   */\n      0x4d61726b65743a20746f55696e743235365f6f766572666c6f77000000000000\n        /* \"#utility.yul\":20918:20919   */\n      0x00\n        /* \"#utility.yul\":20910:20916   */\n      dup3\n        /* \"#utility.yul\":20906:20920   */\n      add\n        /* \"#utility.yul\":20899:20951   */\n      mstore\n        /* \"#utility.yul\":20782:20958   */\n      pop\n      jump\t// out\n        /* \"#utility.yul\":20964:21330   */\n    tag_273:\n        /* \"#utility.yul\":21106:21109   */\n      0x00\n        /* \"#utility.yul\":21127:21194   */\n      tag_481\n        /* \"#utility.yul\":21191:21193   */\n      0x1a\n        /* \"#utility.yul\":21186:21189   */\n      dup4\n        /* \"#utility.yul\":21127:21194   */\n      tag_260\n      jump\t// in\n    tag_481:\n        /* \"#utility.yul\":21120:21194   */\n      swap2\n      pop\n        /* \"#utility.yul\":21203:21296   */\n      tag_482\n        /* \"#utility.yul\":21292:21295   */\n      dup3\n        /* \"#utility.yul\":21203:21296   */\n      tag_272\n      jump\t// in\n    tag_482:\n        /* \"#utility.yul\":21321:21323   */\n      0x20\n        /* \"#utility.yul\":21316:21319   */\n      dup3\n        /* \"#utility.yul\":21312:21324   */\n      add\n        /* \"#utility.yul\":21305:21324   */\n      swap1\n      pop\n        /* \"#utility.yul\":20964:21330   */\n      swap2\n      swap1\n      pop\n      jump\t// out\n        /* \"#utility.yul\":21336:21755   */\n    tag_163:\n        /* \"#utility.yul\":21502:21506   */\n      0x00\n        /* \"#utility.yul\":21540:21542   */\n      0x20\n        /* \"#utility.yul\":21529:21538   */\n      dup3\n        /* \"#utility.yul\":21525:21543   */\n      add\n        /* \"#utility.yul\":21517:21543   */\n      swap1\n      pop\n        /* \"#utility.yul\":21589:21598   */\n      dup2\n        /* \"#utility.yul\":21583:21587   */\n      dup2\n        /* \"#utility.yul\":21579:21599   */\n      sub\n        /* \"#utility.yul\":21575:21576   */\n      0x00\n        /* \"#utility.yul\":21564:21573   */\n      dup4\n        /* \"#utility.yul\":21560:21577   */\n      add\n        /* \"#utility.yul\":21553:21600   */\n      mstore\n        /* \"#utility.yul\":21617:21748   */\n      tag_484\n        /* \"#utility.yul\":21743:21747   */\n      dup2\n        /* \"#utility.yul\":21617:21748   */\n      tag_273\n      jump\t// in\n    tag_484:\n        /* \"#utility.yul\":21609:21748   */\n      swap1\n      pop\n        /* \"#utility.yul\":21336:21755   */\n      swap2\n      swap1\n      pop\n      jump\t// out\n        /* \"#utility.yul\":21761:21940   */\n    tag_274:\n        /* \"#utility.yul\":21901:21932   */\n      0x4d61726b65743a20746f55696e743235365f6f75744f66426f756e6473000000\n        /* \"#utility.yul\":21897:21898   */\n      0x00\n        /* \"#utility.yul\":21889:21895   */\n      dup3\n        /* \"#utility.yul\":21885:21899   */\n      add\n        /* \"#utility.yul\":21878:21933   */\n      mstore\n        /* \"#utility.yul\":21761:21940   */\n      pop\n      jump\t// out\n        /* \"#utility.yul\":21946:22312   */\n    tag_275:\n        /* \"#utility.yul\":22088:22091   */\n      0x00\n        /* \"#utility.yul\":22109:22176   */\n      tag_487\n        /* \"#utility.yul\":22173:22175   */\n      0x1d\n        /* \"#utility.yul\":22168:22171   */\n      dup4\n        /* \"#utility.yul\":22109:22176   */\n      tag_260\n      jump\t// in\n    tag_487:\n        /* \"#utility.yul\":22102:22176   */\n      swap2\n      pop\n        /* \"#utility.yul\":22185:22278   */\n      tag_488\n        /* \"#utility.yul\":22274:22277   */\n      dup3\n        /* \"#utility.yul\":22185:22278   */\n      tag_274\n      jump\t// in\n    tag_488:\n        /* \"#utility.yul\":22303:22305   */\n      0x20\n        /* \"#utility.yul\":22298:22301   */\n      dup3\n        /* \"#utility.yul\":22294:22306   */\n      add\n        /* \"#utility.yul\":22287:22306   */\n      swap1\n      pop\n        /* \"#utility.yul\":21946:22312   */\n      swap2\n      swap1\n      pop\n      jump\t// out\n        /* \"#utility.yul\":22318:22737   */\n    tag_167:\n        /* \"#utility.yul\":22484:22488   */\n      0x00\n        /* \"#utility.yul\":22522:22524   */\n      0x20\n        /* \"#utility.yul\":22511:22520   */\n      dup3\n        /* \"#utility.yul\":22507:22525   */\n      add\n        /* \"#utility.yul\":22499:22525   */\n      swap1\n      pop\n        /* \"#utility.yul\":22571:22580   */\n      dup2\n        /* \"#utility.yul\":22565:22569   */\n      dup2\n        /* \"#utility.yul\":22561:22581   */\n      sub\n        /* \"#utility.yul\":22557:22558   */\n      0x00\n        /* \"#utility.yul\":22546:22555   */\n      dup4\n        /* \"#utility.yul\":22542:22559   */\n      add\n        /* \"#utility.yul\":22535:22582   */\n      mstore\n        /* \"#utility.yul\":22599:22730   */\n      tag_490\n        /* \"#utility.yul\":22725:22729   */\n      dup2\n        /* \"#utility.yul\":22599:22730   */\n      tag_275\n      jump\t// in\n    tag_490:\n        /* \"#utility.yul\":22591:22730   */\n      swap1\n      pop\n        /* \"#utility.yul\":22318:22737   */\n      swap2\n      swap1\n      pop\n      jump\t// out\n        /* \"#utility.yul\":22743:22965   */\n    tag_173:\n        /* \"#utility.yul\":22836:22840   */\n      0x00\n        /* \"#utility.yul\":22874:22876   */\n      0x20\n        /* \"#utility.yul\":22863:22872   */\n      dup3\n        /* \"#utility.yul\":22859:22877   */\n      add\n        /* \"#utility.yul\":22851:22877   */\n      swap1\n      pop\n        /* \"#utility.yul\":22887:22958   */\n      tag_492\n        /* \"#utility.yul\":22955:22956   */\n      0x00\n        /* \"#utility.yul\":22944:22953   */\n      dup4\n        /* \"#utility.yul\":22940:22957   */\n      add\n        /* \"#utility.yul\":22931:22937   */\n      dup5\n        /* \"#utility.yul\":22887:22958   */\n      tag_246\n      jump\t// in\n    tag_492:\n        /* \"#utility.yul\":22743:22965   */\n      swap3\n      swap2\n      pop\n      pop\n      jump\t// out\n        /* \"#utility.yul\":22971:23114   */\n    tag_276:\n        /* \"#utility.yul\":23028:23033   */\n      0x00\n        /* \"#utility.yul\":23059:23065   */\n      dup2\n        /* \"#utility.yul\":23053:23066   */\n      mload\n        /* \"#utility.yul\":23044:23066   */\n      swap1\n      pop\n        /* \"#utility.yul\":23075:23108   */\n      tag_494\n        /* \"#utility.yul\":23102:23107   */\n      dup2\n        /* \"#utility.yul\":23075:23108   */\n      tag_223\n      jump\t// in\n    tag_494:\n        /* \"#utility.yul\":22971:23114   */\n      swap3\n      swap2\n      pop\n      pop\n      jump\t// out\n        /* \"#utility.yul\":23120:23471   */\n    tag_177:\n        /* \"#utility.yul\":23190:23196   */\n      0x00\n        /* \"#utility.yul\":23239:23241   */\n      0x20\n        /* \"#utility.yul\":23227:23236   */\n      dup3\n        /* \"#utility.yul\":23218:23225   */\n      dup5\n        /* \"#utility.yul\":23214:23237   */\n      sub\n        /* \"#utility.yul\":23210:23242   */\n      slt\n        /* \"#utility.yul\":23207:23326   */\n      iszero\n      tag_496\n      jumpi\n        /* \"#utility.yul\":23245:23324   */\n      tag_497\n      tag_216\n      jump\t// in\n    tag_497:\n        /* \"#utility.yul\":23207:23326   */\n    tag_496:\n        /* \"#utility.yul\":23365:23366   */\n      0x00\n        /* \"#utility.yul\":23390:23454   */\n      tag_498\n        /* \"#utility.yul\":23446:23453   */\n      dup5\n        /* \"#utility.yul\":23437:23443   */\n      dup3\n        /* \"#utility.yul\":23426:23435   */\n      dup6\n        /* \"#utility.yul\":23422:23444   */\n      add\n        /* \"#utility.yul\":23390:23454   */\n      tag_276\n      jump\t// in\n    tag_498:\n        /* \"#utility.yul\":23380:23454   */\n      swap2\n      pop\n        /* \"#utility.yul\":23336:23464   */\n      pop\n        /* \"#utility.yul\":23120:23471   */\n      swap3\n      swap2\n      pop\n      pop\n      jump\t// out\n        /* \"#utility.yul\":23477:23654   */\n    tag_277:\n        /* \"#utility.yul\":23617:23646   */\n      0x496e73756666696369656e74204552432d32302062616c616e63650000000000\n        /* \"#utility.yul\":23613:23614   */\n      0x00\n        /* \"#utility.yul\":23605:23611   */\n      dup3\n        /* \"#utility.yul\":23601:23615   */\n      add\n        /* \"#utility.yul\":23594:23647   */\n      mstore\n        /* \"#utility.yul\":23477:23654   */\n      pop\n      jump\t// out\n        /* \"#utility.yul\":23660:24026   */\n    tag_278:\n        /* \"#utility.yul\":23802:23805   */\n      0x00\n        /* \"#utility.yul\":23823:23890   */\n      tag_501\n        /* \"#utility.yul\":23887:23889   */\n      0x1b\n        /* \"#utility.yul\":23882:23885   */\n      dup4\n        /* \"#utility.yul\":23823:23890   */\n      tag_260\n      jump\t// in\n    tag_501:\n        /* \"#utility.yul\":23816:23890   */\n      swap2\n      pop\n        /* \"#utility.yul\":23899:23992   */\n      tag_502\n        /* \"#utility.yul\":23988:23991   */\n      dup3\n        /* \"#utility.yul\":23899:23992   */\n      tag_277\n      jump\t// in\n    tag_502:\n        /* \"#utility.yul\":24017:24019   */\n      0x20\n        /* \"#utility.yul\":24012:24015   */\n      dup3\n        /* \"#utility.yul\":24008:24020   */\n      add\n        /* \"#utility.yul\":24001:24020   */\n      swap1\n      pop\n        /* \"#utility.yul\":23660:24026   */\n      swap2\n      swap1\n      pop\n      jump\t// out\n        /* \"#utility.yul\":24032:24451   */\n    tag_180:\n        /* \"#utility.yul\":24198:24202   */\n      0x00\n        /* \"#utility.yul\":24236:24238   */\n      0x20\n        /* \"#utility.yul\":24225:24234   */\n      dup3\n        /* \"#utility.yul\":24221:24239   */\n      add\n        /* \"#utility.yul\":24213:24239   */\n      swap1\n      pop\n        /* \"#utility.yul\":24285:24294   */\n      dup2\n        /* \"#utility.yul\":24279:24283   */\n      dup2\n        /* \"#utility.yul\":24275:24295   */\n      sub\n        /* \"#utility.yul\":24271:24272   */\n      0x00\n        /* \"#utility.yul\":24260:24269   */\n      dup4\n        /* \"#utility.yul\":24256:24273   */\n      add\n        /* \"#utility.yul\":24249:24296   */\n      mstore\n        /* \"#utility.yul\":24313:24444   */\n      tag_504\n        /* \"#utility.yul\":24439:24443   */\n      dup2\n        /* \"#utility.yul\":24313:24444   */\n      tag_278\n      jump\t// in\n    tag_504:\n        /* \"#utility.yul\":24305:24444   */\n      swap1\n      pop\n        /* \"#utility.yul\":24032:24451   */\n      swap2\n      swap1\n      pop\n      jump\t// out\n        /* \"#utility.yul\":24457:24899   */\n    tag_182:\n        /* \"#utility.yul\":24606:24610   */\n      0x00\n        /* \"#utility.yul\":24644:24646   */\n      0x60\n        /* \"#utility.yul\":24633:24642   */\n      dup3\n        /* \"#utility.yul\":24629:24647   */\n      add\n        /* \"#utility.yul\":24621:24647   */\n      swap1\n      pop\n        /* \"#utility.yul\":24657:24728   */\n      tag_506\n        /* \"#utility.yul\":24725:24726   */\n      0x00\n        /* \"#utility.yul\":24714:24723   */\n      dup4\n        /* \"#utility.yul\":24710:24727   */\n      add\n        /* \"#utility.yul\":24701:24707   */\n      dup7\n        /* \"#utility.yul\":24657:24728   */\n      tag_246\n      jump\t// in\n    tag_506:\n        /* \"#utility.yul\":24738:24810   */\n      tag_507\n        /* \"#utility.yul\":24806:24808   */\n      0x20\n        /* \"#utility.yul\":24795:24804   */\n      dup4\n        /* \"#utility.yul\":24791:24809   */\n      add\n        /* \"#utility.yul\":24782:24788   */\n      dup6\n        /* \"#utility.yul\":24738:24810   */\n      tag_246\n      jump\t// in\n    tag_507:\n        /* \"#utility.yul\":24820:24892   */\n      tag_508\n        /* \"#utility.yul\":24888:24890   */\n      0x40\n        /* \"#utility.yul\":24877:24886   */\n      dup4\n        /* \"#utility.yul\":24873:24891   */\n      add\n        /* \"#utility.yul\":24864:24870   */\n      dup5\n        /* \"#utility.yul\":24820:24892   */\n      tag_245\n      jump\t// in\n    tag_508:\n        /* \"#utility.yul\":24457:24899   */\n      swap5\n      swap4\n      pop\n      pop\n      pop\n      pop\n      jump\t// out\n        /* \"#utility.yul\":24905:25021   */\n    tag_279:\n        /* \"#utility.yul\":24975:24996   */\n      tag_510\n        /* \"#utility.yul\":24990:24995   */\n      dup2\n        /* \"#utility.yul\":24975:24996   */\n      tag_258\n      jump\t// in\n    tag_510:\n        /* \"#utility.yul\":24968:24973   */\n      dup2\n        /* \"#utility.yul\":24965:24997   */\n      eq\n        /* \"#utility.yul\":24955:25015   */\n      tag_511\n      jumpi\n        /* \"#utility.yul\":25011:25012   */\n      0x00\n        /* \"#utility.yul\":25008:25009   */\n      dup1\n        /* \"#utility.yul\":25001:25013   */\n      revert\n        /* \"#utility.yul\":24955:25015   */\n    tag_511:\n        /* \"#utility.yul\":24905:25021   */\n      pop\n      jump\t// out\n        /* \"#utility.yul\":25027:25164   */\n    tag_280:\n        /* \"#utility.yul\":25081:25086   */\n      0x00\n        /* \"#utility.yul\":25112:25118   */\n      dup2\n        /* \"#utility.yul\":25106:25119   */\n      mload\n        /* \"#utility.yul\":25097:25119   */\n      swap1\n      pop\n        /* \"#utility.yul\":25128:25158   */\n      tag_513\n        /* \"#utility.yul\":25152:25157   */\n      dup2\n        /* \"#utility.yul\":25128:25158   */\n      tag_279\n      jump\t// in\n    tag_513:\n        /* \"#utility.yul\":25027:25164   */\n      swap3\n      swap2\n      pop\n      pop\n      jump\t// out\n        /* \"#utility.yul\":25170:25515   */\n    tag_186:\n        /* \"#utility.yul\":25237:25243   */\n      0x00\n        /* \"#utility.yul\":25286:25288   */\n      0x20\n        /* \"#utility.yul\":25274:25283   */\n      dup3\n        /* \"#utility.yul\":25265:25272   */\n      dup5\n        /* \"#utility.yul\":25261:25284   */\n      sub\n        /* \"#utility.yul\":25257:25289   */\n      slt\n        /* \"#utility.yul\":25254:25373   */\n      iszero\n      tag_515\n      jumpi\n        /* \"#utility.yul\":25292:25371   */\n      tag_516\n      tag_216\n      jump\t// in\n    tag_516:\n        /* \"#utility.yul\":25254:25373   */\n    tag_515:\n        /* \"#utility.yul\":25412:25413   */\n      0x00\n        /* \"#utility.yul\":25437:25498   */\n      tag_517\n        /* \"#utility.yul\":25490:25497   */\n      dup5\n        /* \"#utility.yul\":25481:25487   */\n      dup3\n        /* \"#utility.yul\":25470:25479   */\n      dup6\n        /* \"#utility.yul\":25466:25488   */\n      add\n        /* \"#utility.yul\":25437:25498   */\n      tag_280\n      jump\t// in\n    tag_517:\n        /* \"#utility.yul\":25427:25498   */\n      swap2\n      pop\n        /* \"#utility.yul\":25383:25508   */\n      pop\n        /* \"#utility.yul\":25170:25515   */\n      swap3\n      swap2\n      pop\n      pop\n      jump\t// out\n        /* \"#utility.yul\":25521:25701   */\n    tag_213:\n        /* \"#utility.yul\":25569:25646   */\n      0x4e487b7100000000000000000000000000000000000000000000000000000000\n        /* \"#utility.yul\":25566:25567   */\n      0x00\n        /* \"#utility.yul\":25559:25647   */\n      mstore\n        /* \"#utility.yul\":25666:25670   */\n      0x31\n        /* \"#utility.yul\":25663:25664   */\n      0x04\n        /* \"#utility.yul\":25656:25671   */\n      mstore\n        /* \"#utility.yul\":25690:25694   */\n      0x24\n        /* \"#utility.yul\":25687:25688   */\n      0x00\n        /* \"#utility.yul\":25680:25695   */\n      revert\n\n    auxdata: 0xa2646970667358221220c1ba49dda7a3070388f2541d5ce489c5586c89827ad384aee698b8fbb21a8f5564736f6c63430008190033\n}\n",
				"bytecode": {
					"linkReferences": {},
					"object": "60c060405234801561000f575f80fd5b506040516124c83803806124c8833981810160405281019061003191906101da565b5f73ffffffffffffffffffffffffffffffffffffffff168273ffffffffffffffffffffffffffffffffffffffff160361009f576040517f08c379a000000000000000000000000000000000000000000000000000000000815260040161009690610272565b60405180910390fd5b5f73ffffffffffffffffffffffffffffffffffffffff168173ffffffffffffffffffffffffffffffffffffffff160361010d576040517f08c379a0000000000000000000000000000000000000000000000000000000008152600401610104906102da565b60405180910390fd5b8173ffffffffffffffffffffffffffffffffffffffff1660808173ffffffffffffffffffffffffffffffffffffffff16815250508073ffffffffffffffffffffffffffffffffffffffff1660a08173ffffffffffffffffffffffffffffffffffffffff168152505050506102f8565b5f80fd5b5f73ffffffffffffffffffffffffffffffffffffffff82169050919050565b5f6101a982610180565b9050919050565b6101b98161019f565b81146101c3575f80fd5b50565b5f815190506101d4816101b0565b92915050565b5f80604083850312156101f0576101ef61017c565b5b5f6101fd858286016101c6565b925050602061020e858286016101c6565b9150509250929050565b5f82825260208201905092915050565b7f496e76616c6964204552432d323020636f6e74726163742061646472657373005f82015250565b5f61025c601f83610218565b915061026782610228565b602082019050919050565b5f6020820190508181035f83015261028981610250565b9050919050565b7f496e76616c6964204552432d37323120636f6e747261637420616464726573735f82015250565b5f6102c4602083610218565b91506102cf82610290565b602082019050919050565b5f6020820190508181035f8301526102f1816102b8565b9050919050565b60805160a05161219a61032e5f395f8181610cfe0152610f6b01525f81816109f301528181610df40152610ecd015261219a5ff3fe608060405234801561000f575f80fd5b50600436106100f3575f3560e01c8063b5cdf92411610095578063e0391b0911610064578063e0391b0914610287578063e86eac72146102a5578063e9956f1d146102d5578063fcce488314610305576100f3565b8063b5cdf924146101eb578063bca6ce641461021b578063c6561a9c14610239578063d96a094a1461026b576100f3565b8063785e9e86116100d1578063785e9e861461016157806382367b2d1461017f5780639d4971b71461019b578063a85c38ef146101b9576100f3565b8063150b7a02146100f757806340e58ee514610127578063629cb2e414610143575b5f80fd5b610111600480360381019061010c919061163a565b610335565b60405161011e91906116f8565b60405180910390f35b610141600480360381019061013c9190611711565b61060c565b005b61014b610790565b6040516101589190611842565b60405180910390f35b6101696109f1565b60405161017691906118bd565b60405180910390f35b610199600480360381019061019491906118d6565b610a15565b005b6101a3610be8565b6040516101b09190611923565b60405180910390f35b6101d360048036038101906101ce9190611711565b610bf4565b6040516101e29392919061194b565b60405180910390f35b61020560048036038101906102009190611ab8565b610c48565b6040516102129190611923565b60405180910390f35b610223610cfc565b6040516102309190611b32565b60405180910390f35b610253600480360381019061024e9190611711565b610d20565b6040516102629392919061194b565b60405180910390f35b61028560048036038101906102809190611711565b610d64565b005b61028f61108f565b60405161029c9190611842565b60405180910390f35b6102bf60048036038101906102ba9190611711565b611153565b6040516102cc9190611b8b565b60405180910390f35b6102ef60048036038101906102ea9190611711565b611284565b6040516102fc9190611923565b60405180910390f35b61031f600480360381019061031a9190611711565b611299565b60405161032c9190611bbe565b60405180910390f35b5f8061038484848080601f0160208091040260200160405190810160405280939291908181526020018383808284375f81840152601f19601f820116905080830192505050505050505f610c48565b90505f81116103c8576040517f08c379a00000000000000000000000000000000000000000000000000000000081526004016103bf90611c31565b60405180910390fd5b8573ffffffffffffffffffffffffffffffffffffffff168773ffffffffffffffffffffffffffffffffffffffff1614610436576040517f08c379a000000000000000000000000000000000000000000000000000000000815260040161042d90611c99565b60405180910390fd5b60405180606001604052808773ffffffffffffffffffffffffffffffffffffffff168152602001868152602001828152505f808781526020019081526020015f205f820151815f015f6101000a81548173ffffffffffffffffffffffffffffffffffffffff021916908373ffffffffffffffffffffffffffffffffffffffff160217905550602082015181600101556040820151816002015590505060015f808781526020019081526020015f20908060018154018082558091505060019003905f5260205f2090600302015f909190919091505f82015f9054906101000a900473ffffffffffffffffffffffffffffffffffffffff16815f015f6101000a81548173ffffffffffffffffffffffffffffffffffffffff021916908373ffffffffffffffffffffffffffffffffffffffff16021790555060018201548160010155600282015481600201555050600180805490506105949190611ce4565b60025f8781526020019081526020015f2081905550848673ffffffffffffffffffffffffffffffffffffffff167fd5b509e657d5ec37ae4bdcab658b7340c0453bb630516d26623359a34c1cecf3836040516105f09190611923565b60405180910390a363150b7a0260e01b91505095945050505050565b5f805f8381526020019081526020015f2090505f73ffffffffffffffffffffffffffffffffffffffff16815f015f9054906101000a900473ffffffffffffffffffffffffffffffffffffffff1673ffffffffffffffffffffffffffffffffffffffff16036106af576040517f08c379a00000000000000000000000000000000000000000000000000000000081526004016106a690611d61565b60405180910390fd5b3373ffffffffffffffffffffffffffffffffffffffff16815f015f9054906101000a900473ffffffffffffffffffffffffffffffffffffffff1673ffffffffffffffffffffffffffffffffffffffff161461073f576040517f08c379a000000000000000000000000000000000000000000000000000000000815260040161073690611dc9565b60405180910390fd5b61074882611302565b813373ffffffffffffffffffffffffffffffffffffffff167fc0e68d6b69f741c21e955cad2ae4d505b6f6735c7e7b278251b3f6283a5f07eb60405160405180910390a35050565b60605f60018054905067ffffffffffffffff8111156107b2576107b1611994565b5b6040519080825280602002602001820160405280156107eb57816020015b6107d8611507565b8152602001906001900390816107d05790505b5090505f805b60018054905081101561093f573373ffffffffffffffffffffffffffffffffffffffff166001828154811061082957610828611de7565b5b905f5260205f2090600302015f015f9054906101000a900473ffffffffffffffffffffffffffffffffffffffff1673ffffffffffffffffffffffffffffffffffffffff1603610932576001818154811061088657610885611de7565b5b905f5260205f2090600302016040518060600160405290815f82015f9054906101000a900473ffffffffffffffffffffffffffffffffffffffff1673ffffffffffffffffffffffffffffffffffffffff1673ffffffffffffffffffffffffffffffffffffffff1681526020016001820154815260200160028201548152505083838151811061091857610917611de7565b5b6020026020010181905250818061092e90611e14565b9250505b80806001019150506107f1565b505f8167ffffffffffffffff81111561095b5761095a611994565b5b60405190808252806020026020018201604052801561099457816020015b610981611507565b8152602001906001900390816109795790505b5090505f5b828110156109e7578381815181106109b4576109b3611de7565b5b60200260200101518282815181106109cf576109ce611de7565b5b60200260200101819052508080600101915050610999565b5080935050505090565b7f000000000000000000000000000000000000000000000000000000000000000081565b610a1e82611299565b610a5d576040517f08c379a0000000000000000000000000000000000000000000000000000000008152600401610a5490611ea5565b60405180910390fd5b5f805f8481526020019081526020015f2090505f816002015490503373ffffffffffffffffffffffffffffffffffffffff16825f015f9054906101000a900473ffffffffffffffffffffffffffffffffffffffff1673ffffffffffffffffffffffffffffffffffffffff1614610b08576040517f08c379a0000000000000000000000000000000000000000000000000000000008152600401610aff90611dc9565b60405180910390fd5b5f8311610b4a576040517f08c379a0000000000000000000000000000000000000000000000000000000008152600401610b4190611c31565b60405180910390fd5b8282600201819055505f600160025f8781526020019081526020015f205481548110610b7957610b78611de7565b5b905f5260205f2090600302019050838160020181905550843373ffffffffffffffffffffffffffffffffffffffff167f80bfb1c2c88c39acd1902f520205cd407abd405310c1a96e5b7fa2dbec270b4e8487604051610bd9929190611ec3565b60405180910390a35050505050565b5f600180549050905090565b60018181548110610c03575f80fd5b905f5260205f2090600302015f91509050805f015f9054906101000a900473ffffffffffffffffffffffffffffffffffffffff16908060010154908060020154905083565b5f81602083610c579190611eea565b1015610c98576040517f08c379a0000000000000000000000000000000000000000000000000000000008152600401610c8f90611f67565b60405180910390fd5b602082610ca59190611eea565b83511015610ce8576040517f08c379a0000000000000000000000000000000000000000000000000000000008152600401610cdf90611fcf565b60405180910390fd5b5f8260208501015190508091505092915050565b7f000000000000000000000000000000000000000000000000000000000000000081565b5f602052805f5260405f205f91509050805f015f9054906101000a900473ffffffffffffffffffffffffffffffffffffffff16908060010154908060020154905083565b610d6d81611299565b610dac576040517f08c379a0000000000000000000000000000000000000000000000000000000008152600401610da390611ea5565b60405180910390fd5b5f805f8381526020019081526020015f2090505f815f015f9054906101000a900473ffffffffffffffffffffffffffffffffffffffff1690505f3390505f83600201549050807f000000000000000000000000000000000000000000000000000000000000000073ffffffffffffffffffffffffffffffffffffffff166370a08231846040518263ffffffff1660e01b8152600401610e4b9190611fed565b602060405180830381865afa158015610e66573d5f803e3d5ffd5b505050506040513d601f19601f82011682018060405250810190610e8a919061201a565b1015610ecb576040517f08c379a0000000000000000000000000000000000000000000000000000000008152600401610ec29061208f565b60405180910390fd5b7f000000000000000000000000000000000000000000000000000000000000000073ffffffffffffffffffffffffffffffffffffffff166323b872dd8385846040518463ffffffff1660e01b8152600401610f28939291906120ad565b6020604051808303815f875af1158015610f44573d5f803e3d5ffd5b505050506040513d601f19601f82011682018060405250810190610f68919061210c565b507f000000000000000000000000000000000000000000000000000000000000000073ffffffffffffffffffffffffffffffffffffffff166342842e0e3084886040518463ffffffff1660e01b8152600401610fc6939291906120ad565b5f604051808303815f87803b158015610fdd575f80fd5b505af1158015610fef573d5f803e3d5ffd5b50505050610ffc85611302565b84845f015f9054906101000a900473ffffffffffffffffffffffffffffffffffffffff1673ffffffffffffffffffffffffffffffffffffffff163373ffffffffffffffffffffffffffffffffffffffff167f5c096e3246fbf1487455e1c3a85a673b377e4b4447f7de8f0f7fd571ddce009687600201546040516110809190611923565b60405180910390a45050505050565b60606001805480602002602001604051908101604052809291908181526020015f905b8282101561114a578382905f5260205f2090600302016040518060600160405290815f82015f9054906101000a900473ffffffffffffffffffffffffffffffffffffffff1673ffffffffffffffffffffffffffffffffffffffff1673ffffffffffffffffffffffffffffffffffffffff16815260200160018201548152602001600282015481525050815260200190600101906110b2565b50505050905090565b61115b611507565b5f73ffffffffffffffffffffffffffffffffffffffff165f808481526020019081526020015f205f015f9054906101000a900473ffffffffffffffffffffffffffffffffffffffff1673ffffffffffffffffffffffffffffffffffffffff16036111fa576040517f08c379a00000000000000000000000000000000000000000000000000000000081526004016111f190611d61565b60405180910390fd5b5f808381526020019081526020015f206040518060600160405290815f82015f9054906101000a900473ffffffffffffffffffffffffffffffffffffffff1673ffffffffffffffffffffffffffffffffffffffff1673ffffffffffffffffffffffffffffffffffffffff168152602001600182015481526020016002820154815250509050919050565b6002602052805f5260405f205f915090505481565b5f8073ffffffffffffffffffffffffffffffffffffffff165f808481526020019081526020015f205f015f9054906101000a900473ffffffffffffffffffffffffffffffffffffffff1673ffffffffffffffffffffffffffffffffffffffff1614159050919050565b5f808281526020019081526020015f205f8082015f6101000a81549073ffffffffffffffffffffffffffffffffffffffff0219169055600182015f9055600282015f905550505f60025f8381526020019081526020015f205490505f6001808054905061136f9190611ce4565b90508181146114a6575f6001828154811061138d5761138c611de7565b5b905f5260205f2090600302016040518060600160405290815f82015f9054906101000a900473ffffffffffffffffffffffffffffffffffffffff1673ffffffffffffffffffffffffffffffffffffffff1673ffffffffffffffffffffffffffffffffffffffff168152602001600182015481526020016002820154815250509050806001848154811061142357611422611de7565b5b905f5260205f2090600302015f820151815f015f6101000a81548173ffffffffffffffffffffffffffffffffffffffff021916908373ffffffffffffffffffffffffffffffffffffffff16021790555060208201518160010155604082015181600201559050508260025f836020015181526020019081526020015f2081905550505b60018054806114b8576114b7612137565b5b600190038181905f5260205f2090600302015f8082015f6101000a81549073ffffffffffffffffffffffffffffffffffffffff0219169055600182015f9055600282015f905550509055505050565b60405180606001604052805f73ffffffffffffffffffffffffffffffffffffffff1681526020015f81526020015f81525090565b5f604051905090565b5f80fd5b5f80fd5b5f73ffffffffffffffffffffffffffffffffffffffff82169050919050565b5f6115758261154c565b9050919050565b6115858161156b565b811461158f575f80fd5b50565b5f813590506115a08161157c565b92915050565b5f819050919050565b6115b8816115a6565b81146115c2575f80fd5b50565b5f813590506115d3816115af565b92915050565b5f80fd5b5f80fd5b5f80fd5b5f8083601f8401126115fa576115f96115d9565b5b8235905067ffffffffffffffff811115611617576116166115dd565b5b602083019150836001820283011115611633576116326115e1565b5b9250929050565b5f805f805f6080868803121561165357611652611544565b5b5f61166088828901611592565b955050602061167188828901611592565b9450506040611682888289016115c5565b935050606086013567ffffffffffffffff8111156116a3576116a2611548565b5b6116af888289016115e5565b92509250509295509295909350565b5f7fffffffff0000000000000000000000000000000000000000000000000000000082169050919050565b6116f2816116be565b82525050565b5f60208201905061170b5f8301846116e9565b92915050565b5f6020828403121561172657611725611544565b5b5f611733848285016115c5565b91505092915050565b5f81519050919050565b5f82825260208201905092915050565b5f819050602082019050919050565b61176e8161156b565b82525050565b61177d816115a6565b82525050565b606082015f8201516117975f850182611765565b5060208201516117aa6020850182611774565b5060408201516117bd6040850182611774565b50505050565b5f6117ce8383611783565b60608301905092915050565b5f602082019050919050565b5f6117f08261173c565b6117fa8185611746565b935061180583611756565b805f5b8381101561183557815161181c88826117c3565b9750611827836117da565b925050600181019050611808565b5085935050505092915050565b5f6020820190508181035f83015261185a81846117e6565b905092915050565b5f819050919050565b5f61188561188061187b8461154c565b611862565b61154c565b9050919050565b5f6118968261186b565b9050919050565b5f6118a78261188c565b9050919050565b6118b78161189d565b82525050565b5f6020820190506118d05f8301846118ae565b92915050565b5f80604083850312156118ec576118eb611544565b5b5f6118f9858286016115c5565b925050602061190a858286016115c5565b9150509250929050565b61191d816115a6565b82525050565b5f6020820190506119365f830184611914565b92915050565b6119458161156b565b82525050565b5f60608201905061195e5f83018661193c565b61196b6020830185611914565b6119786040830184611914565b949350505050565b5f80fd5b5f601f19601f8301169050919050565b7f4e487b71000000000000000000000000000000000000000000000000000000005f52604160045260245ffd5b6119ca82611984565b810181811067ffffffffffffffff821117156119e9576119e8611994565b5b80604052505050565b5f6119fb61153b565b9050611a0782826119c1565b919050565b5f67ffffffffffffffff821115611a2657611a25611994565b5b611a2f82611984565b9050602081019050919050565b828183375f83830152505050565b5f611a5c611a5784611a0c565b6119f2565b905082815260208101848484011115611a7857611a77611980565b5b611a83848285611a3c565b509392505050565b5f82601f830112611a9f57611a9e6115d9565b5b8135611aaf848260208601611a4a565b91505092915050565b5f8060408385031215611ace57611acd611544565b5b5f83013567ffffffffffffffff811115611aeb57611aea611548565b5b611af785828601611a8b565b9250506020611b08858286016115c5565b9150509250929050565b5f611b1c8261188c565b9050919050565b611b2c81611b12565b82525050565b5f602082019050611b455f830184611b23565b92915050565b606082015f820151611b5f5f850182611765565b506020820151611b726020850182611774565b506040820151611b856040850182611774565b50505050565b5f606082019050611b9e5f830184611b4b565b92915050565b5f8115159050919050565b611bb881611ba4565b82525050565b5f602082019050611bd15f830184611baf565b92915050565b5f82825260208201905092915050565b7f496e76616c6964207072696365000000000000000000000000000000000000005f82015250565b5f611c1b600d83611bd7565b9150611c2682611be7565b602082019050919050565b5f6020820190508181035f830152611c4881611c0f565b9050919050565b7f496e76616c6964206f70657261746f72000000000000000000000000000000005f82015250565b5f611c83601083611bd7565b9150611c8e82611c4f565b602082019050919050565b5f6020820190508181035f830152611cb081611c77565b9050919050565b7f4e487b71000000000000000000000000000000000000000000000000000000005f52601160045260245ffd5b5f611cee826115a6565b9150611cf9836115a6565b9250828203905081811115611d1157611d10611cb7565b5b92915050565b7f4f7264657220646f6573206e6f742065786973740000000000000000000000005f82015250565b5f611d4b601483611bd7565b9150611d5682611d17565b602082019050919050565b5f6020820190508181035f830152611d7881611d3f565b9050919050565b7f4e6f7420746865206f776e6572206f6620746865206f726465720000000000005f82015250565b5f611db3601a83611bd7565b9150611dbe82611d7f565b602082019050919050565b5f6020820190508181035f830152611de081611da7565b9050919050565b7f4e487b71000000000000000000000000000000000000000000000000000000005f52603260045260245ffd5b5f611e1e826115a6565b91507fffffffffffffffffffffffffffffffffffffffffffffffffffffffffffffffff8203611e5057611e4f611cb7565b5b600182019050919050565b7f4d61726b65743a20546f6b656e204944206973206e6f74206c697374656400005f82015250565b5f611e8f601e83611bd7565b9150611e9a82611e5b565b602082019050919050565b5f6020820190508181035f830152611ebc81611e83565b9050919050565b5f604082019050611ed65f830185611914565b611ee36020830184611914565b9392505050565b5f611ef4826115a6565b9150611eff836115a6565b9250828201905080821115611f1757611f16611cb7565b5b92915050565b7f4d61726b65743a20746f55696e743235365f6f766572666c6f770000000000005f82015250565b5f611f51601a83611bd7565b9150611f5c82611f1d565b602082019050919050565b5f6020820190508181035f830152611f7e81611f45565b9050919050565b7f4d61726b65743a20746f55696e743235365f6f75744f66426f756e64730000005f82015250565b5f611fb9601d83611bd7565b9150611fc482611f85565b602082019050919050565b5f6020820190508181035f830152611fe681611fad565b9050919050565b5f6020820190506120005f83018461193c565b92915050565b5f81519050612014816115af565b92915050565b5f6020828403121561202f5761202e611544565b5b5f61203c84828501612006565b91505092915050565b7f496e73756666696369656e74204552432d32302062616c616e636500000000005f82015250565b5f612079601b83611bd7565b915061208482612045565b602082019050919050565b5f6020820190508181035f8301526120a68161206d565b9050919050565b5f6060820190506120c05f83018661193c565b6120cd602083018561193c565b6120da6040830184611914565b949350505050565b6120eb81611ba4565b81146120f5575f80fd5b50565b5f81519050612106816120e2565b92915050565b5f6020828403121561212157612120611544565b5b5f61212e848285016120f8565b91505092915050565b7f4e487b71000000000000000000000000000000000000000000000000000000005f52603160045260245ffdfea2646970667358221220c1ba49dda7a3070388f2541d5ce489c5586c89827ad384aee698b8fbb21a8f5564736f6c63430008190033",
					"opcodes": "PUSH1 0xC0 PUSH1 0x40 MSTORE CALLVALUE DUP1 ISZERO PUSH2 0xF JUMPI PUSH0 DUP1 REVERT JUMPDEST POP PUSH1 0x40 MLOAD PUSH2 0x24C8 CODESIZE SUB DUP1 PUSH2 0x24C8 DUP4 CODECOPY DUP2 DUP2 ADD PUSH1 0x40 MSTORE DUP2 ADD SWAP1 PUSH2 0x31 SWAP2 SWAP1 PUSH2 0x1DA JUMP JUMPDEST PUSH0 PUSH20 0xFFFFFFFFFFFFFFFFFFFFFFFFFFFFFFFFFFFFFFFF AND DUP3 PUSH20 0xFFFFFFFFFFFFFFFFFFFFFFFFFFFFFFFFFFFFFFFF AND SUB PUSH2 0x9F JUMPI PUSH1 0x40 MLOAD PUSH32 0x8C379A000000000000000000000000000000000000000000000000000000000 DUP2 MSTORE PUSH1 0x4 ADD PUSH2 0x96 SWAP1 PUSH2 0x272 JUMP JUMPDEST PUSH1 0x40 MLOAD DUP1 SWAP2 SUB SWAP1 REVERT JUMPDEST PUSH0 PUSH20 0xFFFFFFFFFFFFFFFFFFFFFFFFFFFFFFFFFFFFFFFF AND DUP2 PUSH20 0xFFFFFFFFFFFFFFFFFFFFFFFFFFFFFFFFFFFFFFFF AND SUB PUSH2 0x10D JUMPI PUSH1 0x40 MLOAD PUSH32 0x8C379A000000000000000000000000000000000000000000000000000000000 DUP2 MSTORE PUSH1 0x4 ADD PUSH2 0x104 SWAP1 PUSH2 0x2DA JUMP JUMPDEST PUSH1 0x40 MLOAD DUP1 SWAP2 SUB SWAP1 REVERT JUMPDEST DUP2 PUSH20 0xFFFFFFFFFFFFFFFFFFFFFFFFFFFFFFFFFFFFFFFF AND PUSH1 0x80 DUP2 PUSH20 0xFFFFFFFFFFFFFFFFFFFFFFFFFFFFFFFFFFFFFFFF AND DUP2 MSTORE POP POP DUP1 PUSH20 0xFFFFFFFFFFFFFFFFFFFFFFFFFFFFFFFFFFFFFFFF AND PUSH1 0xA0 DUP2 PUSH20 0xFFFFFFFFFFFFFFFFFFFFFFFFFFFFFFFFFFFFFFFF AND DUP2 MSTORE POP POP POP POP PUSH2 0x2F8 JUMP JUMPDEST PUSH0 DUP1 REVERT JUMPDEST PUSH0 PUSH20 0xFFFFFFFFFFFFFFFFFFFFFFFFFFFFFFFFFFFFFFFF DUP3 AND SWAP1 POP SWAP2 SWAP1 POP JUMP JUMPDEST PUSH0 PUSH2 0x1A9 DUP3 PUSH2 0x180 JUMP JUMPDEST SWAP1 POP SWAP2 SWAP1 POP JUMP JUMPDEST PUSH2 0x1B9 DUP2 PUSH2 0x19F JUMP JUMPDEST DUP2 EQ PUSH2 0x1C3 JUMPI PUSH0 DUP1 REVERT JUMPDEST POP JUMP JUMPDEST PUSH0 DUP2 MLOAD SWAP1 POP PUSH2 0x1D4 DUP2 PUSH2 0x1B0 JUMP JUMPDEST SWAP3 SWAP2 POP POP JUMP JUMPDEST PUSH0 DUP1 PUSH1 0x40 DUP4 DUP6 SUB SLT ISZERO PUSH2 0x1F0 JUMPI PUSH2 0x1EF PUSH2 0x17C JUMP JUMPDEST JUMPDEST PUSH0 PUSH2 0x1FD DUP6 DUP3 DUP7 ADD PUSH2 0x1C6 JUMP JUMPDEST SWAP3 POP POP PUSH1 0x20 PUSH2 0x20E DUP6 DUP3 DUP7 ADD PUSH2 0x1C6 JUMP JUMPDEST SWAP2 POP POP SWAP3 POP SWAP3 SWAP1 POP JUMP JUMPDEST PUSH0 DUP3 DUP3 MSTORE PUSH1 0x20 DUP3 ADD SWAP1 POP SWAP3 SWAP2 POP POP JUMP JUMPDEST PUSH32 0x496E76616C6964204552432D323020636F6E7472616374206164647265737300 PUSH0 DUP3 ADD MSTORE POP JUMP JUMPDEST PUSH0 PUSH2 0x25C PUSH1 0x1F DUP4 PUSH2 0x218 JUMP JUMPDEST SWAP2 POP PUSH2 0x267 DUP3 PUSH2 0x228 JUMP JUMPDEST PUSH1 0x20 DUP3 ADD SWAP1 POP SWAP2 SWAP1 POP JUMP JUMPDEST PUSH0 PUSH1 0x20 DUP3 ADD SWAP1 POP DUP2 DUP2 SUB PUSH0 DUP4 ADD MSTORE PUSH2 0x289 DUP2 PUSH2 0x250 JUMP JUMPDEST SWAP1 POP SWAP2 SWAP1 POP JUMP JUMPDEST PUSH32 0x496E76616C6964204552432D37323120636F6E74726163742061646472657373 PUSH0 DUP3 ADD MSTORE POP JUMP JUMPDEST PUSH0 PUSH2 0x2C4 PUSH1 0x20 DUP4 PUSH2 0x218 JUMP JUMPDEST SWAP2 POP PUSH2 0x2CF DUP3 PUSH2 0x290 JUMP JUMPDEST PUSH1 0x20 DUP3 ADD SWAP1 POP SWAP2 SWAP1 POP JUMP JUMPDEST PUSH0 PUSH1 0x20 DUP3 ADD SWAP1 POP DUP2 DUP2 SUB PUSH0 DUP4 ADD MSTORE PUSH2 0x2F1 DUP2 PUSH2 0x2B8 JUMP JUMPDEST SWAP1 POP SWAP2 SWAP1 POP JUMP JUMPDEST PUSH1 0x80 MLOAD PUSH1 0xA0 MLOAD PUSH2 0x219A PUSH2 0x32E PUSH0 CODECOPY PUSH0 DUP2 DUP2 PUSH2 0xCFE ADD MSTORE PUSH2 0xF6B ADD MSTORE PUSH0 DUP2 DUP2 PUSH2 0x9F3 ADD MSTORE DUP2 DUP2 PUSH2 0xDF4 ADD MSTORE PUSH2 0xECD ADD MSTORE PUSH2 0x219A PUSH0 RETURN INVALID PUSH1 0x80 PUSH1 0x40 MSTORE CALLVALUE DUP1 ISZERO PUSH2 0xF JUMPI PUSH0 DUP1 REVERT JUMPDEST POP PUSH1 0x4 CALLDATASIZE LT PUSH2 0xF3 JUMPI PUSH0 CALLDATALOAD PUSH1 0xE0 SHR DUP1 PUSH4 0xB5CDF924 GT PUSH2 0x95 JUMPI DUP1 PUSH4 0xE0391B09 GT PUSH2 0x64 JUMPI DUP1 PUSH4 0xE0391B09 EQ PUSH2 0x287 JUMPI DUP1 PUSH4 0xE86EAC72 EQ PUSH2 0x2A5 JUMPI DUP1 PUSH4 0xE9956F1D EQ PUSH2 0x2D5 JUMPI DUP1 PUSH4 0xFCCE4883 EQ PUSH2 0x305 JUMPI PUSH2 0xF3 JUMP JUMPDEST DUP1 PUSH4 0xB5CDF924 EQ PUSH2 0x1EB JUMPI DUP1 PUSH4 0xBCA6CE64 EQ PUSH2 0x21B JUMPI DUP1 PUSH4 0xC6561A9C EQ PUSH2 0x239 JUMPI DUP1 PUSH4 0xD96A094A EQ PUSH2 0x26B JUMPI PUSH2 0xF3 JUMP JUMPDEST DUP1 PUSH4 0x785E9E86 GT PUSH2 0xD1 JUMPI DUP1 PUSH4 0x785E9E86 EQ PUSH2 0x161 JUMPI DUP1 PUSH4 0x82367B2D EQ PUSH2 0x17F JUMPI DUP1 PUSH4 0x9D4971B7 EQ PUSH2 0x19B JUMPI DUP1 PUSH4 0xA85C38EF EQ PUSH2 0x1B9 JUMPI PUSH2 0xF3 JUMP JUMPDEST DUP1 PUSH4 0x150B7A02 EQ PUSH2 0xF7 JUMPI DUP1 PUSH4 0x40E58EE5 EQ PUSH2 0x127 JUMPI DUP1 PUSH4 0x629CB2E4 EQ PUSH2 0x143 JUMPI JUMPDEST PUSH0 DUP1 REVERT JUMPDEST PUSH2 0x111 PUSH1 0x4 DUP1 CALLDATASIZE SUB DUP2 ADD SWAP1 PUSH2 0x10C SWAP2 SWAP1 PUSH2 0x163A JUMP JUMPDEST PUSH2 0x335 JUMP JUMPDEST PUSH1 0x40 MLOAD PUSH2 0x11E SWAP2 SWAP1 PUSH2 0x16F8 JUMP JUMPDEST PUSH1 0x40 MLOAD DUP1 SWAP2 SUB SWAP1 RETURN JUMPDEST PUSH2 0x141 PUSH1 0x4 DUP1 CALLDATASIZE SUB DUP2 ADD SWAP1 PUSH2 0x13C SWAP2 SWAP1 PUSH2 0x1711 JUMP JUMPDEST PUSH2 0x60C JUMP JUMPDEST STOP JUMPDEST PUSH2 0x14B PUSH2 0x790 JUMP JUMPDEST PUSH1 0x40 MLOAD PUSH2 0x158 SWAP2 SWAP1 PUSH2 0x1842 JUMP JUMPDEST PUSH1 0x40 MLOAD DUP1 SWAP2 SUB SWAP1 RETURN JUMPDEST PUSH2 0x169 PUSH2 0x9F1 JUMP JUMPDEST PUSH1 0x40 MLOAD PUSH2 0x176 SWAP2 SWAP1 PUSH2 0x18BD JUMP JUMPDEST PUSH1 0x40 MLOAD DUP1 SWAP2 SUB SWAP1 RETURN JUMPDEST PUSH2 0x199 PUSH1 0x4 DUP1 CALLDATASIZE SUB DUP2 ADD SWAP1 PUSH2 0x194 SWAP2 SWAP1 PUSH2 0x18D6 JUMP JUMPDEST PUSH2 0xA15 JUMP JUMPDEST STOP JUMPDEST PUSH2 0x1A3 PUSH2 0xBE8 JUMP JUMPDEST PUSH1 0x40 MLOAD PUSH2 0x1B0 SWAP2 SWAP1 PUSH2 0x1923 JUMP JUMPDEST PUSH1 0x40 MLOAD DUP1 SWAP2 SUB SWAP1 RETURN JUMPDEST PUSH2 0x1D3 PUSH1 0x4 DUP1 CALLDATASIZE SUB DUP2 ADD SWAP1 PUSH2 0x1CE SWAP2 SWAP1 PUSH2 0x1711 JUMP JUMPDEST PUSH2 0xBF4 JUMP JUMPDEST PUSH1 0x40 MLOAD PUSH2 0x1E2 SWAP4 SWAP3 SWAP2 SWAP1 PUSH2 0x194B JUMP JUMPDEST PUSH1 0x40 MLOAD DUP1 SWAP2 SUB SWAP1 RETURN JUMPDEST PUSH2 0x205 PUSH1 0x4 DUP1 CALLDATASIZE SUB DUP2 ADD SWAP1 PUSH2 0x200 SWAP2 SWAP1 PUSH2 0x1AB8 JUMP JUMPDEST PUSH2 0xC48 JUMP JUMPDEST PUSH1 0x40 MLOAD PUSH2 0x212 SWAP2 SWAP1 PUSH2 0x1923 JUMP JUMPDEST PUSH1 0x40 MLOAD DUP1 SWAP2 SUB SWAP1 RETURN JUMPDEST PUSH2 0x223 PUSH2 0xCFC JUMP JUMPDEST PUSH1 0x40 MLOAD PUSH2 0x230 SWAP2 SWAP1 PUSH2 0x1B32 JUMP JUMPDEST PUSH1 0x40 MLOAD DUP1 SWAP2 SUB SWAP1 RETURN JUMPDEST PUSH2 0x253 PUSH1 0x4 DUP1 CALLDATASIZE SUB DUP2 ADD SWAP1 PUSH2 0x24E SWAP2 SWAP1 PUSH2 0x1711 JUMP JUMPDEST PUSH2 0xD20 JUMP JUMPDEST PUSH1 0x40 MLOAD PUSH2 0x262 SWAP4 SWAP3 SWAP2 SWAP1 PUSH2 0x194B JUMP JUMPDEST PUSH1 0x40 MLOAD DUP1 SWAP2 SUB SWAP1 RETURN JUMPDEST PUSH2 0x285 PUSH1 0x4 DUP1 CALLDATASIZE SUB DUP2 ADD SWAP1 PUSH2 0x280 SWAP2 SWAP1 PUSH2 0x1711 JUMP JUMPDEST PUSH2 0xD64 JUMP JUMPDEST STOP JUMPDEST PUSH2 0x28F PUSH2 0x108F JUMP JUMPDEST PUSH1 0x40 MLOAD PUSH2 0x29C SWAP2 SWAP1 PUSH2 0x1842 JUMP JUMPDEST PUSH1 0x40 MLOAD DUP1 SWAP2 SUB SWAP1 RETURN JUMPDEST PUSH2 0x2BF PUSH1 0x4 DUP1 CALLDATASIZE SUB DUP2 ADD SWAP1 PUSH2 0x2BA SWAP2 SWAP1 PUSH2 0x1711 JUMP JUMPDEST PUSH2 0x1153 JUMP JUMPDEST PUSH1 0x40 MLOAD PUSH2 0x2CC SWAP2 SWAP1 PUSH2 0x1B8B JUMP JUMPDEST PUSH1 0x40 MLOAD DUP1 SWAP2 SUB SWAP1 RETURN JUMPDEST PUSH2 0x2EF PUSH1 0x4 DUP1 CALLDATASIZE SUB DUP2 ADD SWAP1 PUSH2 0x2EA SWAP2 SWAP1 PUSH2 0x1711 JUMP JUMPDEST PUSH2 0x1284 JUMP JUMPDEST PUSH1 0x40 MLOAD PUSH2 0x2FC SWAP2 SWAP1 PUSH2 0x1923 JUMP JUMPDEST PUSH1 0x40 MLOAD DUP1 SWAP2 SUB SWAP1 RETURN JUMPDEST PUSH2 0x31F PUSH1 0x4 DUP1 CALLDATASIZE SUB DUP2 ADD SWAP1 PUSH2 0x31A SWAP2 SWAP1 PUSH2 0x1711 JUMP JUMPDEST PUSH2 0x1299 JUMP JUMPDEST PUSH1 0x40 MLOAD PUSH2 0x32C SWAP2 SWAP1 PUSH2 0x1BBE JUMP JUMPDEST PUSH1 0x40 MLOAD DUP1 SWAP2 SUB SWAP1 RETURN JUMPDEST PUSH0 DUP1 PUSH2 0x384 DUP5 DUP5 DUP1 DUP1 PUSH1 0x1F ADD PUSH1 0x20 DUP1 SWAP2 DIV MUL PUSH1 0x20 ADD PUSH1 0x40 MLOAD SWAP1 DUP2 ADD PUSH1 0x40 MSTORE DUP1 SWAP4 SWAP3 SWAP2 SWAP1 DUP2 DUP2 MSTORE PUSH1 0x20 ADD DUP4 DUP4 DUP1 DUP3 DUP5 CALLDATACOPY PUSH0 DUP2 DUP5 ADD MSTORE PUSH1 0x1F NOT PUSH1 0x1F DUP3 ADD AND SWAP1 POP DUP1 DUP4 ADD SWAP3 POP POP POP POP POP POP POP PUSH0 PUSH2 0xC48 JUMP JUMPDEST SWAP1 POP PUSH0 DUP2 GT PUSH2 0x3C8 JUMPI PUSH1 0x40 MLOAD PUSH32 0x8C379A000000000000000000000000000000000000000000000000000000000 DUP2 MSTORE PUSH1 0x4 ADD PUSH2 0x3BF SWAP1 PUSH2 0x1C31 JUMP JUMPDEST PUSH1 0x40 MLOAD DUP1 SWAP2 SUB SWAP1 REVERT JUMPDEST DUP6 PUSH20 0xFFFFFFFFFFFFFFFFFFFFFFFFFFFFFFFFFFFFFFFF AND DUP8 PUSH20 0xFFFFFFFFFFFFFFFFFFFFFFFFFFFFFFFFFFFFFFFF AND EQ PUSH2 0x436 JUMPI PUSH1 0x40 MLOAD PUSH32 0x8C379A000000000000000000000000000000000000000000000000000000000 DUP2 MSTORE PUSH1 0x4 ADD PUSH2 0x42D SWAP1 PUSH2 0x1C99 JUMP JUMPDEST PUSH1 0x40 MLOAD DUP1 SWAP2 SUB SWAP1 REVERT JUMPDEST PUSH1 0x40 MLOAD DUP1 PUSH1 0x60 ADD PUSH1 0x40 MSTORE DUP1 DUP8 PUSH20 0xFFFFFFFFFFFFFFFFFFFFFFFFFFFFFFFFFFFFFFFF AND DUP2 MSTORE PUSH1 0x20 ADD DUP7 DUP2 MSTORE PUSH1 0x20 ADD DUP3 DUP2 MSTORE POP PUSH0 DUP1 DUP8 DUP2 MSTORE PUSH1 0x20 ADD SWAP1 DUP2 MSTORE PUSH1 0x20 ADD PUSH0 KECCAK256 PUSH0 DUP3 ADD MLOAD DUP2 PUSH0 ADD PUSH0 PUSH2 0x100 EXP DUP2 SLOAD DUP2 PUSH20 0xFFFFFFFFFFFFFFFFFFFFFFFFFFFFFFFFFFFFFFFF MUL NOT AND SWAP1 DUP4 PUSH20 0xFFFFFFFFFFFFFFFFFFFFFFFFFFFFFFFFFFFFFFFF AND MUL OR SWAP1 SSTORE POP PUSH1 0x20 DUP3 ADD MLOAD DUP2 PUSH1 0x1 ADD SSTORE PUSH1 0x40 DUP3 ADD MLOAD DUP2 PUSH1 0x2 ADD SSTORE SWAP1 POP POP PUSH1 0x1 PUSH0 DUP1 DUP8 DUP2 MSTORE PUSH1 0x20 ADD SWAP1 DUP2 MSTORE PUSH1 0x20 ADD PUSH0 KECCAK256 SWAP1 DUP1 PUSH1 0x1 DUP2 SLOAD ADD DUP1 DUP3 SSTORE DUP1 SWAP2 POP POP PUSH1 0x1 SWAP1 SUB SWAP1 PUSH0 MSTORE PUSH1 0x20 PUSH0 KECCAK256 SWAP1 PUSH1 0x3 MUL ADD PUSH0 SWAP1 SWAP2 SWAP1 SWAP2 SWAP1 SWAP2 POP PUSH0 DUP3 ADD PUSH0 SWAP1 SLOAD SWAP1 PUSH2 0x100 EXP SWAP1 DIV PUSH20 0xFFFFFFFFFFFFFFFFFFFFFFFFFFFFFFFFFFFFFFFF AND DUP2 PUSH0 ADD PUSH0 PUSH2 0x100 EXP DUP2 SLOAD DUP2 PUSH20 0xFFFFFFFFFFFFFFFFFFFFFFFFFFFFFFFFFFFFFFFF MUL NOT AND SWAP1 DUP4 PUSH20 0xFFFFFFFFFFFFFFFFFFFFFFFFFFFFFFFFFFFFFFFF AND MUL OR SWAP1 SSTORE POP PUSH1 0x1 DUP3 ADD SLOAD DUP2 PUSH1 0x1 ADD SSTORE PUSH1 0x2 DUP3 ADD SLOAD DUP2 PUSH1 0x2 ADD SSTORE POP POP PUSH1 0x1 DUP1 DUP1 SLOAD SWAP1 POP PUSH2 0x594 SWAP2 SWAP1 PUSH2 0x1CE4 JUMP JUMPDEST PUSH1 0x2 PUSH0 DUP8 DUP2 MSTORE PUSH1 0x20 ADD SWAP1 DUP2 MSTORE PUSH1 0x20 ADD PUSH0 KECCAK256 DUP2 SWAP1 SSTORE POP DUP5 DUP7 PUSH20 0xFFFFFFFFFFFFFFFFFFFFFFFFFFFFFFFFFFFFFFFF AND PUSH32 0xD5B509E657D5EC37AE4BDCAB658B7340C0453BB630516D26623359A34C1CECF3 DUP4 PUSH1 0x40 MLOAD PUSH2 0x5F0 SWAP2 SWAP1 PUSH2 0x1923 JUMP JUMPDEST PUSH1 0x40 MLOAD DUP1 SWAP2 SUB SWAP1 LOG3 PUSH4 0x150B7A02 PUSH1 0xE0 SHL SWAP2 POP POP SWAP6 SWAP5 POP POP POP POP POP JUMP JUMPDEST PUSH0 DUP1 PUSH0 DUP4 DUP2 MSTORE PUSH1 0x20 ADD SWAP1 DUP2 MSTORE PUSH1 0x20 ADD PUSH0 KECCAK256 SWAP1 POP PUSH0 PUSH20 0xFFFFFFFFFFFFFFFFFFFFFFFFFFFFFFFFFFFFFFFF AND DUP2 PUSH0 ADD PUSH0 SWAP1 SLOAD SWAP1 PUSH2 0x100 EXP SWAP1 DIV PUSH20 0xFFFFFFFFFFFFFFFFFFFFFFFFFFFFFFFFFFFFFFFF AND PUSH20 0xFFFFFFFFFFFFFFFFFFFFFFFFFFFFFFFFFFFFFFFF AND SUB PUSH2 0x6AF JUMPI PUSH1 0x40 MLOAD PUSH32 0x8C379A000000000000000000000000000000000000000000000000000000000 DUP2 MSTORE PUSH1 0x4 ADD PUSH2 0x6A6 SWAP1 PUSH2 0x1D61 JUMP JUMPDEST PUSH1 0x40 MLOAD DUP1 SWAP2 SUB SWAP1 REVERT JUMPDEST CALLER PUSH20 0xFFFFFFFFFFFFFFFFFFFFFFFFFFFFFFFFFFFFFFFF AND DUP2 PUSH0 ADD PUSH0 SWAP1 SLOAD SWAP1 PUSH2 0x100 EXP SWAP1 DIV PUSH20 0xFFFFFFFFFFFFFFFFFFFFFFFFFFFFFFFFFFFFFFFF AND PUSH20 0xFFFFFFFFFFFFFFFFFFFFFFFFFFFFFFFFFFFFFFFF AND EQ PUSH2 0x73F JUMPI PUSH1 0x40 MLOAD PUSH32 0x8C379A000000000000000000000000000000000000000000000000000000000 DUP2 MSTORE PUSH1 0x4 ADD PUSH2 0x736 SWAP1 PUSH2 0x1DC9 JUMP JUMPDEST PUSH1 0x40 MLOAD DUP1 SWAP2 SUB SWAP1 REVERT JUMPDEST PUSH2 0x748 DUP3 PUSH2 0x1302 JUMP JUMPDEST DUP2 CALLER PUSH20 0xFFFFFFFFFFFFFFFFFFFFFFFFFFFFFFFFFFFFFFFF AND PUSH32 0xC0E68D6B69F741C21E955CAD2AE4D505B6F6735C7E7B278251B3F6283A5F07EB PUSH1 0x40 MLOAD PUSH1 0x40 MLOAD DUP1 SWAP2 SUB SWAP1 LOG3 POP POP JUMP JUMPDEST PUSH1 0x60 PUSH0 PUSH1 0x1 DUP1 SLOAD SWAP1 POP PUSH8 0xFFFFFFFFFFFFFFFF DUP2 GT ISZERO PUSH2 0x7B2 JUMPI PUSH2 0x7B1 PUSH2 0x1994 JUMP JUMPDEST JUMPDEST PUSH1 0x40 MLOAD SWAP1 DUP1 DUP3 MSTORE DUP1 PUSH1 0x20 MUL PUSH1 0x20 ADD DUP3 ADD PUSH1 0x40 MSTORE DUP1 ISZERO PUSH2 0x7EB JUMPI DUP2 PUSH1 0x20 ADD JUMPDEST PUSH2 0x7D8 PUSH2 0x1507 JUMP JUMPDEST DUP2 MSTORE PUSH1 0x20 ADD SWAP1 PUSH1 0x1 SWAP1 SUB SWAP1 DUP2 PUSH2 0x7D0 JUMPI SWAP1 POP JUMPDEST POP SWAP1 POP PUSH0 DUP1 JUMPDEST PUSH1 0x1 DUP1 SLOAD SWAP1 POP DUP2 LT ISZERO PUSH2 0x93F JUMPI CALLER PUSH20 0xFFFFFFFFFFFFFFFFFFFFFFFFFFFFFFFFFFFFFFFF AND PUSH1 0x1 DUP3 DUP2 SLOAD DUP2 LT PUSH2 0x829 JUMPI PUSH2 0x828 PUSH2 0x1DE7 JUMP JUMPDEST JUMPDEST SWAP1 PUSH0 MSTORE PUSH1 0x20 PUSH0 KECCAK256 SWAP1 PUSH1 0x3 MUL ADD PUSH0 ADD PUSH0 SWAP1 SLOAD SWAP1 PUSH2 0x100 EXP SWAP1 DIV PUSH20 0xFFFFFFFFFFFFFFFFFFFFFFFFFFFFFFFFFFFFFFFF AND PUSH20 0xFFFFFFFFFFFFFFFFFFFFFFFFFFFFFFFFFFFFFFFF AND SUB PUSH2 0x932 JUMPI PUSH1 0x1 DUP2 DUP2 SLOAD DUP2 LT PUSH2 0x886 JUMPI PUSH2 0x885 PUSH2 0x1DE7 JUMP JUMPDEST JUMPDEST SWAP1 PUSH0 MSTORE PUSH1 0x20 PUSH0 KECCAK256 SWAP1 PUSH1 0x3 MUL ADD PUSH1 0x40 MLOAD DUP1 PUSH1 0x60 ADD PUSH1 0x40 MSTORE SWAP1 DUP2 PUSH0 DUP3 ADD PUSH0 SWAP1 SLOAD SWAP1 PUSH2 0x100 EXP SWAP1 DIV PUSH20 0xFFFFFFFFFFFFFFFFFFFFFFFFFFFFFFFFFFFFFFFF AND PUSH20 0xFFFFFFFFFFFFFFFFFFFFFFFFFFFFFFFFFFFFFFFF AND PUSH20 0xFFFFFFFFFFFFFFFFFFFFFFFFFFFFFFFFFFFFFFFF AND DUP2 MSTORE PUSH1 0x20 ADD PUSH1 0x1 DUP3 ADD SLOAD DUP2 MSTORE PUSH1 0x20 ADD PUSH1 0x2 DUP3 ADD SLOAD DUP2 MSTORE POP POP DUP4 DUP4 DUP2 MLOAD DUP2 LT PUSH2 0x918 JUMPI PUSH2 0x917 PUSH2 0x1DE7 JUMP JUMPDEST JUMPDEST PUSH1 0x20 MUL PUSH1 0x20 ADD ADD DUP2 SWAP1 MSTORE POP DUP2 DUP1 PUSH2 0x92E SWAP1 PUSH2 0x1E14 JUMP JUMPDEST SWAP3 POP POP JUMPDEST DUP1 DUP1 PUSH1 0x1 ADD SWAP2 POP POP PUSH2 0x7F1 JUMP JUMPDEST POP PUSH0 DUP2 PUSH8 0xFFFFFFFFFFFFFFFF DUP2 GT ISZERO PUSH2 0x95B JUMPI PUSH2 0x95A PUSH2 0x1994 JUMP JUMPDEST JUMPDEST PUSH1 0x40 MLOAD SWAP1 DUP1 DUP3 MSTORE DUP1 PUSH1 0x20 MUL PUSH1 0x20 ADD DUP3 ADD PUSH1 0x40 MSTORE DUP1 ISZERO PUSH2 0x994 JUMPI DUP2 PUSH1 0x20 ADD JUMPDEST PUSH2 0x981 PUSH2 0x1507 JUMP JUMPDEST DUP2 MSTORE PUSH1 0x20 ADD SWAP1 PUSH1 0x1 SWAP1 SUB SWAP1 DUP2 PUSH2 0x979 JUMPI SWAP1 POP JUMPDEST POP SWAP1 POP PUSH0 JUMPDEST DUP3 DUP2 LT ISZERO PUSH2 0x9E7 JUMPI DUP4 DUP2 DUP2 MLOAD DUP2 LT PUSH2 0x9B4 JUMPI PUSH2 0x9B3 PUSH2 0x1DE7 JUMP JUMPDEST JUMPDEST PUSH1 0x20 MUL PUSH1 0x20 ADD ADD MLOAD DUP3 DUP3 DUP2 MLOAD DUP2 LT PUSH2 0x9CF JUMPI PUSH2 0x9CE PUSH2 0x1DE7 JUMP JUMPDEST JUMPDEST PUSH1 0x20 MUL PUSH1 0x20 ADD ADD DUP2 SWAP1 MSTORE POP DUP1 DUP1 PUSH1 0x1 ADD SWAP2 POP POP PUSH2 0x999 JUMP JUMPDEST POP DUP1 SWAP4 POP POP POP POP SWAP1 JUMP JUMPDEST PUSH32 0x0 DUP2 JUMP JUMPDEST PUSH2 0xA1E DUP3 PUSH2 0x1299 JUMP JUMPDEST PUSH2 0xA5D JUMPI PUSH1 0x40 MLOAD PUSH32 0x8C379A000000000000000000000000000000000000000000000000000000000 DUP2 MSTORE PUSH1 0x4 ADD PUSH2 0xA54 SWAP1 PUSH2 0x1EA5 JUMP JUMPDEST PUSH1 0x40 MLOAD DUP1 SWAP2 SUB SWAP1 REVERT JUMPDEST PUSH0 DUP1 PUSH0 DUP5 DUP2 MSTORE PUSH1 0x20 ADD SWAP1 DUP2 MSTORE PUSH1 0x20 ADD PUSH0 KECCAK256 SWAP1 POP PUSH0 DUP2 PUSH1 0x2 ADD SLOAD SWAP1 POP CALLER PUSH20 0xFFFFFFFFFFFFFFFFFFFFFFFFFFFFFFFFFFFFFFFF AND DUP3 PUSH0 ADD PUSH0 SWAP1 SLOAD SWAP1 PUSH2 0x100 EXP SWAP1 DIV PUSH20 0xFFFFFFFFFFFFFFFFFFFFFFFFFFFFFFFFFFFFFFFF AND PUSH20 0xFFFFFFFFFFFFFFFFFFFFFFFFFFFFFFFFFFFFFFFF AND EQ PUSH2 0xB08 JUMPI PUSH1 0x40 MLOAD PUSH32 0x8C379A000000000000000000000000000000000000000000000000000000000 DUP2 MSTORE PUSH1 0x4 ADD PUSH2 0xAFF SWAP1 PUSH2 0x1DC9 JUMP JUMPDEST PUSH1 0x40 MLOAD DUP1 SWAP2 SUB SWAP1 REVERT JUMPDEST PUSH0 DUP4 GT PUSH2 0xB4A JUMPI PUSH1 0x40 MLOAD PUSH32 0x8C379A000000000000000000000000000000000000000000000000000000000 DUP2 MSTORE PUSH1 0x4 ADD PUSH2 0xB41 SWAP1 PUSH2 0x1C31 JUMP JUMPDEST PUSH1 0x40 MLOAD DUP1 SWAP2 SUB SWAP1 REVERT JUMPDEST DUP3 DUP3 PUSH1 0x2 ADD DUP2 SWAP1 SSTORE POP PUSH0 PUSH1 0x1 PUSH1 0x2 PUSH0 DUP8 DUP2 MSTORE PUSH1 0x20 ADD SWAP1 DUP2 MSTORE PUSH1 0x20 ADD PUSH0 KECCAK256 SLOAD DUP2 SLOAD DUP2 LT PUSH2 0xB79 JUMPI PUSH2 0xB78 PUSH2 0x1DE7 JUMP JUMPDEST JUMPDEST SWAP1 PUSH0 MSTORE PUSH1 0x20 PUSH0 KECCAK256 SWAP1 PUSH1 0x3 MUL ADD SWAP1 POP DUP4 DUP2 PUSH1 0x2 ADD DUP2 SWAP1 SSTORE POP DUP5 CALLER PUSH20 0xFFFFFFFFFFFFFFFFFFFFFFFFFFFFFFFFFFFFFFFF AND PUSH32 0x80BFB1C2C88C39ACD1902F520205CD407ABD405310C1A96E5B7FA2DBEC270B4E DUP5 DUP8 PUSH1 0x40 MLOAD PUSH2 0xBD9 SWAP3 SWAP2 SWAP1 PUSH2 0x1EC3 JUMP JUMPDEST PUSH1 0x40 MLOAD DUP1 SWAP2 SUB SWAP1 LOG3 POP POP POP POP POP JUMP JUMPDEST PUSH0 PUSH1 0x1 DUP1 SLOAD SWAP1 POP SWAP1 POP SWAP1 JUMP JUMPDEST PUSH1 0x1 DUP2 DUP2 SLOAD DUP2 LT PUSH2 0xC03 JUMPI PUSH0 DUP1 REVERT JUMPDEST SWAP1 PUSH0 MSTORE PUSH1 0x20 PUSH0 KECCAK256 SWAP1 PUSH1 0x3 MUL ADD PUSH0 SWAP2 POP SWAP1 POP DUP1 PUSH0 ADD PUSH0 SWAP1 SLOAD SWAP1 PUSH2 0x100 EXP SWAP1 DIV PUSH20 0xFFFFFFFFFFFFFFFFFFFFFFFFFFFFFFFFFFFFFFFF AND SWAP1 DUP1 PUSH1 0x1 ADD SLOAD SWAP1 DUP1 PUSH1 0x2 ADD SLOAD SWAP1 POP DUP4 JUMP JUMPDEST PUSH0 DUP2 PUSH1 0x20 DUP4 PUSH2 0xC57 SWAP2 SWAP1 PUSH2 0x1EEA JUMP JUMPDEST LT ISZERO PUSH2 0xC98 JUMPI PUSH1 0x40 MLOAD PUSH32 0x8C379A000000000000000000000000000000000000000000000000000000000 DUP2 MSTORE PUSH1 0x4 ADD PUSH2 0xC8F SWAP1 PUSH2 0x1F67 JUMP JUMPDEST PUSH1 0x40 MLOAD DUP1 SWAP2 SUB SWAP1 REVERT JUMPDEST PUSH1 0x20 DUP3 PUSH2 0xCA5 SWAP2 SWAP1 PUSH2 0x1EEA JUMP JUMPDEST DUP4 MLOAD LT ISZERO PUSH2 0xCE8 JUMPI PUSH1 0x40 MLOAD PUSH32 0x8C379A000000000000000000000000000000000000000000000000000000000 DUP2 MSTORE PUSH1 0x4 ADD PUSH2 0xCDF SWAP1 PUSH2 0x1FCF JUMP JUMPDEST PUSH1 0x40 MLOAD DUP1 SWAP2 SUB SWAP1 REVERT JUMPDEST PUSH0 DUP3 PUSH1 0x20 DUP6 ADD ADD MLOAD SWAP1 POP DUP1 SWAP2 POP POP SWAP3 SWAP2 POP POP JUMP JUMPDEST PUSH32 0x0 DUP2 JUMP JUMPDEST PUSH0 PUSH1 0x20 MSTORE DUP1 PUSH0 MSTORE PUSH1 0x40 PUSH0 KECCAK256 PUSH0 SWAP2 POP SWAP1 POP DUP1 PUSH0 ADD PUSH0 SWAP1 SLOAD SWAP1 PUSH2 0x100 EXP SWAP1 DIV PUSH20 0xFFFFFFFFFFFFFFFFFFFFFFFFFFFFFFFFFFFFFFFF AND SWAP1 DUP1 PUSH1 0x1 ADD SLOAD SWAP1 DUP1 PUSH1 0x2 ADD SLOAD SWAP1 POP DUP4 JUMP JUMPDEST PUSH2 0xD6D DUP2 PUSH2 0x1299 JUMP JUMPDEST PUSH2 0xDAC JUMPI PUSH1 0x40 MLOAD PUSH32 0x8C379A000000000000000000000000000000000000000000000000000000000 DUP2 MSTORE PUSH1 0x4 ADD PUSH2 0xDA3 SWAP1 PUSH2 0x1EA5 JUMP JUMPDEST PUSH1 0x40 MLOAD DUP1 SWAP2 SUB SWAP1 REVERT JUMPDEST PUSH0 DUP1 PUSH0 DUP4 DUP2 MSTORE PUSH1 0x20 ADD SWAP1 DUP2 MSTORE PUSH1 0x20 ADD PUSH0 KECCAK256 SWAP1 POP PUSH0 DUP2 PUSH0 ADD PUSH0 SWAP1 SLOAD SWAP1 PUSH2 0x100 EXP SWAP1 DIV PUSH20 0xFFFFFFFFFFFFFFFFFFFFFFFFFFFFFFFFFFFFFFFF AND SWAP1 POP PUSH0 CALLER SWAP1 POP PUSH0 DUP4 PUSH1 0x2 ADD SLOAD SWAP1 POP DUP1 PUSH32 0x0 PUSH20 0xFFFFFFFFFFFFFFFFFFFFFFFFFFFFFFFFFFFFFFFF AND PUSH4 0x70A08231 DUP5 PUSH1 0x40 MLOAD DUP3 PUSH4 0xFFFFFFFF AND PUSH1 0xE0 SHL DUP2 MSTORE PUSH1 0x4 ADD PUSH2 0xE4B SWAP2 SWAP1 PUSH2 0x1FED JUMP JUMPDEST PUSH1 0x20 PUSH1 0x40 MLOAD DUP1 DUP4 SUB DUP2 DUP7 GAS STATICCALL ISZERO DUP1 ISZERO PUSH2 0xE66 JUMPI RETURNDATASIZE PUSH0 DUP1 RETURNDATACOPY RETURNDATASIZE PUSH0 REVERT JUMPDEST POP POP POP POP PUSH1 0x40 MLOAD RETURNDATASIZE PUSH1 0x1F NOT PUSH1 0x1F DUP3 ADD AND DUP3 ADD DUP1 PUSH1 0x40 MSTORE POP DUP2 ADD SWAP1 PUSH2 0xE8A SWAP2 SWAP1 PUSH2 0x201A JUMP JUMPDEST LT ISZERO PUSH2 0xECB JUMPI PUSH1 0x40 MLOAD PUSH32 0x8C379A000000000000000000000000000000000000000000000000000000000 DUP2 MSTORE PUSH1 0x4 ADD PUSH2 0xEC2 SWAP1 PUSH2 0x208F JUMP JUMPDEST PUSH1 0x40 MLOAD DUP1 SWAP2 SUB SWAP1 REVERT JUMPDEST PUSH32 0x0 PUSH20 0xFFFFFFFFFFFFFFFFFFFFFFFFFFFFFFFFFFFFFFFF AND PUSH4 0x23B872DD DUP4 DUP6 DUP5 PUSH1 0x40 MLOAD DUP5 PUSH4 0xFFFFFFFF AND PUSH1 0xE0 SHL DUP2 MSTORE PUSH1 0x4 ADD PUSH2 0xF28 SWAP4 SWAP3 SWAP2 SWAP1 PUSH2 0x20AD JUMP JUMPDEST PUSH1 0x20 PUSH1 0x40 MLOAD DUP1 DUP4 SUB DUP2 PUSH0 DUP8 GAS CALL ISZERO DUP1 ISZERO PUSH2 0xF44 JUMPI RETURNDATASIZE PUSH0 DUP1 RETURNDATACOPY RETURNDATASIZE PUSH0 REVERT JUMPDEST POP POP POP POP PUSH1 0x40 MLOAD RETURNDATASIZE PUSH1 0x1F NOT PUSH1 0x1F DUP3 ADD AND DUP3 ADD DUP1 PUSH1 0x40 MSTORE POP DUP2 ADD SWAP1 PUSH2 0xF68 SWAP2 SWAP1 PUSH2 0x210C JUMP JUMPDEST POP PUSH32 0x0 PUSH20 0xFFFFFFFFFFFFFFFFFFFFFFFFFFFFFFFFFFFFFFFF AND PUSH4 0x42842E0E ADDRESS DUP5 DUP9 PUSH1 0x40 MLOAD DUP5 PUSH4 0xFFFFFFFF AND PUSH1 0xE0 SHL DUP2 MSTORE PUSH1 0x4 ADD PUSH2 0xFC6 SWAP4 SWAP3 SWAP2 SWAP1 PUSH2 0x20AD JUMP JUMPDEST PUSH0 PUSH1 0x40 MLOAD DUP1 DUP4 SUB DUP2 PUSH0 DUP8 DUP1 EXTCODESIZE ISZERO DUP1 ISZERO PUSH2 0xFDD JUMPI PUSH0 DUP1 REVERT JUMPDEST POP GAS CALL ISZERO DUP1 ISZERO PUSH2 0xFEF JUMPI RETURNDATASIZE PUSH0 DUP1 RETURNDATACOPY RETURNDATASIZE PUSH0 REVERT JUMPDEST POP POP POP POP PUSH2 0xFFC DUP6 PUSH2 0x1302 JUMP JUMPDEST DUP5 DUP5 PUSH0 ADD PUSH0 SWAP1 SLOAD SWAP1 PUSH2 0x100 EXP SWAP1 DIV PUSH20 0xFFFFFFFFFFFFFFFFFFFFFFFFFFFFFFFFFFFFFFFF AND PUSH20 0xFFFFFFFFFFFFFFFFFFFFFFFFFFFFFFFFFFFFFFFF AND CALLER PUSH20 0xFFFFFFFFFFFFFFFFFFFFFFFFFFFFFFFFFFFFFFFF AND PUSH32 0x5C096E3246FBF1487455E1C3A85A673B377E4B4447F7DE8F0F7FD571DDCE0096 DUP8 PUSH1 0x2 ADD SLOAD PUSH1 0x40 MLOAD PUSH2 0x1080 SWAP2 SWAP1 PUSH2 0x1923 JUMP JUMPDEST PUSH1 0x40 MLOAD DUP1 SWAP2 SUB SWAP1 LOG4 POP POP POP POP POP JUMP JUMPDEST PUSH1 0x60 PUSH1 0x1 DUP1 SLOAD DUP1 PUSH1 0x20 MUL PUSH1 0x20 ADD PUSH1 0x40 MLOAD SWAP1 DUP2 ADD PUSH1 0x40 MSTORE DUP1 SWAP3 SWAP2 SWAP1 DUP2 DUP2 MSTORE PUSH1 0x20 ADD PUSH0 SWAP1 JUMPDEST DUP3 DUP3 LT ISZERO PUSH2 0x114A JUMPI DUP4 DUP3 SWAP1 PUSH0 MSTORE PUSH1 0x20 PUSH0 KECCAK256 SWAP1 PUSH1 0x3 MUL ADD PUSH1 0x40 MLOAD DUP1 PUSH1 0x60 ADD PUSH1 0x40 MSTORE SWAP1 DUP2 PUSH0 DUP3 ADD PUSH0 SWAP1 SLOAD SWAP1 PUSH2 0x100 EXP SWAP1 DIV PUSH20 0xFFFFFFFFFFFFFFFFFFFFFFFFFFFFFFFFFFFFFFFF AND PUSH20 0xFFFFFFFFFFFFFFFFFFFFFFFFFFFFFFFFFFFFFFFF AND PUSH20 0xFFFFFFFFFFFFFFFFFFFFFFFFFFFFFFFFFFFFFFFF AND DUP2 MSTORE PUSH1 0x20 ADD PUSH1 0x1 DUP3 ADD SLOAD DUP2 MSTORE PUSH1 0x20 ADD PUSH1 0x2 DUP3 ADD SLOAD DUP2 MSTORE POP POP DUP2 MSTORE PUSH1 0x20 ADD SWAP1 PUSH1 0x1 ADD SWAP1 PUSH2 0x10B2 JUMP JUMPDEST POP POP POP POP SWAP1 POP SWAP1 JUMP JUMPDEST PUSH2 0x115B PUSH2 0x1507 JUMP JUMPDEST PUSH0 PUSH20 0xFFFFFFFFFFFFFFFFFFFFFFFFFFFFFFFFFFFFFFFF AND PUSH0 DUP1 DUP5 DUP2 MSTORE PUSH1 0x20 ADD SWAP1 DUP2 MSTORE PUSH1 0x20 ADD PUSH0 KECCAK256 PUSH0 ADD PUSH0 SWAP1 SLOAD SWAP1 PUSH2 0x100 EXP SWAP1 DIV PUSH20 0xFFFFFFFFFFFFFFFFFFFFFFFFFFFFFFFFFFFFFFFF AND PUSH20 0xFFFFFFFFFFFFFFFFFFFFFFFFFFFFFFFFFFFFFFFF AND SUB PUSH2 0x11FA JUMPI PUSH1 0x40 MLOAD PUSH32 0x8C379A000000000000000000000000000000000000000000000000000000000 DUP2 MSTORE PUSH1 0x4 ADD PUSH2 0x11F1 SWAP1 PUSH2 0x1D61 JUMP JUMPDEST PUSH1 0x40 MLOAD DUP1 SWAP2 SUB SWAP1 REVERT JUMPDEST PUSH0 DUP1 DUP4 DUP2 MSTORE PUSH1 0x20 ADD SWAP1 DUP2 MSTORE PUSH1 0x20 ADD PUSH0 KECCAK256 PUSH1 0x40 MLOAD DUP1 PUSH1 0x60 ADD PUSH1 0x40 MSTORE SWAP1 DUP2 PUSH0 DUP3 ADD PUSH0 SWAP1 SLOAD SWAP1 PUSH2 0x100 EXP SWAP1 DIV PUSH20 0xFFFFFFFFFFFFFFFFFFFFFFFFFFFFFFFFFFFFFFFF AND PUSH20 0xFFFFFFFFFFFFFFFFFFFFFFFFFFFFFFFFFFFFFFFF AND PUSH20 0xFFFFFFFFFFFFFFFFFFFFFFFFFFFFFFFFFFFFFFFF AND DUP2 MSTORE PUSH1 0x20 ADD PUSH1 0x1 DUP3 ADD SLOAD DUP2 MSTORE PUSH1 0x20 ADD PUSH1 0x2 DUP3 ADD SLOAD DUP2 MSTORE POP POP SWAP1 POP SWAP2 SWAP1 POP JUMP JUMPDEST PUSH1 0x2 PUSH1 0x20 MSTORE DUP1 PUSH0 MSTORE PUSH1 0x40 PUSH0 KECCAK256 PUSH0 SWAP2 POP SWAP1 POP SLOAD DUP2 JUMP JUMPDEST PUSH0 DUP1 PUSH20 0xFFFFFFFFFFFFFFFFFFFFFFFFFFFFFFFFFFFFFFFF AND PUSH0 DUP1 DUP5 DUP2 MSTORE PUSH1 0x20 ADD SWAP1 DUP2 MSTORE PUSH1 0x20 ADD PUSH0 KECCAK256 PUSH0 ADD PUSH0 SWAP1 SLOAD SWAP1 PUSH2 0x100 EXP SWAP1 DIV PUSH20 0xFFFFFFFFFFFFFFFFFFFFFFFFFFFFFFFFFFFFFFFF AND PUSH20 0xFFFFFFFFFFFFFFFFFFFFFFFFFFFFFFFFFFFFFFFF AND EQ ISZERO SWAP1 POP SWAP2 SWAP1 POP JUMP JUMPDEST PUSH0 DUP1 DUP3 DUP2 MSTORE PUSH1 0x20 ADD SWAP1 DUP2 MSTORE PUSH1 0x20 ADD PUSH0 KECCAK256 PUSH0 DUP1 DUP3 ADD PUSH0 PUSH2 0x100 EXP DUP2 SLOAD SWAP1 PUSH20 0xFFFFFFFFFFFFFFFFFFFFFFFFFFFFFFFFFFFFFFFF MUL NOT AND SWAP1 SSTORE PUSH1 0x1 DUP3 ADD PUSH0 SWAP1 SSTORE PUSH1 0x2 DUP3 ADD PUSH0 SWAP1 SSTORE POP POP PUSH0 PUSH1 0x2 PUSH0 DUP4 DUP2 MSTORE PUSH1 0x20 ADD SWAP1 DUP2 MSTORE PUSH1 0x20 ADD PUSH0 KECCAK256 SLOAD SWAP1 POP PUSH0 PUSH1 0x1 DUP1 DUP1 SLOAD SWAP1 POP PUSH2 0x136F SWAP2 SWAP1 PUSH2 0x1CE4 JUMP JUMPDEST SWAP1 POP DUP2 DUP2 EQ PUSH2 0x14A6 JUMPI PUSH0 PUSH1 0x1 DUP3 DUP2 SLOAD DUP2 LT PUSH2 0x138D JUMPI PUSH2 0x138C PUSH2 0x1DE7 JUMP JUMPDEST JUMPDEST SWAP1 PUSH0 MSTORE PUSH1 0x20 PUSH0 KECCAK256 SWAP1 PUSH1 0x3 MUL ADD PUSH1 0x40 MLOAD DUP1 PUSH1 0x60 ADD PUSH1 0x40 MSTORE SWAP1 DUP2 PUSH0 DUP3 ADD PUSH0 SWAP1 SLOAD SWAP1 PUSH2 0x100 EXP SWAP1 DIV PUSH20 0xFFFFFFFFFFFFFFFFFFFFFFFFFFFFFFFFFFFFFFFF AND PUSH20 0xFFFFFFFFFFFFFFFFFFFFFFFFFFFFFFFFFFFFFFFF AND PUSH20 0xFFFFFFFFFFFFFFFFFFFFFFFFFFFFFFFFFFFFFFFF AND DUP2 MSTORE PUSH1 0x20 ADD PUSH1 0x1 DUP3 ADD SLOAD DUP2 MSTORE PUSH1 0x20 ADD PUSH1 0x2 DUP3 ADD SLOAD DUP2 MSTORE POP POP SWAP1 POP DUP1 PUSH1 0x1 DUP5 DUP2 SLOAD DUP2 LT PUSH2 0x1423 JUMPI PUSH2 0x1422 PUSH2 0x1DE7 JUMP JUMPDEST JUMPDEST SWAP1 PUSH0 MSTORE PUSH1 0x20 PUSH0 KECCAK256 SWAP1 PUSH1 0x3 MUL ADD PUSH0 DUP3 ADD MLOAD DUP2 PUSH0 ADD PUSH0 PUSH2 0x100 EXP DUP2 SLOAD DUP2 PUSH20 0xFFFFFFFFFFFFFFFFFFFFFFFFFFFFFFFFFFFFFFFF MUL NOT AND SWAP1 DUP4 PUSH20 0xFFFFFFFFFFFFFFFFFFFFFFFFFFFFFFFFFFFFFFFF AND MUL OR SWAP1 SSTORE POP PUSH1 0x20 DUP3 ADD MLOAD DUP2 PUSH1 0x1 ADD SSTORE PUSH1 0x40 DUP3 ADD MLOAD DUP2 PUSH1 0x2 ADD SSTORE SWAP1 POP POP DUP3 PUSH1 0x2 PUSH0 DUP4 PUSH1 0x20 ADD MLOAD DUP2 MSTORE PUSH1 0x20 ADD SWAP1 DUP2 MSTORE PUSH1 0x20 ADD PUSH0 KECCAK256 DUP2 SWAP1 SSTORE POP POP JUMPDEST PUSH1 0x1 DUP1 SLOAD DUP1 PUSH2 0x14B8 JUMPI PUSH2 0x14B7 PUSH2 0x2137 JUMP JUMPDEST JUMPDEST PUSH1 0x1 SWAP1 SUB DUP2 DUP2 SWAP1 PUSH0 MSTORE PUSH1 0x20 PUSH0 KECCAK256 SWAP1 PUSH1 0x3 MUL ADD PUSH0 DUP1 DUP3 ADD PUSH0 PUSH2 0x100 EXP DUP2 SLOAD SWAP1 PUSH20 0xFFFFFFFFFFFFFFFFFFFFFFFFFFFFFFFFFFFFFFFF MUL NOT AND SWAP1 SSTORE PUSH1 0x1 DUP3 ADD PUSH0 SWAP1 SSTORE PUSH1 0x2 DUP3 ADD PUSH0 SWAP1 SSTORE POP POP SWAP1 SSTORE POP POP POP JUMP JUMPDEST PUSH1 0x40 MLOAD DUP1 PUSH1 0x60 ADD PUSH1 0x40 MSTORE DUP1 PUSH0 PUSH20 0xFFFFFFFFFFFFFFFFFFFFFFFFFFFFFFFFFFFFFFFF AND DUP2 MSTORE PUSH1 0x20 ADD PUSH0 DUP2 MSTORE PUSH1 0x20 ADD PUSH0 DUP2 MSTORE POP SWAP1 JUMP JUMPDEST PUSH0 PUSH1 0x40 MLOAD SWAP1 POP SWAP1 JUMP JUMPDEST PUSH0 DUP1 REVERT JUMPDEST PUSH0 DUP1 REVERT JUMPDEST PUSH0 PUSH20 0xFFFFFFFFFFFFFFFFFFFFFFFFFFFFFFFFFFFFFFFF DUP3 AND SWAP1 POP SWAP2 SWAP1 POP JUMP JUMPDEST PUSH0 PUSH2 0x1575 DUP3 PUSH2 0x154C JUMP JUMPDEST SWAP1 POP SWAP2 SWAP1 POP JUMP JUMPDEST PUSH2 0x1585 DUP2 PUSH2 0x156B JUMP JUMPDEST DUP2 EQ PUSH2 0x158F JUMPI PUSH0 DUP1 REVERT JUMPDEST POP JUMP JUMPDEST PUSH0 DUP2 CALLDATALOAD SWAP1 POP PUSH2 0x15A0 DUP2 PUSH2 0x157C JUMP JUMPDEST SWAP3 SWAP2 POP POP JUMP JUMPDEST PUSH0 DUP2 SWAP1 POP SWAP2 SWAP1 POP JUMP JUMPDEST PUSH2 0x15B8 DUP2 PUSH2 0x15A6 JUMP JUMPDEST DUP2 EQ PUSH2 0x15C2 JUMPI PUSH0 DUP1 REVERT JUMPDEST POP JUMP JUMPDEST PUSH0 DUP2 CALLDATALOAD SWAP1 POP PUSH2 0x15D3 DUP2 PUSH2 0x15AF JUMP JUMPDEST SWAP3 SWAP2 POP POP JUMP JUMPDEST PUSH0 DUP1 REVERT JUMPDEST PUSH0 DUP1 REVERT JUMPDEST PUSH0 DUP1 REVERT JUMPDEST PUSH0 DUP1 DUP4 PUSH1 0x1F DUP5 ADD SLT PUSH2 0x15FA JUMPI PUSH2 0x15F9 PUSH2 0x15D9 JUMP JUMPDEST JUMPDEST DUP3 CALLDATALOAD SWAP1 POP PUSH8 0xFFFFFFFFFFFFFFFF DUP2 GT ISZERO PUSH2 0x1617 JUMPI PUSH2 0x1616 PUSH2 0x15DD JUMP JUMPDEST JUMPDEST PUSH1 0x20 DUP4 ADD SWAP2 POP DUP4 PUSH1 0x1 DUP3 MUL DUP4 ADD GT ISZERO PUSH2 0x1633 JUMPI PUSH2 0x1632 PUSH2 0x15E1 JUMP JUMPDEST JUMPDEST SWAP3 POP SWAP3 SWAP1 POP JUMP JUMPDEST PUSH0 DUP1 PUSH0 DUP1 PUSH0 PUSH1 0x80 DUP7 DUP9 SUB SLT ISZERO PUSH2 0x1653 JUMPI PUSH2 0x1652 PUSH2 0x1544 JUMP JUMPDEST JUMPDEST PUSH0 PUSH2 0x1660 DUP9 DUP3 DUP10 ADD PUSH2 0x1592 JUMP JUMPDEST SWAP6 POP POP PUSH1 0x20 PUSH2 0x1671 DUP9 DUP3 DUP10 ADD PUSH2 0x1592 JUMP JUMPDEST SWAP5 POP POP PUSH1 0x40 PUSH2 0x1682 DUP9 DUP3 DUP10 ADD PUSH2 0x15C5 JUMP JUMPDEST SWAP4 POP POP PUSH1 0x60 DUP7 ADD CALLDATALOAD PUSH8 0xFFFFFFFFFFFFFFFF DUP2 GT ISZERO PUSH2 0x16A3 JUMPI PUSH2 0x16A2 PUSH2 0x1548 JUMP JUMPDEST JUMPDEST PUSH2 0x16AF DUP9 DUP3 DUP10 ADD PUSH2 0x15E5 JUMP JUMPDEST SWAP3 POP SWAP3 POP POP SWAP3 SWAP6 POP SWAP3 SWAP6 SWAP1 SWAP4 POP JUMP JUMPDEST PUSH0 PUSH32 0xFFFFFFFF00000000000000000000000000000000000000000000000000000000 DUP3 AND SWAP1 POP SWAP2 SWAP1 POP JUMP JUMPDEST PUSH2 0x16F2 DUP2 PUSH2 0x16BE JUMP JUMPDEST DUP3 MSTORE POP POP JUMP JUMPDEST PUSH0 PUSH1 0x20 DUP3 ADD SWAP1 POP PUSH2 0x170B PUSH0 DUP4 ADD DUP5 PUSH2 0x16E9 JUMP JUMPDEST SWAP3 SWAP2 POP POP JUMP JUMPDEST PUSH0 PUSH1 0x20 DUP3 DUP5 SUB SLT ISZERO PUSH2 0x1726 JUMPI PUSH2 0x1725 PUSH2 0x1544 JUMP JUMPDEST JUMPDEST PUSH0 PUSH2 0x1733 DUP5 DUP3 DUP6 ADD PUSH2 0x15C5 JUMP JUMPDEST SWAP2 POP POP SWAP3 SWAP2 POP POP JUMP JUMPDEST PUSH0 DUP2 MLOAD SWAP1 POP SWAP2 SWAP1 POP JUMP JUMPDEST PUSH0 DUP3 DUP3 MSTORE PUSH1 0x20 DUP3 ADD SWAP1 POP SWAP3 SWAP2 POP POP JUMP JUMPDEST PUSH0 DUP2 SWAP1 POP PUSH1 0x20 DUP3 ADD SWAP1 POP SWAP2 SWAP1 POP JUMP JUMPDEST PUSH2 0x176E DUP2 PUSH2 0x156B JUMP JUMPDEST DUP3 MSTORE POP POP JUMP JUMPDEST PUSH2 0x177D DUP2 PUSH2 0x15A6 JUMP JUMPDEST DUP3 MSTORE POP POP JUMP JUMPDEST PUSH1 0x60 DUP3 ADD PUSH0 DUP3 ADD MLOAD PUSH2 0x1797 PUSH0 DUP6 ADD DUP3 PUSH2 0x1765 JUMP JUMPDEST POP PUSH1 0x20 DUP3 ADD MLOAD PUSH2 0x17AA PUSH1 0x20 DUP6 ADD DUP3 PUSH2 0x1774 JUMP JUMPDEST POP PUSH1 0x40 DUP3 ADD MLOAD PUSH2 0x17BD PUSH1 0x40 DUP6 ADD DUP3 PUSH2 0x1774 JUMP JUMPDEST POP POP POP POP JUMP JUMPDEST PUSH0 PUSH2 0x17CE DUP4 DUP4 PUSH2 0x1783 JUMP JUMPDEST PUSH1 0x60 DUP4 ADD SWAP1 POP SWAP3 SWAP2 POP POP JUMP JUMPDEST PUSH0 PUSH1 0x20 DUP3 ADD SWAP1 POP SWAP2 SWAP1 POP JUMP JUMPDEST PUSH0 PUSH2 0x17F0 DUP3 PUSH2 0x173C JUMP JUMPDEST PUSH2 0x17FA DUP2 DUP6 PUSH2 0x1746 JUMP JUMPDEST SWAP4 POP PUSH2 0x1805 DUP4 PUSH2 0x1756 JUMP JUMPDEST DUP1 PUSH0 JUMPDEST DUP4 DUP2 LT ISZERO PUSH2 0x1835 JUMPI DUP2 MLOAD PUSH2 0x181C DUP9 DUP3 PUSH2 0x17C3 JUMP JUMPDEST SWAP8 POP PUSH2 0x1827 DUP4 PUSH2 0x17DA JUMP JUMPDEST SWAP3 POP POP PUSH1 0x1 DUP2 ADD SWAP1 POP PUSH2 0x1808 JUMP JUMPDEST POP DUP6 SWAP4 POP POP POP POP SWAP3 SWAP2 POP POP JUMP JUMPDEST PUSH0 PUSH1 0x20 DUP3 ADD SWAP1 POP DUP2 DUP2 SUB PUSH0 DUP4 ADD MSTORE PUSH2 0x185A DUP2 DUP5 PUSH2 0x17E6 JUMP JUMPDEST SWAP1 POP SWAP3 SWAP2 POP POP JUMP JUMPDEST PUSH0 DUP2 SWAP1 POP SWAP2 SWAP1 POP JUMP JUMPDEST PUSH0 PUSH2 0x1885 PUSH2 0x1880 PUSH2 0x187B DUP5 PUSH2 0x154C JUMP JUMPDEST PUSH2 0x1862 JUMP JUMPDEST PUSH2 0x154C JUMP JUMPDEST SWAP1 POP SWAP2 SWAP1 POP JUMP JUMPDEST PUSH0 PUSH2 0x1896 DUP3 PUSH2 0x186B JUMP JUMPDEST SWAP1 POP SWAP2 SWAP1 POP JUMP JUMPDEST PUSH0 PUSH2 0x18A7 DUP3 PUSH2 0x188C JUMP JUMPDEST SWAP1 POP SWAP2 SWAP1 POP JUMP JUMPDEST PUSH2 0x18B7 DUP2 PUSH2 0x189D JUMP JUMPDEST DUP3 MSTORE POP POP JUMP JUMPDEST PUSH0 PUSH1 0x20 DUP3 ADD SWAP1 POP PUSH2 0x18D0 PUSH0 DUP4 ADD DUP5 PUSH2 0x18AE JUMP JUMPDEST SWAP3 SWAP2 POP POP JUMP JUMPDEST PUSH0 DUP1 PUSH1 0x40 DUP4 DUP6 SUB SLT ISZERO PUSH2 0x18EC JUMPI PUSH2 0x18EB PUSH2 0x1544 JUMP JUMPDEST JUMPDEST PUSH0 PUSH2 0x18F9 DUP6 DUP3 DUP7 ADD PUSH2 0x15C5 JUMP JUMPDEST SWAP3 POP POP PUSH1 0x20 PUSH2 0x190A DUP6 DUP3 DUP7 ADD PUSH2 0x15C5 JUMP JUMPDEST SWAP2 POP POP SWAP3 POP SWAP3 SWAP1 POP JUMP JUMPDEST PUSH2 0x191D DUP2 PUSH2 0x15A6 JUMP JUMPDEST DUP3 MSTORE POP POP JUMP JUMPDEST PUSH0 PUSH1 0x20 DUP3 ADD SWAP1 POP PUSH2 0x1936 PUSH0 DUP4 ADD DUP5 PUSH2 0x1914 JUMP JUMPDEST SWAP3 SWAP2 POP POP JUMP JUMPDEST PUSH2 0x1945 DUP2 PUSH2 0x156B JUMP JUMPDEST DUP3 MSTORE POP POP JUMP JUMPDEST PUSH0 PUSH1 0x60 DUP3 ADD SWAP1 POP PUSH2 0x195E PUSH0 DUP4 ADD DUP7 PUSH2 0x193C JUMP JUMPDEST PUSH2 0x196B PUSH1 0x20 DUP4 ADD DUP6 PUSH2 0x1914 JUMP JUMPDEST PUSH2 0x1978 PUSH1 0x40 DUP4 ADD DUP5 PUSH2 0x1914 JUMP JUMPDEST SWAP5 SWAP4 POP POP POP POP JUMP JUMPDEST PUSH0 DUP1 REVERT JUMPDEST PUSH0 PUSH1 0x1F NOT PUSH1 0x1F DUP4 ADD AND SWAP1 POP SWAP2 SWAP1 POP JUMP JUMPDEST PUSH32 0x4E487B7100000000000000000000000000000000000000000000000000000000 PUSH0 MSTORE PUSH1 0x41 PUSH1 0x4 MSTORE PUSH1 0x24 PUSH0 REVERT JUMPDEST PUSH2 0x19CA DUP3 PUSH2 0x1984 JUMP JUMPDEST DUP2 ADD DUP2 DUP2 LT PUSH8 0xFFFFFFFFFFFFFFFF DUP3 GT OR ISZERO PUSH2 0x19E9 JUMPI PUSH2 0x19E8 PUSH2 0x1994 JUMP JUMPDEST JUMPDEST DUP1 PUSH1 0x40 MSTORE POP POP POP JUMP JUMPDEST PUSH0 PUSH2 0x19FB PUSH2 0x153B JUMP JUMPDEST SWAP1 POP PUSH2 0x1A07 DUP3 DUP3 PUSH2 0x19C1 JUMP JUMPDEST SWAP2 SWAP1 POP JUMP JUMPDEST PUSH0 PUSH8 0xFFFFFFFFFFFFFFFF DUP3 GT ISZERO PUSH2 0x1A26 JUMPI PUSH2 0x1A25 PUSH2 0x1994 JUMP JUMPDEST JUMPDEST PUSH2 0x1A2F DUP3 PUSH2 0x1984 JUMP JUMPDEST SWAP1 POP PUSH1 0x20 DUP2 ADD SWAP1 POP SWAP2 SWAP1 POP JUMP JUMPDEST DUP3 DUP2 DUP4 CALLDATACOPY PUSH0 DUP4 DUP4 ADD MSTORE POP POP POP JUMP JUMPDEST PUSH0 PUSH2 0x1A5C PUSH2 0x1A57 DUP5 PUSH2 0x1A0C JUMP JUMPDEST PUSH2 0x19F2 JUMP JUMPDEST SWAP1 POP DUP3 DUP2 MSTORE PUSH1 0x20 DUP2 ADD DUP5 DUP5 DUP5 ADD GT ISZERO PUSH2 0x1A78 JUMPI PUSH2 0x1A77 PUSH2 0x1980 JUMP JUMPDEST JUMPDEST PUSH2 0x1A83 DUP5 DUP3 DUP6 PUSH2 0x1A3C JUMP JUMPDEST POP SWAP4 SWAP3 POP POP POP JUMP JUMPDEST PUSH0 DUP3 PUSH1 0x1F DUP4 ADD SLT PUSH2 0x1A9F JUMPI PUSH2 0x1A9E PUSH2 0x15D9 JUMP JUMPDEST JUMPDEST DUP2 CALLDATALOAD PUSH2 0x1AAF DUP5 DUP3 PUSH1 0x20 DUP7 ADD PUSH2 0x1A4A JUMP JUMPDEST SWAP2 POP POP SWAP3 SWAP2 POP POP JUMP JUMPDEST PUSH0 DUP1 PUSH1 0x40 DUP4 DUP6 SUB SLT ISZERO PUSH2 0x1ACE JUMPI PUSH2 0x1ACD PUSH2 0x1544 JUMP JUMPDEST JUMPDEST PUSH0 DUP4 ADD CALLDATALOAD PUSH8 0xFFFFFFFFFFFFFFFF DUP2 GT ISZERO PUSH2 0x1AEB JUMPI PUSH2 0x1AEA PUSH2 0x1548 JUMP JUMPDEST JUMPDEST PUSH2 0x1AF7 DUP6 DUP3 DUP7 ADD PUSH2 0x1A8B JUMP JUMPDEST SWAP3 POP POP PUSH1 0x20 PUSH2 0x1B08 DUP6 DUP3 DUP7 ADD PUSH2 0x15C5 JUMP JUMPDEST SWAP2 POP POP SWAP3 POP SWAP3 SWAP1 POP JUMP JUMPDEST PUSH0 PUSH2 0x1B1C DUP3 PUSH2 0x188C JUMP JUMPDEST SWAP1 POP SWAP2 SWAP1 POP JUMP JUMPDEST PUSH2 0x1B2C DUP2 PUSH2 0x1B12 JUMP JUMPDEST DUP3 MSTORE POP POP JUMP JUMPDEST PUSH0 PUSH1 0x20 DUP3 ADD SWAP1 POP PUSH2 0x1B45 PUSH0 DUP4 ADD DUP5 PUSH2 0x1B23 JUMP JUMPDEST SWAP3 SWAP2 POP POP JUMP JUMPDEST PUSH1 0x60 DUP3 ADD PUSH0 DUP3 ADD MLOAD PUSH2 0x1B5F PUSH0 DUP6 ADD DUP3 PUSH2 0x1765 JUMP JUMPDEST POP PUSH1 0x20 DUP3 ADD MLOAD PUSH2 0x1B72 PUSH1 0x20 DUP6 ADD DUP3 PUSH2 0x1774 JUMP JUMPDEST POP PUSH1 0x40 DUP3 ADD MLOAD PUSH2 0x1B85 PUSH1 0x40 DUP6 ADD DUP3 PUSH2 0x1774 JUMP JUMPDEST POP POP POP POP JUMP JUMPDEST PUSH0 PUSH1 0x60 DUP3 ADD SWAP1 POP PUSH2 0x1B9E PUSH0 DUP4 ADD DUP5 PUSH2 0x1B4B JUMP JUMPDEST SWAP3 SWAP2 POP POP JUMP JUMPDEST PUSH0 DUP2 ISZERO ISZERO SWAP1 POP SWAP2 SWAP1 POP JUMP JUMPDEST PUSH2 0x1BB8 DUP2 PUSH2 0x1BA4 JUMP JUMPDEST DUP3 MSTORE POP POP JUMP JUMPDEST PUSH0 PUSH1 0x20 DUP3 ADD SWAP1 POP PUSH2 0x1BD1 PUSH0 DUP4 ADD DUP5 PUSH2 0x1BAF JUMP JUMPDEST SWAP3 SWAP2 POP POP JUMP JUMPDEST PUSH0 DUP3 DUP3 MSTORE PUSH1 0x20 DUP3 ADD SWAP1 POP SWAP3 SWAP2 POP POP JUMP JUMPDEST PUSH32 0x496E76616C696420707269636500000000000000000000000000000000000000 PUSH0 DUP3 ADD MSTORE POP JUMP JUMPDEST PUSH0 PUSH2 0x1C1B PUSH1 0xD DUP4 PUSH2 0x1BD7 JUMP JUMPDEST SWAP2 POP PUSH2 0x1C26 DUP3 PUSH2 0x1BE7 JUMP JUMPDEST PUSH1 0x20 DUP3 ADD SWAP1 POP SWAP2 SWAP1 POP JUMP JUMPDEST PUSH0 PUSH1 0x20 DUP3 ADD SWAP1 POP DUP2 DUP2 SUB PUSH0 DUP4 ADD MSTORE PUSH2 0x1C48 DUP2 PUSH2 0x1C0F JUMP JUMPDEST SWAP1 POP SWAP2 SWAP1 POP JUMP JUMPDEST PUSH32 0x496E76616C6964206F70657261746F7200000000000000000000000000000000 PUSH0 DUP3 ADD MSTORE POP JUMP JUMPDEST PUSH0 PUSH2 0x1C83 PUSH1 0x10 DUP4 PUSH2 0x1BD7 JUMP JUMPDEST SWAP2 POP PUSH2 0x1C8E DUP3 PUSH2 0x1C4F JUMP JUMPDEST PUSH1 0x20 DUP3 ADD SWAP1 POP SWAP2 SWAP1 POP JUMP JUMPDEST PUSH0 PUSH1 0x20 DUP3 ADD SWAP1 POP DUP2 DUP2 SUB PUSH0 DUP4 ADD MSTORE PUSH2 0x1CB0 DUP2 PUSH2 0x1C77 JUMP JUMPDEST SWAP1 POP SWAP2 SWAP1 POP JUMP JUMPDEST PUSH32 0x4E487B7100000000000000000000000000000000000000000000000000000000 PUSH0 MSTORE PUSH1 0x11 PUSH1 0x4 MSTORE PUSH1 0x24 PUSH0 REVERT JUMPDEST PUSH0 PUSH2 0x1CEE DUP3 PUSH2 0x15A6 JUMP JUMPDEST SWAP2 POP PUSH2 0x1CF9 DUP4 PUSH2 0x15A6 JUMP JUMPDEST SWAP3 POP DUP3 DUP3 SUB SWAP1 POP DUP2 DUP2 GT ISZERO PUSH2 0x1D11 JUMPI PUSH2 0x1D10 PUSH2 0x1CB7 JUMP JUMPDEST JUMPDEST SWAP3 SWAP2 POP POP JUMP JUMPDEST PUSH32 0x4F7264657220646F6573206E6F74206578697374000000000000000000000000 PUSH0 DUP3 ADD MSTORE POP JUMP JUMPDEST PUSH0 PUSH2 0x1D4B PUSH1 0x14 DUP4 PUSH2 0x1BD7 JUMP JUMPDEST SWAP2 POP PUSH2 0x1D56 DUP3 PUSH2 0x1D17 JUMP JUMPDEST PUSH1 0x20 DUP3 ADD SWAP1 POP SWAP2 SWAP1 POP JUMP JUMPDEST PUSH0 PUSH1 0x20 DUP3 ADD SWAP1 POP DUP2 DUP2 SUB PUSH0 DUP4 ADD MSTORE PUSH2 0x1D78 DUP2 PUSH2 0x1D3F JUMP JUMPDEST SWAP1 POP SWAP2 SWAP1 POP JUMP JUMPDEST PUSH32 0x4E6F7420746865206F776E6572206F6620746865206F72646572000000000000 PUSH0 DUP3 ADD MSTORE POP JUMP JUMPDEST PUSH0 PUSH2 0x1DB3 PUSH1 0x1A DUP4 PUSH2 0x1BD7 JUMP JUMPDEST SWAP2 POP PUSH2 0x1DBE DUP3 PUSH2 0x1D7F JUMP JUMPDEST PUSH1 0x20 DUP3 ADD SWAP1 POP SWAP2 SWAP1 POP JUMP JUMPDEST PUSH0 PUSH1 0x20 DUP3 ADD SWAP1 POP DUP2 DUP2 SUB PUSH0 DUP4 ADD MSTORE PUSH2 0x1DE0 DUP2 PUSH2 0x1DA7 JUMP JUMPDEST SWAP1 POP SWAP2 SWAP1 POP JUMP JUMPDEST PUSH32 0x4E487B7100000000000000000000000000000000000000000000000000000000 PUSH0 MSTORE PUSH1 0x32 PUSH1 0x4 MSTORE PUSH1 0x24 PUSH0 REVERT JUMPDEST PUSH0 PUSH2 0x1E1E DUP3 PUSH2 0x15A6 JUMP JUMPDEST SWAP2 POP PUSH32 0xFFFFFFFFFFFFFFFFFFFFFFFFFFFFFFFFFFFFFFFFFFFFFFFFFFFFFFFFFFFFFFFF DUP3 SUB PUSH2 0x1E50 JUMPI PUSH2 0x1E4F PUSH2 0x1CB7 JUMP JUMPDEST JUMPDEST PUSH1 0x1 DUP3 ADD SWAP1 POP SWAP2 SWAP1 POP JUMP JUMPDEST PUSH32 0x4D61726B65743A20546F6B656E204944206973206E6F74206C69737465640000 PUSH0 DUP3 ADD MSTORE POP JUMP JUMPDEST PUSH0 PUSH2 0x1E8F PUSH1 0x1E DUP4 PUSH2 0x1BD7 JUMP JUMPDEST SWAP2 POP PUSH2 0x1E9A DUP3 PUSH2 0x1E5B JUMP JUMPDEST PUSH1 0x20 DUP3 ADD SWAP1 POP SWAP2 SWAP1 POP JUMP JUMPDEST PUSH0 PUSH1 0x20 DUP3 ADD SWAP1 POP DUP2 DUP2 SUB PUSH0 DUP4 ADD MSTORE PUSH2 0x1EBC DUP2 PUSH2 0x1E83 JUMP JUMPDEST SWAP1 POP SWAP2 SWAP1 POP JUMP JUMPDEST PUSH0 PUSH1 0x40 DUP3 ADD SWAP1 POP PUSH2 0x1ED6 PUSH0 DUP4 ADD DUP6 PUSH2 0x1914 JUMP JUMPDEST PUSH2 0x1EE3 PUSH1 0x20 DUP4 ADD DUP5 PUSH2 0x1914 JUMP JUMPDEST SWAP4 SWAP3 POP POP POP JUMP JUMPDEST PUSH0 PUSH2 0x1EF4 DUP3 PUSH2 0x15A6 JUMP JUMPDEST SWAP2 POP PUSH2 0x1EFF DUP4 PUSH2 0x15A6 JUMP JUMPDEST SWAP3 POP DUP3 DUP3 ADD SWAP1 POP DUP1 DUP3 GT ISZERO PUSH2 0x1F17 JUMPI PUSH2 0x1F16 PUSH2 0x1CB7 JUMP JUMPDEST JUMPDEST SWAP3 SWAP2 POP POP JUMP JUMPDEST PUSH32 0x4D61726B65743A20746F55696E743235365F6F766572666C6F77000000000000 PUSH0 DUP3 ADD MSTORE POP JUMP JUMPDEST PUSH0 PUSH2 0x1F51 PUSH1 0x1A DUP4 PUSH2 0x1BD7 JUMP JUMPDEST SWAP2 POP PUSH2 0x1F5C DUP3 PUSH2 0x1F1D JUMP JUMPDEST PUSH1 0x20 DUP3 ADD SWAP1 POP SWAP2 SWAP1 POP JUMP JUMPDEST PUSH0 PUSH1 0x20 DUP3 ADD SWAP1 POP DUP2 DUP2 SUB PUSH0 DUP4 ADD MSTORE PUSH2 0x1F7E DUP2 PUSH2 0x1F45 JUMP JUMPDEST SWAP1 POP SWAP2 SWAP1 POP JUMP JUMPDEST PUSH32 0x4D61726B65743A20746F55696E743235365F6F75744F66426F756E6473000000 PUSH0 DUP3 ADD MSTORE POP JUMP JUMPDEST PUSH0 PUSH2 0x1FB9 PUSH1 0x1D DUP4 PUSH2 0x1BD7 JUMP JUMPDEST SWAP2 POP PUSH2 0x1FC4 DUP3 PUSH2 0x1F85 JUMP JUMPDEST PUSH1 0x20 DUP3 ADD SWAP1 POP SWAP2 SWAP1 POP JUMP JUMPDEST PUSH0 PUSH1 0x20 DUP3 ADD SWAP1 POP DUP2 DUP2 SUB PUSH0 DUP4 ADD MSTORE PUSH2 0x1FE6 DUP2 PUSH2 0x1FAD JUMP JUMPDEST SWAP1 POP SWAP2 SWAP1 POP JUMP JUMPDEST PUSH0 PUSH1 0x20 DUP3 ADD SWAP1 POP PUSH2 0x2000 PUSH0 DUP4 ADD DUP5 PUSH2 0x193C JUMP JUMPDEST SWAP3 SWAP2 POP POP JUMP JUMPDEST PUSH0 DUP2 MLOAD SWAP1 POP PUSH2 0x2014 DUP2 PUSH2 0x15AF JUMP JUMPDEST SWAP3 SWAP2 POP POP JUMP JUMPDEST PUSH0 PUSH1 0x20 DUP3 DUP5 SUB SLT ISZERO PUSH2 0x202F JUMPI PUSH2 0x202E PUSH2 0x1544 JUMP JUMPDEST JUMPDEST PUSH0 PUSH2 0x203C DUP5 DUP3 DUP6 ADD PUSH2 0x2006 JUMP JUMPDEST SWAP2 POP POP SWAP3 SWAP2 POP POP JUMP JUMPDEST PUSH32 0x496E73756666696369656E74204552432D32302062616C616E63650000000000 PUSH0 DUP3 ADD MSTORE POP JUMP JUMPDEST PUSH0 PUSH2 0x2079 PUSH1 0x1B DUP4 PUSH2 0x1BD7 JUMP JUMPDEST SWAP2 POP PUSH2 0x2084 DUP3 PUSH2 0x2045 JUMP JUMPDEST PUSH1 0x20 DUP3 ADD SWAP1 POP SWAP2 SWAP1 POP JUMP JUMPDEST PUSH0 PUSH1 0x20 DUP3 ADD SWAP1 POP DUP2 DUP2 SUB PUSH0 DUP4 ADD MSTORE PUSH2 0x20A6 DUP2 PUSH2 0x206D JUMP JUMPDEST SWAP1 POP SWAP2 SWAP1 POP JUMP JUMPDEST PUSH0 PUSH1 0x60 DUP3 ADD SWAP1 POP PUSH2 0x20C0 PUSH0 DUP4 ADD DUP7 PUSH2 0x193C JUMP JUMPDEST PUSH2 0x20CD PUSH1 0x20 DUP4 ADD DUP6 PUSH2 0x193C JUMP JUMPDEST PUSH2 0x20DA PUSH1 0x40 DUP4 ADD DUP5 PUSH2 0x1914 JUMP JUMPDEST SWAP5 SWAP4 POP POP POP POP JUMP JUMPDEST PUSH2 0x20EB DUP2 PUSH2 0x1BA4 JUMP JUMPDEST DUP2 EQ PUSH2 0x20F5 JUMPI PUSH0 DUP1 REVERT JUMPDEST POP JUMP JUMPDEST PUSH0 DUP2 MLOAD SWAP1 POP PUSH2 0x2106 DUP2 PUSH2 0x20E2 JUMP JUMPDEST SWAP3 SWAP2 POP POP JUMP JUMPDEST PUSH0 PUSH1 0x20 DUP3 DUP5 SUB SLT ISZERO PUSH2 0x2121 JUMPI PUSH2 0x2120 PUSH2 0x1544 JUMP JUMPDEST JUMPDEST PUSH0 PUSH2 0x212E DUP5 DUP3 DUP6 ADD PUSH2 0x20F8 JUMP JUMPDEST SWAP2 POP POP SWAP3 SWAP2 POP POP JUMP JUMPDEST PUSH32 0x4E487B7100000000000000000000000000000000000000000000000000000000 PUSH0 MSTORE PUSH1 0x31 PUSH1 0x4 MSTORE PUSH1 0x24 PUSH0 REVERT INVALID LOG2 PUSH5 0x6970667358 0x22 SLT KECCAK256 0xC1 0xBA BLOBHASH 0xDD 0xA7 LOG3 SMOD SUB DUP9 CALLCODE SLOAD SAR TLOAD 0xE4 DUP10 0xC5 PC PUSH13 0x89827AD384AEE698B8FBB21A8F SSTORE PUSH5 0x736F6C6343 STOP ADDMOD NOT STOP CALLER "
				},
				"gasEstimates": {
					"creation": {
						"codeDepositCost": "1720400",
						"executionCost": "infinite",
						"totalCost": "infinite"
					},
					"external": {
						"buy(uint256)": "infinite",
						"cancel(uint256)": "infinite",
						"erc20()": "infinite",
						"erc721()": "infinite",
						"getAllNFTs()": "infinite",
						"getMyNFTs()": "infinite",
						"getOrderByTokenId(uint256)": "infinite",
						"getOrderLength()": "2507",
						"isListed(uint256)": "2924",
						"onERC721Received(address,address,uint256,bytes)": "infinite",
						"orderIndexOfTokenId(uint256)": "infinite",
						"orderOfTokenId(uint256)": "infinite",
						"orders(uint256)": "infinite",
						"toUint256(bytes,uint256)": "infinite",
						"updatePrice(uint256,uint256)": "infinite"
					},
					"internal": {
						"removeListing(uint256)": "infinite"
					}
				},
				"methodIdentifiers": {
					"buy(uint256)": "d96a094a",
					"cancel(uint256)": "40e58ee5",
					"erc20()": "785e9e86",
					"erc721()": "bca6ce64",
					"getAllNFTs()": "e0391b09",
					"getMyNFTs()": "629cb2e4",
					"getOrderByTokenId(uint256)": "e86eac72",
					"getOrderLength()": "9d4971b7",
					"isListed(uint256)": "fcce4883",
					"onERC721Received(address,address,uint256,bytes)": "150b7a02",
					"orderIndexOfTokenId(uint256)": "e9956f1d",
					"orderOfTokenId(uint256)": "c6561a9c",
					"orders(uint256)": "a85c38ef",
					"toUint256(bytes,uint256)": "b5cdf924",
					"updatePrice(uint256,uint256)": "82367b2d"
				}
			},
			"storageLayout": {
				"storage": [
					{
						"astId": 261,
						"contract": "contracts/nft-market.sol:NFTMarket",
						"label": "orderOfTokenId",
						"offset": 0,
						"slot": "0",
						"type": "t_mapping(t_uint256,t_struct(Order)256_storage)"
					},
					{
						"astId": 265,
						"contract": "contracts/nft-market.sol:NFTMarket",
						"label": "orders",
						"offset": 0,
						"slot": "1",
						"type": "t_array(t_struct(Order)256_storage)dyn_storage"
					},
					{
						"astId": 269,
						"contract": "contracts/nft-market.sol:NFTMarket",
						"label": "orderIndexOfTokenId",
						"offset": 0,
						"slot": "2",
						"type": "t_mapping(t_uint256,t_uint256)"
					}
				],
				"types": {
					"t_address": {
						"encoding": "inplace",
						"label": "address",
						"numberOfBytes": "20"
					},
					"t_array(t_struct(Order)256_storage)dyn_storage": {
						"base": "t_struct(Order)256_storage",
						"encoding": "dynamic_array",
						"label": "struct NFTMarket.Order[]",
						"numberOfBytes": "32"
					},
					"t_mapping(t_uint256,t_struct(Order)256_storage)": {
						"encoding": "mapping",
						"key": "t_uint256",
						"label": "mapping(uint256 => struct NFTMarket.Order)",
						"numberOfBytes": "32",
						"value": "t_struct(Order)256_storage"
					},
					"t_mapping(t_uint256,t_uint256)": {
						"encoding": "mapping",
						"key": "t_uint256",
						"label": "mapping(uint256 => uint256)",
						"numberOfBytes": "32",
						"value": "t_uint256"
					},
					"t_struct(Order)256_storage": {
						"encoding": "inplace",
						"label": "struct NFTMarket.Order",
						"members": [
							{
								"astId": 251,
								"contract": "contracts/nft-market.sol:NFTMarket",
								"label": "seller",
								"offset": 0,
								"slot": "0",
								"type": "t_address"
							},
							{
								"astId": 253,
								"contract": "contracts/nft-market.sol:NFTMarket",
								"label": "tokenId",
								"offset": 0,
								"slot": "1",
								"type": "t_uint256"
							},
							{
								"astId": 255,
								"contract": "contracts/nft-market.sol:NFTMarket",
								"label": "price",
								"offset": 0,
								"slot": "2",
								"type": "t_uint256"
							}
						],
						"numberOfBytes": "96"
					},
					"t_uint256": {
						"encoding": "inplace",
						"label": "uint256",
						"numberOfBytes": "32"
					}
				}
			},
			"userdoc": {
				"kind": "user",
				"methods": {},
				"version": 1
			}
		}
	}
}